S3250800c000A0EF0020A1C10008EDAF0108C1840108C1AF010819D50008EDFF010800000000A2
S3250800c020000000000000000000000000E1C901084D2F01080000000029BD01081FEF0108B4
S3250800c040BBC10008BBC10008BBC10008BBC10008BBC10008BBC10008BBC10008BBC10008B2
S3250800c060BBC1000801460108BBC10008BBC10008BBC10008BBC10008BBC10008BBC10008C6
S3250800c080BBC10008BBC10008BBC10008BBC10008BBC10008BBC10008BBC10008BBC1000872
S3250800c0a0BBC10008BBC10008BBC10008BBC10008BBC10008E9F00108BBC10008BBC10008F4
S3250800c0c0BBC10008BBC10008BBC10008BBC10008BBC10008ED050208BBC10008BBC10008BA
S3250800c0e0BBC10008BBC10008BBC10008D5F10108BBC10008BBC10008BBC10008BBC10008C7
S3250800c100BBC10008BBC10008BBC10008BBC10008BBC10008BBC10008BBC10008BBC10008F1
S3250800c120BBC10008BBC10008BBC10008BBC10008BBC10008BBC10008BBC10008BBC10008D1
S3250800c140BBC10008BBC10008BBC10008BBC10008BBC10008BBC10008BBC10008BBC10008B1
S3250800c160BBC10008BBC10008BBC10008BBC10008BBC10008BBC10008BBC100080000000015
S3250800c180BBC10008BBC10008DFF810D000F0B2FC004800471D1B0208AFF30080A0EF002092
S3250800c1a00648804706480047FEE7FEE7FEE7FEE7FEE7FEE7FEE7FEE7FEE7FEE785F0010857
S3250800c1c089C100082DE9F05F0546002092469B4688460646814640241BE0284641464746B4
S3250800c1e0224600F095FB53465A46C01A914110D311461846224600F07CFB2D1A67EB01085B
S3250800c2004F4622460120002100F073FB17EB00094E41201EA4F10104DFDC484631462A46D1
S3250800c2204346BDE8F09F40EA01039B0703D009E008C9121F08C0042AFAD203E011F8013BBB
S3250800c24000F8013B521EF9D27047D2B201E000F8012B491EFBD270470022F6E710B5134619
S3250800c2600A4604461946FFF7F0FF204610BD034611F8012B00F8012B002AF9D118467047F4
S3250800c2800FB400B58DB010A909900B9000914FF0FF300A9000200C900548069005480790D2
S3250800c2a06A4609A80F9900F069FB0DB05DF814FB99C90008B7C900082DE9FF5F1D464FF0EA
S3250800c2c0FF3BD5E9014691465F464FF00008A9697F1C01988847296A824688470028F6D120
S3250800c2e0BAF1FF3F0CD024F4C064002E19DD600614D5BAF12B0F09D0BAF12D0F0ED103E055
S3250800c300584604B0BDE8F09F44F48064A9697F1C01988847761E8246002E02DDBAF1300F05
S3250800c32003D0B9F1000F26D032E0A969761E44F400747F1C019888478246002E05DDBAF183
S3250800c340780F06D0BAF1580F03D0B9F1000F10D01EE0B9F1000F02D0B9F1100F18D1A969A7
S3250800c360761E24F400747F1C019888478246102002E0082000E00A20814609E008FB0908BC
S3250800c380A969761E44F400747F1C019888478246002E05DD4946504600F0DCFA0028EDDA88
S3250800c3a0E96901988847A00502D46FF00100A8E7E00725D1600613D5600502D5C8F100002B
S3250800c3c000E0404629680A1D2A600968220501D5087015E0220701D5088011E008600FE0FD
S3250800c3e02868011D29600068210502D580F8008006E0210702D5A0F8008001E0C0F8008085
S3250800c40038467EE72DE9FF5FD2E901A74FF00008916999461446DDF838B046460198884729
S3250800c420054659EA0B0005D009E0A169761C019888470546216A284688470028F5D1681C0E
S3250800c44003D05FEACA7005D015E04FF0FF3004B0BDE8F09F2068011D2160D0F800800AE0FF
S3250800c4605FEACA7001D108F8015BA169761C7F1E019888470546002F1ADD681C18D0B9F1D5
S3250800c480000F0DD0E81705EBD060421120F01F0059F822102A1A012090400142E0D107E06E
S3250800c4a0BBF1000FDCD1216A284688470028D7D0E16901988847BBF1000F07D1002E05DD1A
S3250800c4c05FEACA7002D1002188F80010A068B84203DDBBF1000F03D017B16FF00100B6E712
S3250800c4e03046B4E72DE9FE4F804681EA0300C00F0C46009021F0004123F00045B8EB020086
S3250800c500A94105D24046214690461C460B46024623F00040104347D0270DC7F30A00C3F323
S3250800c5200A510290401A019040286BDAC3F3130040F4801B0098924620B10023D2EB030AA2
S3250800c54063EB0B0B01985946C0F14002504600F0D0F906460D4650465946019A00F0E8F9AF
S3250800c56010EB08006141002487EA115284EAE7731A4340D0009A62B3019A012A4FEA0752D4
S3250800c58015DC001B61EB02014FF0004202EA0752CDE90042001C41F5801132462B4600F0B8
S3250800c5a02AFA03B0BDE8F08F40462146F9E7001B61EB0201001C41F5801300185B4120186A
S3250800c5c0A2F5001747EB030140EAD570B6196D4111E06D084FEA360645EAC0754FEA0752AC
S3250800c5e0001B61EB0201001C41F5801149084FEA30000019514132462B4603B0BDE8F04FFB
S3250800c60000F0EAB90098012240000023D0EB020263EBE073009821464FEAE074B8EB0000CC
S3250800c62061EB0401E9E783F000435BE781F0004158E72DE9FE4F81EA030404F0004421F0C4
S3250800c640004100944FF0000B23F0004350EA01045ED052EA03045BD0C3F30A54C1F30A5555
S3250800c6602C44A4F2F3340194A0FB0254C1F3130141F48011C3F3130343F4801301FB024493
S3250800c68000FB034E840A970A44EA815447EA8357A4FB076802958D0A05FB07854FEA932C43
S3250800c6a004FB0C542705029D4FEA065847EA1637B5EB08056EEB070C870E920E47EA811716
S3250800c6c042EA8312A7FB0201B6EB0B0164EB00042B0D43EA0C335E1844EB1C50DA4651467A
S3250800c6e0E7FB0201C5F313044FEA0B3343EA14534FEA0432019C43EA0603A4F10C040294F0
S3250800c700009CCDE900B400F076F903B0BDE8F08F00200146F9E72DE9F04D81EA030404F0CF
S3250800c720004B21F0004514464FF0000A23F0004150EA050220D054EA01021DD0C5F30A57DB
S3250800c7400246C5F31303C1F31300C1F30A5640F4801543F48013A7EB0608101BD64608F266
S3250800c760FD3873EB050002D308F1010801E092185B41B8F1000F03DA00200146BDE8F08DF7
S3250800c78000204FF48011064684460EE0171B73EB050705D3121B63EB050306434CEA010C10
S3250800c7a049084FEA300092185B4150EA0107EDD152EA030012D082EA040083EA050108431C
S3250800c7c005D0101BAB4106D20122002306E000224FF0004302E06FF0010253101AEB060005
S3250800c7e04CEB085110EB0A0041EB0B01BDE8F04D00F0F2B80EB5C10F80EAE0700844CA0778
S3250800c800002140F233438DE80E000A460B4600F0F2F803B000BD0EB540F2334102910021B6
S3250800c820CDE900110A460B4600F0E5F803B000BD70B5C1F30A5201F000450024C1F31301EE
S3250800c84040F2FF3341F480119A4201DA002070BD40F233439A42A2F2334203DC524200F0AC
S3250800c86057F800E090402C43F1D0404270BDC1F30A5210B5C1F3130140F2FF3341F4801105
S3250800c8809A4201DA002010BD40F233439A42A2F2334203DC524200F03BF810BD904010BD59
S3250800c8a000F0004230F000400AD0C10D01F56071C0F3160042EA0151C20840071143704706
S3250800c8c000200146704730B50B46014600202022012409E021FA02F59D4205D303FA02F582
S3250800c8e0491B04FA02F52844151EA2F10102F1DC30BD202A04DB203A00FA02F1002070479B
S3250800c9009140C2F1200320FA03F3194390407047202A04DB203A21FA02F00021704721FAEC
S3250800c92002F3D040C2F120029140084319467047202A06DBCB17203A41FA02F043EAE073C9
S3250800c94006E041FA02F3D040C2F1200291400843194670473A2800D2303820F02002412A63
S3250800c96001D3A2F13700884201D34FF0FF307047026811441378016018467047D16004490A
S3250800c98051610449116200211161114600F0CAB871C9000819CB0008426842B1016811F87E
S3250800c9a0013B23B1521EC0E90012184670470121C160881E704742685AB1C368016843B934
S3250800c9c083688B4205D0491E521CC0E90012002070474FF0FF30704710B5141E73F10004D1
S3250800c9e008DA401C41F1000192185B411A4301D120F0010010BD2DE9F04D92469B4611B197
S3250800ca00B1FA81F202E0B0FA80F220329046FFF770FF04460F4640EA0A0041EA0B015346BC
S3250800ca205A46084313D0114653EA010019D0C8F140025046FFF76CFF05460E4650465946D6
S3250800ca404246FFF756FF084305D0012004E020463946BDE8F08D0020054346EAE0762C436C
S3250800ca6037430A986305E40AA0EB08000022FD0A44EA47540A3002D500200146E9E7010563
S3250800ca8010196941DDE9084500196941BDE8F04DA2E7C1F30A52C1F3130140F2FF3341F403
S3250800caa080119A4202DA00200146704740F233439A42A2F2334202DC5242FFF729BFFFF72E
S3250800cac018BF000030B5041E71F1000404DB4FF00044404264EB0101141E73F1000405DB55
S3250800cae01C464FF00043524263EB0403994208BF904230BD064C074D06E0E06840F00103F2
S3250800cb0094E8070098471034AC42F6D3FFF740FB240E0308440E0308C0B24FF4F05100F0F9
S3250800cb2099B900002DE9F34F8BB04FF0000801F10C000C464FF0010B46460DF1080A0190F3
S3250800cb406269012101989047051E2DD0252D2CD0216A8847C0B16269012101989047216A49
S3250800cb6088470028F7D1411E62690198904700E0761CA1690B988847216A88470028F7D116
S3250800cb80E1690B988847DBE7A1690B9888470746A84201D1761CD3E7E1690B9888477F1CE1
S3250800cba002D1B8F1000F6FD047E1002762693D463946019890472A2804D162690121019864
S3250800cbc090470125DFF888926269012101989047A0F130010A290AD24F45E5DC07EB87015C
S3250800cbe000EB4107303FDFD445F01005ECE7E90601D46FF000476C280AD04C2814D06828F5
S3250800cc0015D06A280DD074281CD07A281AD01DE062690121019890476C2802D045F00405A0
S3250800cc2014E045F002050DE045F020050AE06269012101989047682802D045F0080505E09F
S3250800cc4045F400656269012101989047C4E9015765283DD019DC58287AD00CDC452837D011
S3250800cc6004DC252826D0412831D131E046282FD047282CD12CE05B2877D0612828D063284C
S3250800cc807CD0642823D15AE0D1E06F2848D008DC66281DD067281BD0692821D06E2816D148
S3250800cca027E0702845D0732868D0752847D078280DD14DE0A1690B988847054625283FF439
S3250800ccc069AFE1690B9888476D1C3FF46AAFB4E023466A466FF001000B99AFF300809FE04B
S3250800cce045F040006060A80723464FF0000236D43EE0E8077FF447AF2068011D2160006889
S3250800cd00290501D506701BE7290701D5068017E7A90703D5F117C0E9006111E706600FE711
S3250800cd2045F040006060A80723464FF0080216D41EE040F60E0125EA0100606016E045F027
S3250800cd4040006060A80723464FF00A0207D40FE045F040006060A80708D5234610226FF0DD
S3250800cd6001000B99AFF300805AE007E0234610226FF001000B99FFF79FFA51E04FF0000916
S3250800cd804F464B46632802D05B2807D041E02079C00601D40120A06001273AE06269012103
S3250800cda0019890475E2805D14FF001096269494601989047216939B900210A46534643F8C5
S3250800cdc02120491C0829FADBB0B3216969B9C11700EBD16253110AEB830122F01F02821AE8
S3250800cde001200B68904003430B6062690121019890475D28E8D1B9F1000F09D0002051462C
S3250800ce0051F82020D24341F82020401C0828F7DB02AB224600976FF001000B99FFF7F2FAFD
S3250800ce2000280CDA401C08D1BBF1000F05D04FF0FF300DB0BDE8F08FFFE74046F9E7E90786
S3250800ce4001D108F1010806444FF0000B78E60000CCCCCC0C7F2801D9002208E0064A02EBC6
S3250800ce605002C007127800D1120902F00F0201209040084070470000080B030870B58C183B
S3250800ce8010F8015B15F0070301D110F8013B2A1106D110F8012B03E010F8016B01F8016BF9
S3250800cea05B1EF9D12B0705D40023521E0DD401F8013BFAE710F8013BCB1A921C03E013F8C7
S3250800cec0015B01F8015B521EF9D5A142D8D3002070BD01460888B0F5004F07DB0888401EDF
S3250800cee04FF6FF72101A0880012070470020FCE754494A6822F440324A604A6843681A43A6
S3250800cf004A600268526822F4807203685A6002685368026943EA022203685A6002685268DE
S3250800cf2022F0407203685A600268526883681A4303685A600268926822F4006203689A6028
S3250800cf4002689268C3681A4303689A603E4B826A9A4218D00268926822F0706203689A608C
S3250800cf6002689268836A1A4303689A600268926822F0405203689A6002689268C36A1A4335
S3250800cf8003689A600BE00268926822F0706203689A600268926822F0405203689A600268AF
S3250800cfa0926822F0020203689A6002689368826943EA420203689A60026AA2B102685268E5
S3250800cfc042F4006203685A600268526822F4604203685A6002685368426A521E43EA4232A3
S3250800cfe003685A6005E00268526822F4006203685A600268D26A22F470020368DA62026819
S3250800d000D36A828B521E43EA02520368DA620268926822F4007203689A6002689368026BFD
S3250800d02043EA422203689A600268926822F4806203689A6002689368426943EA82220368DF
S3250800d0409A607047002301400100000F2DE9FE4F05460E46174699460024072E02DD002007
S3250800d060BDE8FE8F802000EB061000F0FF0A8DF808A0E3208DF809000220009002AB012296
S3250800d08049461046D5F808C0E0478046B8F1000F01D10020E4E7082014F046FC4B4800782D
S3250800d0a0012821D100241CE0022014F03DFC00208DF808008DF809000220009002AB00220C
S3250800d0c049460120D5F804C0E04780469DF809009DF8081040EA01203D4921F81400601C4F
S3250800d0e084B2642CE0DB6FE03848007802282DD1002426E0022014F017FC00208DF8080022
S3250800d1008DF809000220009002AB002249460120D5F804C0E04780469DF809009DF8081079
S3250800d12040EA0120019001A8FFF7D3FE0CB9BDF804B0BDF80400584501DDBDF804B0601C4E
S3250800d14084B20A2CD6DBA7F800B03DE01F480078032823D100241CE0022014F0E5FB0020F4
S3250800d1608DF808008DF809000220009002AB002249460120D5F804C0E04780469DF8090039
S3250800d1809DF8081040EA0120124921F81400601C84B2114800888442DEDB15E000208DF855
S3250800d1a008008DF809000220009002AB002249460120D5F804C0E04780469DF809009DF8E9
S3250800d1c0081040EA01203880404649E7FC000020841200204C130020FE0000202DE9FE4F9E
S3250800d1e004460D46174698464FF0000A00200190072D01DDBDE8FE8F802000EB051000F07B
S3250800d200FF098DF80890E3208DF809000220009002AB012241461046D4F808C0E0470646E4
S3250800d2200EB90020E6E74FF0000A1EE0032014F07BFB00208DF808008DF80900022000905B
S3250800d24002AB002241460120D4F804C0E04706469DF809009DF8081040EA012B0198584470
S3250800d26001900AF1010000F0FF0ABAF1100FDDDB0198C0F30F1038803046BBE72DE9FC4704
S3250800d28004460D4617469846072D02DD0020BDE8FC87802000EB051000F0FF098DF804909C
S3250800d2a0E3208DF805000220009001AB012241461046D4F808C0E04706460EB90020E6E7BA
S3250800d2c0052014F031FB0220009001AB002241460120D4F804C0E04706469DF805009DF891
S3250800d2e0041040EA012038803046D0E710B500224FF40041224809F00BFA00224FF48041E3
S3250800d3001F4809F005FA00224FF480511C4809F0FFF914F004FB01221103194809F0F8F990
S3250800d32014F0FDFA00224FF48051154809F0F0F900224FF40041124809F0EAF90122D1039C
S3250800d3400F4809F0E5F900224FF400410C4809F0DFF900224FF48041094809F0D9F9012261
S3250800d3609103074809F0D4F900224FF48041044809F0CEF900220821024809F0C9F910BDA7
S3250800d380000402400000024070B52DED048B04460E469FED420BB0EE408AF0EE608A9FEDF6
S3250800d3a0410B53EC102B51EC180BFFF7B4F941EC180B2046FFF72FFA41EC190B53EC182BEE
S3250800d3c0FFF737F941EC180B51EC180BFFF74FFA0446002522E004F0010028B10122510374
S3250800d3e0324809F095F905E000224FF400512F4809F08EF9640800BF00BF0122D1032B4838
S3250800d40009F086F914F08BFA00224FF40041274809F07EF914F083FA681CC5B2202DDADBFA
S3250800d4200EB1002400E00424002522E004F0010028B1012251031D4809F06AF905E00022BF
S3250800d4404FF40051194809F063F9640800BF00BF0122D103154809F05BF914F060FA002269
S3250800d4604FF40041114809F053F914F058FA681CC5B2082DDADB012291030C4809F048F9FC
S3250800d48014F04DFA00224FF48041084809F040F914F045FABDEC048B70BD000000000010D3
S3250800d4a01111A1410000000080842E410004024010B500224FF44071044809F029F900223D
S3250800d4c00421034809F024F910BD0000000402400008024010B501224FF44071044809F03A
S3250800d4e017F901220421034809F012F910BD0000000402400008024010B5044624B10548E9
S3250800d500C1680120884703E00248C1680020884710BD00005006002000BFFEE72DE9F04F63
S3250800d5202DED028B83B082460F46002405E000207C4921F81400601C84B2642CF7DB002196
S3250800d54038460BF059F930B9012F01D1764D08E03FB9764D05E0012003B0BDEC028BBDE80D
S3250800d560F08F0220029000264EE006EB46007049085C182190FBF1F201FB120000F0FF0816
S3250800d58006EB46006A4908444078182190FBF1F201FB120000F0FF0966490868804715F8EF
S3250800d5a0091015F80800634A53683A46984715F8091015F808005F4A93683A4698475D4885
S3250800d5c0C1680120884700200EF0D4FEB0EE408A5848C1680020884756490868804706EB4D
S3250800d5e04600534908448078534951F820B000EE10BAB8EE400AB4EEC08AF1EE10FA01DBE9
S3250800d6000220A9E7701C86B202988642ADDB0AEB4A004A49085C182190FBF1F201FB1200B1
S3250800d62000F0FF080AEB4A00444908444078182190FBF1F201FB120000F0FF093D49086872
S3250800d640804715F8091015F808003A4A53683A46984715F8091015F80800364A93683A46E6
S3250800d660984700224FF48071354809F051F801225102334809F04CF801220421314809F0C0
S3250800d68047F8012030490870902301AA03212F48FFF7DCFC002436E0224901EB4400FFF799
S3250800d6a018FC204931F8141001EB4101C802C11700EB5141C9131B4A22F814104CB910466B
S3250800d6c030F8140022490880104630F8140021490880144830F814001D490988884204DD4F
S3250800d6e0104830F814001A4908800E4830F8140018490988884204DA0A4830F81400154985
S3250800d7000880601C84B2642CC6DB00200E4908700848C16800208847064908688047002093
S3250800d7201AE70000841200201E5C0020365C0020D409030850060020AC090308DA090308CC
S3250800d7400004024000080240FC000020F405002084060020860600202DE9F04387B080465A
S3250800d7600C4691461D46DDE90E76681CD0B9BC420CDA2EB126A228A1284813F069FC11E09B
S3250800d78027A225A1254813F063FC0BE02EB126A221A1224813F05CFC04E025A21EA11F4833
S3250800d7a013F056FC781CD0B9AC420CDD2EB118A219A11A4813F04CFC11E01FA216A117484A
S3250800d7c013F046FC0BE02EB117A213A1134813F03FFC04E016A210A1104813F039FC0F48F2
S3250800d7e017A3184A1849CDE90295CDE90084CDE90470164813F02CFC144812F0BBFF13F049
S3250800d800E3F81E2014F090F807B0BDE8F0830000706173730000000025730000F500002022
S3250800d82053686F72740000006661696C0000000050617373000000004F70656E0000000005
S3250800d840676E6400ED0000206C0C0308245B00200146174890ED002AB8EE422AF2EE042AE5
S3250800d86022EE222A62EE012A82EEA12ADFED112A82EE223A81ED003AD1ED002A9FED0E3A51
S3250800d8809FED0E2A12EE832A81ED002A91ED002AB5EEC02AF1EE10FA03DD0020044A106095
S3250800d8a070479FED072A81ED002A0120F8E700000001002000007A4448E17A3FEC5102420C
S3250800d8c00000000000B587B000BF002001901048006840F002000E4908600846006800F087
S3250800d8e00200019000BF00BF08200290094803900120049002A9084808F002FE002211464A
S3250800d900092008F0C2FF092008F0A4FF07B000BD30380240000031100004024010B52DEDCF
S3250800d920028BB0EE408A0EF0F5F900224FF40051124808F0EDFE9FED120AB4EE408AF1EE12
S3250800d94010FA03D104200DF031FB14E09FED0D0AB4EE408AF1EE10FA03D105200DF026FB8B
S3250800d96009E09FED090AB4EE408AF1EE10FA02D106200DF01BFBBDEC028B10BD0008024063
S3250800d98000409C450000FA4300006C420149087070470000050100202DE9F0412DED048BDE
S3250800d9a00446B0EE408AF0EE608AB0EE419AF0EE619A0D4616464FF00008092008F04AFF2D
S3250800d9c004F0010020B1012220213B4808F0A0FE04F0020020B101220421374808F098FEDA
S3250800d9e00A2013F0A1FF04F0010020B100222021314808F08DFE04F0020020B10022042119
S3250800da002D4808F085FE00202C4908702C490860084607682B480AF0A3F9294800682A490C
S3250800da200860C82005F0A0FA092008F021FF1EE023480068C01B6421B0FBF1F81F48007814
S3250800da40012814D100F032F92846F0EE691AB0EE491AF0EE680AB0EE480AFFF7F9FE20B9B9
S3250800da600420BDEC048BBDE8F0810720F9E7B045DED3134800681549086012480AF07FF924
S3250800da8002210D4808F03CFE01280DD101210A4808F036FE012807D19FED0D0A85ED000A07
S3250800daa000F004F90620DCE79FED0A0A85ED000A00F0FCF80520D4E700100240040100202B
S3250800dac03000002058070020080100200C010020000000007F96184B2DE9F0472DED048BA5
S3250800dae00446F0EE408AB0EE609AB0EE418AF0EE619A0D4617464FF00009092008F0AAFE8B
S3250800db005D480168302088475B48416830208847072012F0FBF8FFF7DDFC072012F090F9C2
S3250800db20564800780EF04EFC534801685448007888475148416853480078884704F0010079
S3250800db4020B101222021504808F0E2FD04F0020020B1012204214C4808F0DAFD0A2013F074
S3250800db60E3FE04F0010020B100222021464808F0CFFD04F0020020B100220421424808F0AB
S3250800db80C7FDB0EE480AFFF7C9FE0A2005F0ECF9002011F08DFF3D490E78F11706EB51718E
S3250800dba0C81012F0B3F839490E78F11706EB5171C910A6EBC101C8B211F07AFF0A2005F0D0
S3250800dbc0D3F9002032490870324908600846D0F8008031480AF0C4F82E4800682F490860F2
S3250800dbe0C82005F0C1F9092008F042FE1FE029480068A0EB08006421B0FBF1F924480078B6
S3250800dc00012814D100F052F82846F0EE691AB0EE481AF0EE490AB0EE680AFFF719FE20B9B8
S3250800dc200420BDEC048BBDE8F0870720F9E7B945DDD3184800681A49086017480AF09FF826
S3250800dc400221114808F05CFD01280DD101210E4808F056FD012807D19FED120A85ED000AFA
S3250800dc6000F024F80620DCE79FED0F0A85ED000A00F01CF80520D4E7EC0500203106002034
S3250800dc80320600203306002000100240300600200401002030000020580700200801002000
S3250800dca00C010020000000007F96184B10B5092008F0D0FD10BD002165E090F82E208A4229
S3250800dcc000D181722F22125C8A4200D141723022125C8A4200D101723122125C8A4200D135
S3250800dce0C1713222125C8A4200D181713322125C8A4200D141713422125C8A4200D10171AE
S3250800dd003522125C8A4200D1C1703622125C8A4200D181703722125C8A4200D1417038229F
S3250800dd20125C8A4200D141733922125C8A4200D181733A22125C8A4200D1C1733B22125C56
S3250800dd408A4200D101743C22125C8A4200D141743D22125C8A4200D181743E22125C8A428C
S3250800dd6000D1C1743F22125C8A4200D101754022125C8A4200D141754122125C8A4200D11C
S3250800dd8081754A1CD1B2032997DB0021A9E0027E8A4203D1827A42EA01128272427E8A4273
S3250800dda003D1427A42EA01124272827E8A4203D1027A42EA01120272C27E8A4203D1C279E8
S3250800ddc042EA0112C271027F8A4203D1827942EA01128271427F8A4203D1427942EA01121A
S3250800dde04271827F8A4203D1027942EA01120271C27F8A4203D1C27842EA0112C2702022C6
S3250800de00125C8A4203D1827842EA011282702122125C8A4203D1427842EA0112427022227B
S3250800de20125C8A4203D1027842EA011202702322125C8A4203D1027B42EA011202732422D1
S3250800de40125C8A4203D1427B42EA011242732522125C8A4203D1827B42EA01128273262227
S3250800de60125C8A4203D1C27B42EA0112C2732722125C8A4203D1027C42EA01120274282201
S3250800de80125C8A4203D1427C42EA011242742922125C8A4203D1827C42EA011282742A22DB
S3250800dea0125C8A4203D1C27C42EA0112C2742B22125C8A4203D1027D42EA011202752C22B5
S3250800dec0125C8A4203D1427D42EA011242752D22125C8A4203D1827D42EA011282754A1C79
S3250800dee0D1B20329FFF653AF7047000010B5044684B33F480088C82879DD00203C490880EF
S3250800df003C4807F0E1F83C49088004213B4808F0F7FBC8B138480088B0F57A6F0EDB384888
S3250800df200078401C36490870084600781E285EDB0020087001203349087058E00020304945
S3250800df4008703049087052E000202D4908702D4908704CE0FFE72CE0052013F0E5FC254888
S3250800df6007F0B2F8244908800421244808F0C8FBC8B121480088B0F57A6F0EDB20480078F0
S3250800df80401C1F490870084600781E2811DB0020087001201B4908700CE0002018490870C5
S3250800dfa01849087006E00020154908701549087000E0D1E700BF0221104808F0A1FBB0B101
S3250800dfc00D48008840F6B831884210DD0A48008807F064F80A280ADA05F062FC642013F063
S3250800dfe0A3FC0EF079F84FF47A7013F09DFC10BD1C0000205C00002006000020000002404F
S3250800e000360000200400002010B50446606813F0B7FC204613F0B4FC10BD000038B54FF0D9
S3250800e020AA300090862012F0ADFD002404E0FF200E490855601C84B2B4F5805FF7DB00200F
S3250800e0400B49088009490870094A128802F50621064A074B1B88D018012212F033FE054A2F
S3250800e0600121684612F042FF38BD0000E8C800209606002080120800002005490870054930
S3250800e08008600549086001200449087070470000040600200C0600200806002010060020F7
S3250800e0a010B50446FFF7BAFF02A012F063FB12F08BFC10BD6C6F6767657220697320636CD1
S3250800e0c065617265640A000070B5044601252078012844D194F82C0002280BD1022232A107
S3250800e0e0E06803F037FF002839D001202F490870002534E094F82C0003280AD103222CA176
S3250800e100E06803F027FF50B3002028490870002525E094F82C00042815D1042225A1E0685C
S3250800e12003F018FF20B1022024490870022516E0042223A1E06803F00DFF80B103201F49E5
S3250800e140087003250BE094F82C00052807D105221DA1E06803F0FEFE08B108F0E9FB6DB992
S3250800e16012480078012803D119A012F003FB02E01CA012F0FFFA12F027FC14E0022D05D152
S3250800e1801EA012F0F7FA12F01FFC0CE0032D05D11FA012F0EFFA12F017FC04E021A227A183
S3250800e1a020460EF03BF970BD6F6E0000640000206F6666006B65793100000000040600204C
S3250800e1c06B6579320000000072657365740000007B226465627567223A202274727565226F
S3250800e1e07D0D0A007B226465627567223A202266616C7365227D0D0A000000007B22646514
S3250800e200627567223A20226B657931227D0D0A007B226465627567223A20226B6579322205
S3250800e2207D0D0A00706172616D6574657273206E6F20737570706F7274210000320000007B
S3250800e2402DE9F04104460025A84600272078022802D14FF0100800E00125002D47D194F822
S3250800e2602C0004285AD1042269A1E06803F072FE002830D0B8F1100F2DD12D210A5D66A188
S3250800e280206903F067FE70B100BF64A012F072FA12F09AFB142013F047FB01210020FFF7F5
S3250800e2a03DF9064618E02D210A5D61A1206903F051FE70B100255FA012F05CFA12F084FB36
S3250800e2c0142013F031FB01210846FFF727F9064602E0032500E00225002D7ED146B15AA07D
S3250800e2e012F048FA12F070FB142013F01DFB74E0002710E0594830F8172059A1594812F008
S3250800e300A7FE584812F036FA12F05EFB0A2013F00BFB781C87B2642FECDB5EE094F82C00CD
S3250800e320052859D1052250A1E06803F013FE002850D0B8F1100F4DD12D210A5D36A12069D1
S3250800e34003F008FE70B1002549A012F013FA12F03BFB142013F0E8FA00210846FFF7DEF8EC
S3250800e360064616E02D210A5D31A1206903F0F2FD70B1002543A012F0FDF912F025FB1420E4
S3250800e38013F0D2FA00210120FFF7C8F8064600E0032505BB46B140A012F0ECF912F014FBC5
S3250800e3a0142013F0C1FA18E0002710E02B4830F817202BA12B4812F04BFE2A4812F0DAF9AB
S3250800e3c012F002FB0A2013F0AFFA781C87B2642FECDB02E0022500E00225B5B1012D05D1B9
S3250800e3e032A238A120460EF019F80EE0022D05D135A23AA120460EF011F806E0032D04D1F0
S3250800e40037A23CA120460EF009F8BDE8F08100006C656674000000006230350063637069AC
S3250800e4206E206C656674206230353A0A0000000061303500636370696E206C65667420614B
S3250800e44030353A0A000000006C656674206E6F20636F6E6E656374210A0000008412002072
S3250800e46025640A00245B00207269676874000000636370696E207269676874206230353AD2
S3250800e4800A000000636370696E207269676874206130353A0A0000007269676874206E6FD4
S3250800e4a020636F6E6E656374210A0000706172616D6574657273206E6F20737570706F721F
S3250800e4c07421000031000000636370696E20706F7274206572726F722100000032000000D9
S3250800e4e0636370696E2070696E206572726F722100000000330000002DE9F04F2DED028B00
S3250800e5008BB080464FF00109002400200790089009900A900690059004909FED6A0A8DEDC4
S3250800e520030A82468346002598F8000003287BD104A805A9CDE9001006AB07AA62A1D8F8AE
S3250800e5400400FDF79DFE9DF818006C2838D14FF0010A4FF0010B5F4D00BF14E004EB4400A9
S3250800e5605D4A02EBC001032205A803F0F3FC40B15A48005D182190FBF1F201FB1200C6B267
S3250800e58003E0601CC4B2142CE8DB00BF002414E004EB4400504A02EBC001032204A803F07F
S3250800e5a0D9FC40B14D48005D182190FBF1F201FB1200C7B203E0601CC4B2142CE8DB39E076
S3250800e5c04FF0000A4FF0020B454D002414E004EB4400414A02EBC001032205A803F0BAFC07
S3250800e5e040B14048005D182190FBF1F201FB1200C6B203E0601CC4B2142CE8DB00BF00244F
S3250800e60015E004EB4400344A02EBC001032204A803F0A0FC48B13348005D182190FBF1F2C0
S3250800e62001FB1200C7B204E02DE0601CC4B2142CE7DB00BFA95DE85D2B4A536852469847AF
S3250800e640A95DE85D284A9368524698474FF4967203A9F6EE001A9FED251ADFED1A0A9FED41
S3250800e660190A5846FFF798F90398FEF719F941EC180B8DED008B04AB05AA06A91CA012F082
S3250800e680D7FC4FF00009B9F1010F05D11EA224A140460DF0C3FE10E0B9F1020F05D121A2B4
S3250800e6a027A140460DF0BAFE07E0B9F1030F04D124A229A140460DF0B1FE0BB0BDEC028B1E
S3250800e6c0BDE8F08F000000002573202573202573202573001E5C0020705F0020562202083D
S3250800e6e0365C00206A2202085006002000006C4225733A25732D25732C636170203D20256F
S3250800e7002E33666E460A0000706172616D6574657273206E6F20737570706F7274210000D7
S3250800e72031000000696E7075742076616C7565206D6F7265207468656E20313030210000B9
S3250800e74032000000696E7075742076616C7565206572726F722100003300000070B50446FF
S3250800e760207828B10AA20FA120460DF057FE70BD0D480DF095FD05462A460CA1114812F032
S3250800e78067FC104811F0F6FF12F01EF900BFEEE7706172616D65746572206572726F7221E1
S3250800e7a00000000030000000401208007B22476574636865636B73756D223A202225752257
S3250800e7c07D0D0A00501000202DE9F84304460026B04600272078022802D14FF0100800E06D
S3250800e7e00126002E77D194F82C00042874D104229CA1E06803F0AEFB002860D0B8F1100FDE
S3250800e8005DD12D210A5D99A1206903F0A3FB78B100BF97A011F0AEFF12F0D6F8142013F0DF
S3250800e82083F86A460121002003F0A2FF054647E02D210A5D93A1206903F08CFB78B100261C
S3250800e84091A011F097FF12F0BFF8142013F06CF86A460121084603F08BFF054630E02D2148
S3250800e8600A5D8EA1206903F075FB78B100268CA011F080FF12F0A8F8142013F055F86A4637
S3250800e8800121022003F074FF054619E02D210A5D88A1206903F05EFB78B1002686A011F053
S3250800e8a069FF12F091F8142013F03EF86A460121032003F05DFF054602E0032600E0022648
S3250800e8c0002E8FD14DB181A011F054FF12F07CF8142013F029F8ABE017E0002710E08048FA
S3250800e8e030F817207FA1804812F0B2FB7E4811F041FF12F069F80A2013F016F8781C87B2A2
S3250800e9007A4800888742EADB92E094F82C00052871D1052276A1E06803F01CFB00286BD085
S3250800e920B8F1100F68D12D210A5D50A1206903F011FB78B1002670A011F01CFF12F044F8E1
S3250800e940142012F0F1FF6A460021084603F010FF054645E02D210A5D4AA1206903F0FAFAE2
S3250800e96078B1002669A011F005FF12F02DF8142012F0DAFF6A460021012003F0F9FE0546CF
S3250800e9802EE02D210A5D45A1206903F0E3FA78B1002663A011F0EEFE12F016F8142012F0E2
S3250800e9a0C3FF6A460021022003F0E2FE054617E02D210A5D3FA1206903F0CCFA78B1002659
S3250800e9c05CA011F0D7FE11F0FFFF142012F0ACFF6A460021032003F0CBFE054600E0032673
S3250800e9e016BB55B158A011F0C5FE11F0EDFF142012F09AFF1CE01AE017E0002710E0384836
S3250800ea0030F8172037A1384812F022FB364811F0B1FE11F0D9FF0A2012F086FF781C87B28D
S3250800ea20324800888742EADB02E0022600E00226B6B1012E05D149A24EA120460DF0EEFC93
S3250800ea400EE0022E05D14CA250A120460DF0E6FC06E0032E04D14EA252A120460DF0DEFC84
S3250800ea60BDE8F8836C6566740000000061303400636370696E206C656674206130343A0AF7
S3250800ea800000000061303900636370696E206C656674206130393A0A0000000062303400D2
S3250800eaa0636370696E206C656674206230343A0A0000000062303900636370696E206C657D
S3250800eac06674206230393A0A000000006C656674206E6F20636F6E6E656374210A00000042
S3250800eae04C13002025640A00245B0020FE0000207269676874000000636370696E20726913
S3250800eb00676874206130343A0A000000636370696E207269676874206130393A0A00000002
S3250800eb20636370696E207269676874206230343A0A000000636370696E20726967687420E7
S3250800eb406230393A0A0000007269676874206E6F20636F6E6E656374210A000070617261A4
S3250800eb606D6574657273206E6F20737570706F727421000031000000636370696E20706F5F
S3250800eb807274206572726F722100000032000000636370696E2070696E206572726F722105
S3250800eba000000000330000002DE9F0410446002600272078012801D1102700E00126B6B9F6
S3250800ebc0102F14D194F82C10E0680AF06DF868B1002694F82C10E06810F018F90546642D58
S3250800ebe000D96425E8B20DF0F5FA00E0022676B1012E05D107A20DA120460DF00FFC06E040
S3250800ec00022E04D10AA20FA120460DF007FCBDE8F0810000706172616D6574657273206E47
S3250800ec206F20737570706F727421000031000000696E7075742076616C7565206572726F83
S3250800ec40722100003200000070B5054633480DF027FB0446012C03D131A012F0E9F95CE09B
S3250800ec60022C03D138A012F0E3F956E0032C03D13FA012F0DDF950E0042C03D147A012F0C1
S3250800ec80D7F94AE0052C03D14FA012F0D1F944E0062C03D157A012F0CBF93EE0072C03D1A0
S3250800eca05FA012F0C5F938E0082C03D167A012F0BFF932E00B2C03D16FA012F0B9F92CE0BA
S3250800ecc00C2C03D176A012F0B3F926E00D2C03D17DA012F0ADF920E00E2C03D184A012F04A
S3250800ece0A7F91AE00F2C03D18BA012F0A1F914E0102C03D192A012F09BF90EE0112C03D1CB
S3250800ed0099A012F095F908E0122C03D1A0A012F08FF902E0A8A012F08BF970BD2012080041
S3250800ed207B2269506F727420506F736974696F6E223A202276616C7565223A20224C656635
S3250800ed4074227D0D0A0000007B2269506F727420506F736974696F6E223A202276616C7505
S3250800ed6065223A20225269676874227D0D0A00007B2269506F727420506F736974696F6EAE
S3250800ed80223A202276616C7565223A202243315F4C656674227D0D0A000000007B226950A2
S3250800eda06F727420506F736974696F6E223A202276616C7565223A202243315F52696768C5
S3250800edc074227D0D0A0000007B2269506F727420506F736974696F6E223A202276616C7585
S3250800ede065223A202243325F4C656674227D0D0A000000007B2269506F727420506F736987
S3250800ee0074696F6E223A202276616C7565223A202243325F5269676874227D0D0A00000049
S3250800ee207B2269506F727420506F736974696F6E223A202276616C7565223A202243335F76
S3250800ee404C656674227D0D0A000000007B2269506F727420506F736974696F6E223A2022A5
S3250800ee6076616C7565223A202243335F5269676874227D0D0A0000007B2269506F72742075
S3250800ee80506F736974696F6E223A202276616C7565223A2022506F7330227D0D0A0000009E
S3250800eea07B2269506F727420506F736974696F6E223A202276616C7565223A2022506F7399
S3250800eec031227D0D0A0000007B2269506F727420506F736974696F6E223A202276616C75C7
S3250800eee065223A2022506F7332227D0D0A0000007B2269506F727420506F736974696F6EC7
S3250800ef00223A202276616C7565223A2022506F7333227D0D0A0000007B2269506F727420A4
S3250800ef20506F736974696F6E223A202276616C7565223A2022506F7334227D0D0A000000F9
S3250800ef407B2269506F727420506F736974696F6E223A202276616C7565223A2022506F73F8
S3250800ef6035227D0D0A0000007B2269506F727420506F736974696F6E223A202276616C7522
S3250800ef8065223A2022506F7336227D0D0A0000007B2269506F727420506F736974696F6E22
S3250800efa0223A202276616C7565223A2022506F7337227D0D0A0000007B2269506F72742000
S3250800efc0506F736974696F6E223A202276616C7565223A20224E41227D0D0A0010B58CB02F
S3250800efe00446002206A9144808F090F900220BA9114808F065F99DF81A009DF819109DF884
S3250800f00018209DF82C30CDE90132CDE903109DF82E0000909DF82D309DF82F0000F5FA62AD
S3250800f02006A10E4812F014F80C4811F0A3FB11F0CBFC0CB010BD00009407002025642F25DB
S3250800f0403032642F253032642D25642D253032643A253032643A253032640A005010002020
S3250800f0602DE9F0418CB006460024D6F80C8096F82C703078012809D1032F24D13A469EA17A
S3250800f080404602F067FFF0B101241CE03078022811D1032F17D13A4698A1404602F05AFF6A
S3250800f0a008B102240FE03A4695A1404602F052FF48B1042407E093A297A130460DF0AEF966
S3250800f0c00CB0BDE8F0812CB98EA294A130460DF0A5F9F5E7012C7DD191480DF0E1F80546A4
S3250800f0e005F0010010B18F48059002E08D48001D059005F0020010B18A48069002E08948A3
S3250800f100001D069005F0040010B18648079002E08448001D079005F0200010B18148099075
S3250800f12002E08048001D099005F0400010B17D480A9002E07B48001D0A9005F0800010B17A
S3250800f14078480B9002E07748001D0B9005F0180098B97448001D0890DDE90823DDE90A104D
S3250800f160CDE90123CDE90310079800906E496F48DDE9052311F06CFF28E005F0180010289A
S3250800f18012D168480890DDE90823DDE90A10CDE90123CDE903100798009065496348DDE974
S3250800f1a0052311F055FF11E05E480890DDE90813DDE90A02CDE90113CDE90302079800902E
S3250800f1c05C495A48DDE9052311F042FF574811F0D1FA00E002E011F0F7FB71E7D6F81080D4
S3250800f1e02D20875D032F23D13A4653A1404602F0B1FE10B144F0100438E03A464FA14046F8
S3250800f20002F0A8FE10B144F020042FE03A464CA1404602F09FFE10B144F4807426E03A462B
S3250800f22048A1404602F096FE00B344F400741DE0042F11D13A4644A1404602F08BFE10B133
S3250800f24044F0400412E03A4641A1404602F082FE60B144F4806409E0022F07D13A463EA15E
S3250800f260404602F077FE08B144F08004102C05DA24A23AA130460DF0D1F821E7442C28D0BA
S3250800f2800CDC222C19D004DC122C13D0142C2FD119E0242C1AD0422C2AD111E0842C1BD0D8
S3250800f2a0B4F5827F1BD0B4F5017F1BD0A4F20440F0B91AE00CF00EF81AE00CF055F917E0DD
S3250800f2c00CF0F0FB14E00CF09BF811E00CF04AFA0EE00CF0ADFC0BE00CF0ACFA08E00CF081
S3250800f2e011FB05E00CF076FB02E00CF0D5F800BF00BF00BFE4E600006772700069746D005D
S3250800f3006C696D00706172616D65746572206572726F722100000000300000003100000010
S3250800f32010120800E5000020080C030850100020A80B0308480B030861646A00676E64006D
S3250800f340766F6800766F6C00766275730000000064647332000000005452000032000000FC
S3250800f3602DE9F04F8BB005460126002400200790089009900A9006900590049003908146BE
S3250800f3800290287803287AD104A805A9CDE9001006AB07AA60A16868FCF772FF9DF8180053
S3250800f3a06C2838D101200390DFF8789100BF14E004EB44005C4A02EBC001032205A802F010
S3250800f3c0C9FD40B15948005D182190FBF1F201FB1200C7B203E0601CC4B2142CE8DB00BFA5
S3250800f3e0002415E004EB44004F4A02EBC001032204A802F0AFFD48B14C48005D182190FB4F
S3250800f400F1F201FB120000F0FF0803E0601CC4B2142CE7DB39E000200390DFF814910024B3
S3250800f42014E004EB4400404A02EBC001032205A802F090FD40B13F48005D182190FBF1F292
S3250800f44001FB1200C7B203E0601CC4B2142CE8DB00BF002416E004EB4400334A02EBC00108
S3250800f460032204A802F076FD50B13248005D182190FBF1F201FB120000F0FF0804E031E0CF
S3250800f480601CC4B2142CE6DB00BF19F8081019F80700294A5368039A984728480CF000FF56
S3250800f4a000F0FF0A254810380CF0FAFE0190234810300CF0F5FE00F0FF0B5346012258461D
S3250800f4c0019903F081FA029000214FF47A70FDF75BFF029804AB05AA06A9009018A011F0F8
S3250800f4e0A7FD0026012E05D11AA220A128460CF095FF0EE0022E05D11DA224A128460CF0D2
S3250800f5008DFF06E0032E04D121A226A128460CF085FF0BB0BDE8F08F257320257320257306
S3250800f520202573001E5C0020705F002056220208365C00206A2202085006002060120800C2
S3250800f54025733A25732D25732C646473203D2025640A0000706172616D6574657273206E35
S3250800f5606F20737570706F727421000031000000696E7075742076616C7565206D6F72653F
S3250800f580207468656E2031303021000032000000696E7075742076616C7565206572726F45
S3250800f5a0722100003300000030B52DED048B89B0044633A0006808900020079006900390B3
S3250800f5c0049005909FED2F0AB0EE408A2078032852D106A807A9CDE9001008AB03AA2AA192
S3250800f5e06068FCF74DFE2B49086880479DF820006C2801D1012000E00020024625489DF8C6
S3250800f600181043689DF81C0098479DF820006C2801D1012000E0002002461E489DF81810D2
S3250800f62083689DF81C0098471A48C168012088471848016900208847B0EE408A1548C1681F
S3250800f640002088479FED140AC8EE000A10EE905A2846FDF725F941EC190B8DED009B9DF8E0
S3250800f66018309DF81C200DA1114811F0F1FC104811F080F811F0A8F909B0BDEC048B30BD1D
S3250800f6806C000000000000002573202573202564202564005006002000007A4425642C095C
S3250800f6a0256409523D092566206B4F686D0A00005010002070B58CB00446012500200890C5
S3250800f6c009900A900B90079006900590049000262078042828D104A805A906AACDE9002134
S3250800f6e0029007AB08AA1DA16068FCF7C9FD9DF81C006C2801D1012000E0002002469DF8B2
S3250800f70010309DF814109DF8180003F03BFC064616A011F02FF8304611F01AF81AA011F09D
S3250800f72029F811F051F90025012D05D118A21EA120460CF073FE0EE0022D05D11BA222A167
S3250800f74020460CF06BFE06E0032D04D11FA224A120460CF063FE0CB070BD000025732025D6
S3250800f7607320256420256420256400007B2244696F64652056647270223A202276616C7579
S3250800f78065223A2000000000206D567D0D0A0000706172616D6574657273206E6F207375CA
S3250800f7a070706F727421000031000000696E7075742076616C7565206D6F72652074686513
S3250800f7c06E2031303021000032000000696E7075742076616C7565206572726F72210000D1
S3250800f7e03300000070B504460125207800B900255DB909A010F0BEFF084810F0BBFF08A08F
S3250800f80010F0B8FF11F0E0F804E006A20BA120460CF004FE70BD00007B00000000000208FC
S3250800f8207D0D0A00706172616D6574657273206E6F20737570706F72742100003200000065
S3250800f84070B5044601262078012827D194F82C10E06809F029FA00B394F82C10E0680FF05D
S3250800f860D5FA0546B5F1006F15D31848854212D2002617A010F07EFFE06810F07BFF17A085
S3250800f88010F078FF11F0A0F8052012F04DF828460AF0A4F802E0032600E00226012E05D1C2
S3250800f8a010A216A120460CF0B9FD0EE0022E05D113A212A120460CF0B1FD06E0032E04D161
S3250800f8c015A20EA120460CF0A9FD70BD000002087B226A6D70223A2022000000227D0D0A3D
S3250800f8e000000000706172616D6574657273206E6F20737570706F72742100003200000039
S3250800f900706172616D657465727320696E707574206572726F7221006164647265737320E4
S3250800f9206D7573742067726561746572207468616E203078383030303030302100000000DA
S3250800f94070B5044601252078012815D194F82C10E0680FF05BFAC6B216B113490868804727
S3250800f96012A010F007FF304610F0F2FE15A010F001FF11F029F80025012D05D112A218A1EE
S3250800f98020460CF04BFD0EE0022D05D115A21CA120460CF043FD06E0032D04D119A21EA141
S3250800f9a020460CF03BFD70BD500600207B22416D757820496E6974223A202276616C756555
S3250800f9c0223A20007D0D0A00706172616D6574657273206E6F20737570706F72742100007A
S3250800f9e031000000696E7075742076616C7565206D6F7265207468656E20313030210000E7
S3250800fa0032000000696E7075742076616C7565206572726F722100003300000030B58BB07B
S3250800fa20044600250020089009900A90079006900590049001252078042825D104A805A9CE
S3250800fa4006AACDE90021029007AB08AA12A16068FCF716FCDDE90410CDE900019DF818302D
S3250800fa609DF81C201049114811F0F2FA00250F4810F080FE15B910F0A7FF0AE00CA212A14F
S3250800fa8020460CF0CBFC04E009A210A120460CF0C5FC0BB030BD000025732025642025643A
S3250800faa02025642025640000E80C030850100020706172616D6574657273206E6F2073752E
S3250800fac070706F727421000031000000320000001FB5044600200090019002900390207843
S3250800fae0A8B96A460DA16068FCF7CAFB0FF021FD0B49086880479FED0B0AFDF70FFF08481E
S3250800fb00C1680120884708A011F092FA04E00AA20EA120460CF082FC1FBD000025730000F6
S3250800fb205006002000006C42536574436170437572206F6B210A0000696E707574207661DD
S3250800fb406C7565206572726F722100003000000038B504462078012805D016A21AA1204610
S3250800fb600CF05CFC38BD94F82C10E06809F09CF828B910A215A120460CF050FCF2E794F835
S3250800fb802C10E0680FF042F90090114A0121684611F0ACF90E480CF083FB05462A460DA1FF
S3250800fba0124811F055FA114810F0E4FD10F00CFF00BFD7E7706172616D6574657220657213
S3250800fbc0726F7221000000003000000031000000401208007B22536574636865636B737539
S3250800fbe06D223A20222575227D0D0A0050100020F8B50446002500262078012801D1102611
S3250800fc0005E02078032801D1202600E0012505BB94F82C0003280DD1032275A1E06802F01A
S3250800fc2099F928B1202E03D1002546F0010614E0022512E094F82C0007280DD107226DA1BE
S3250800fc40E06802F087F928B1102E03D1002546F0020602E0022500E00225002D78D1122EC8
S3250800fc607DD0212E76D12D210A5D64A1206902F071F9F8B12E22115D606909F015F8B8B155
S3250800fc8000BF2E22115D60690FF0C0F800905E4A0121684611F02AF95C485DA14269624836
S3250800fca011F0D6F9604810F065FD10F08DFE55E0042553E02D210A5D5CA1206902F04AF9D0
S3250800fcc000B32E22115D606908F0EEFFC0B100252E22115D60690FF099F800904A4A1032E4
S3250800fce00121684611F002F9484851A142694E4811F0AEF94C4810F03DFD10F065FE2DE081
S3250800fd0004252BE02D210A5D4DA1206902F022F918B32E22115D606908F0C6FFD8B10025AB
S3250800fd202E22115D60690FF071F80090364A20320121684611F0DAF8344843A142693A4834
S3250800fd4011F086F9384810F015FD10F03DFE05E02CE004E029E0042500E0032525E02A48C2
S3250800fd600CF09EFA00903DA010F004FD009810F0EFFC3EA010F0FEFC234810300CF090FAE7
S3250800fd800090009810F0E4FC3BA010F0F3FC1E4820300CF085FA0090009810F0D9FC2DA088
S3250800fda010F0E8FC10F010FE00BF00BFF5B1012D05D135A23AA120460CF030FB16E0022DB7
S3250800fdc005D138A23BA120460CF028FB0EE0032D05D139A23CA120460CF020FB06E0042DC4
S3250800fde004D13AA23EA120460CF018FBF8BD00007365740072656164636667006672657175
S3250800fe0075656E637900000050120800501200207B226672657175656E6379223A20222592
S3250800fe2073227D0D0A00000050100020706761007B22706761223A20222573227D0D0A0012
S3250800fe4062756666000000007B2262756666223A20222573227D0D0A000000007B22667250
S3250800fe60657175656E6379223A202200222C2022706761223A202200222C20226275666643
S3250800fe80223A202200000000706172616D6574657273206E6F20737570706F727421000027
S3250800fea03100000064647320736574206572726F7221000032000000736574207479706591
S3250800fec0206572726F72210033000000696E7075742076616C7565206572726F722100009E
S3250800fee034000000F8B50446002500262078012801D1102605E02078032801D1202600E015
S3250800ff00012505BB94F82C0003280DD103228EA1E06802F01FF828B1202E03D1002546F031
S3250800ff20010614E0022512E094F82C0007280DD1072286A1E06802F00DF828B1102E03D160
S3250800ff40002546F0020602E0022500E00225002D78D1122E77D0212E76D12D210A5D7DA1BA
S3250800ff60206901F0F7FFF8B12E22115D606908F09BFEB8B100BF2E22115D60690EF046FF50
S3250800ff800090774A0121684610F0B0FF754876A142697B4811F05CF8794810F0EBFB10F045
S3250800ffa013FD7DE004257BE02D210A5D75A1206901F0D0FF00B32E22115D606908F074FE8A
S3250800ffc0C0B100252E22115D60690EF01FFF0090634A10320121684610F088FF61486AA150
S3250800ffe04269674811F034F8654810F0C3FB10F0EBFC55E0042553E02D210A5D66A1206944
S3250801000001F0A8FF18B32E22115D606908F04CFED8B100252E22115D60690EF0F7FE0090ED
S325080100204F4A20320121684610F060FF4D485CA14269534811F00CF8514810F09BFB10F08B
S32508010040C3FC2DE05FE02CE05CE0042528E02D210A5D58A1206901F07DFF00B32E22115DF8
S32508010060606908F021FEC0B100252E22115D60690EF0CCFE00903A4A30320121684610F066
S3250801008035FF38484EA142693D4810F0E1FF3C4810F070FB10F098FC02E0042500E0032508
S325080100a030E02F480CF0FCF800904BA010F062FB009810F04DFB4CA010F05CFB284810300F
S325080100c00CF0EEF80090009810F042FB49A010F051FB234820300CF0E3F80090009810F0DB
S325080100e037FB48A010F046FB1D4830300CF0D8F80090009810F02CFB2CA010F03BFB10F0B4
S3250801010063FC00BF00BFF5B1012D05D142A248A120460CF083F916E0022D05D145A249A1D2
S3250801012020460CF07BF90EE0032D05D146A24AA120460CF073F906E0042D04D147A24CA183
S3250801014020460CF06BF9F8BD7365740072656164636667006672657175656E63790000002B
S32508010160A0120800501200207B226672657175656E6379223A20222573227D0D0A000000D9
S3250801018050100020706761007B22706761223A20222573227D0D0A00627566660000000034
S325080101a07B2262756666223A20222573227D0D0A0000000073686F72746C696D0000000092
S325080101c07B2273686F72746C696D223A20222573227D0D0A000000007B22667265717565F0
S325080101e06E6379223A202200222C2022706761223A202200222C202262756666223A2022D1
S3250801020000000000222C202273686F72746C696D223A202200000000706172616D657465E0
S325080102207273206E6F20737570706F727421000031000000646473322073657420657272FC
S325080102406F722100320000007365742074797065206572726F72210033000000696E7075D3
S32508010260742076616C7565206572726F7221000034000000F0B587B005460024002628780E
S32508010280012801D1102600E00124002C30D10DF11B00411E821E06ABCDE90132CDE9031071
S325080102a0001F00900B1F05AA22A1E868FBF7E8FF07281CD105A808F033FDB0B100BF46F074
S325080102c001069DF81B009DF81A109DF81920CDE9002102909DF818309DF817209DF81610FE
S325080102e0BDF814000AF094FC02E0022400E002246CB9112E0AD115A11648EA6810F0A8FE43
S32508010300144810F037FA10F05FFB00BF00BF74B1012C05D110A216A128460CF07FF806E011
S32508010320022C04D113A218A128460CF077F807B0F0BD000025642F25642F25642D25642D24
S3250801034025643A25643A25640000000025730D0A0000000050100020706172616D65746501
S325080103607273206E6F20737570706F72742100003100000074696D6520666F726D61742085
S325080103806572726F722100003200000030B58DB0044601252EA000680C9000200B900A9018
S325080103a0099008900590069007902078052834D108A809A90AAA0BABCDE90032CDE90210F5
S325080103c00CAB05AA23A16068FBF75AFF9DF8200000909DF830006C2801D1012000E0002040
S325080103e002469DF824309DF828109DF82C000CF0B7FA9DF820009DF82410CDE900109DF8A9
S3250801040028309DF82C2018A11F4810F021FE1E4810F0B0F910F0D8FA0025012D05D11BA28E
S3250801042020A120460BF0FAFF10E0022D05D11EA224A120460BF0F2FF08E0032D05D122A214
S3250801044026A120460BF0EAFF00E000BF0DB030BD6C00000025732025732025642025642005
S32508010460256420256400000025642C092564095363616C653A20256409536E735365743A7D
S325080104802025640A0000000050100020706172616D6574657273206E6F20737570706F7220
S325080104a07421000031000000696E7075742076616C7565206D6F7265207468656E203130D7
S325080104c03021000032000000696E7075742076616C7565206572726F72210000330000007F
S325080104e070B5044601252078012814D194F82C10E0680EF08BFCC6B23046FCF7FDFF12A08E
S3250801050010F038F9304610F023F916A010F032F910F05AFA0025012D05D113A218A12046D7
S325080105200BF07CFF0EE0022D05D116A21CA120460BF074FF06E0032D04D11AA21EA120462E
S325080105400BF06CFF70BD00007B22416D757820456E61626C65223A202276616C7565223A43
S32508010560200000007D0D0A00706172616D6574657273206E6F20737570706F727421000029
S3250801058031000000696E7075742076616C7565206D6F7265207468656E203130302100003A
S325080105a032000000696E7075742076616C7565206572726F72210000330000002DE9FC419C
S325080105c005460127FA480BF06BFE0090002001902878022803D030208DF80400E0E1EE6825
S325080105e095F82C40032C6FD12246F2A1304601F0B1FC002830D02E692D20445D022C12D1B7
S325080106002246EDA1304601F0A5FC40B10027009840F001000090E9A010F0ACF8C0E132203C
S325080106208DF80400BCE1032C12D12246E9A1304601F090FC40B10027009820F0010000903D
S32508010640E5A010F097F8ABE132208DF80400A7E132208DF80400A3E12246E5A1304601F0D4
S3250801066079FC002831D02E692D20445D022C12D12246D1A1304601F06DFC40B100270098DD
S3250801068040F002000090DBA010F074F888E132208DF8040084E1032C12D12246CDA130469B
S325080106a001F058FC40B10027009820F002000090D4A010F05FF873E132208DF804006FE14A
S325080106c032208DF804006BE1B3E02246D2A1304601F040FC002838D02E692D20445D022CF0
S325080106e016D12246B4A1304601F034FC60B10027009820F008000090009840F010000090D0
S32508010700C6A010F037F84BE132208DF8040047E1032C16D12246AFA1304601F01BFC60B1A9
S325080107200027009820F008000090009820F010000090BEA010F01EF832E132208DF8040099
S325080107402EE132208DF804002AE12246BCA1304601F000FC80B32E692D20445D022C12D1A4
S32508010760224695A1304601F0F5FB40B10027009840F020000090B3A00FF0FCFF10E1322055
S325080107808DF804000CE1032C12D1224691A1304601F0E0FB40B10027009820F02000009076
S325080107a0ACA00FF0E7FFFBE032208DF80400F7E032208DF80400F3E0FFE72246AAA13046AF
S325080107c001F0C8FB80B32E692D20445D022C12D1224679A1304601F0BDFB40B1002700983C
S325080107e040F040000090A1A00FF0C4FFD8E032208DF80400D4E0032C12D1224675A130469A
S3250801080001F0A8FB40B10027009820F0400000909AA00FF0AFFFC3E032208DF80400BFE0A1
S3250801082032208DF80400BBE0FFE731208DF80400B6E0042C74D1042295A1304601F08AFB20
S3250801084080B32E692D20445D022C12D122465AA1304601F07FFB40B10027009840F0040098
S3250801086000908DA00FF086FF9AE032208DF8040096E0032C12D1224656A1304601F06AFB20
S3250801088040B10027009820F00400009087A00FF071FF85E032208DF8040081E032208DF8E7
S325080108a004007DE0FFE7042285A1304601F052FB80B32E692D20445D022C12D122463EA1D2
S325080108c0304601F047FB40B10027009840F0800000907DA00FF04EFF62E032208DF80400EA
S325080108e05EE0032C12D122463AA1304601F032FB40B10027009820F08000009077A00FF0DC
S3250801090039FF4DE032208DF8040049E032208DF8040045E000E003E031208DF804003FE0A3
S32508010920022C3DD1224672A1304601F013FB78B32E692D20445D022C16D122461EA130461A
S3250801094001F008FB60B10027009840F008000090009820F01000009066A00FF00BFF1FE0A6
S3250801096032208DF804001BE0032C16D1224619A1304601F0EFFA60B10027009820F0080022
S325080109800090009820F01000009028A00FF0F2FE06E032208DF8040002E032208DF804003B
S325080109a02FB158A201A928460BF038FDBBE0B3E01012080061646A006F6E00007B22616440
S325080109c06A6163656E74223A20226F6E227D0D0A000000006F6666007B2261646A61636532
S325080109e06E74223A20226F6666227D0D0A000000676E64007B22676E64223A20226F6E22CB
S32508010a007D0D0A007B22676E64223A20226F6666227D0D0A00000000646473007B2264642E
S32508010a2073223A20226F6E227D0D0A007B2254525F646473223A20226F6666227D0D0A0097
S32508010a40766F68007B22766F68223A20226F6E227D0D0A007B22766F68223A20226F66665C
S32508010a60227D0D0A00000000766F6C007B22766F6C223A20226F6E227D0D0A007B22766FBF
S32508010a806C223A20226F6666227D0D0A0000000076627573000000007B2276627573223AD3
S32508010aa020226F6E227D0D0A000000007B2276627573223A20226F6666227D0D0A00000066
S32508010ac064647332000000007B2264647332223A20226F6E227D0D0A000000007B226464FA
S32508010ae07332223A20226F6666227D0D0A000000545200007B225452223A20226F6E227DB0
S32508010b000D0A0000706172616D65746572206572726F722100000000044A0121684610F065
S32508010b20E5F90FF051FFBDE8FC810000101208002DE9F047054600242878032806D09BA293
S32508010b409FA128460BF06AFCBDE8F087D5F80C8095F82C60032E15D132469AA1404601F0A8
S32508010b60F9F918B10124DFF8609218E0324697A1404601F0EFF990B10224DFF84C9209F1A0
S32508010b8008090CE0042E0AD1324691A1404601F0E1F920B10424DFF8309209F110092CB9B7
S32508010ba082A28DA128460BF039FCCDE7D5F810802D20465D032E14D1324688A1404601F007
S32508010bc0C9F918B144F01004854F2CE0324685A1404601F0BFF930B344F02004804F08373D
S32508010be021E0042E1FD132467FA1404601F0B2F920B144F040047A4F103714E032467CA127
S32508010c00404601F0A7F920B144F08004744F183709E0324678A1404601F09CF918B144F48C
S32508010c2080746F4F4837102C05DA60A274A128460BF0F4FB88E7D5F814802E20465D04F035
S32508010c40010050B13146404607F081FF08BB57A26CA128460BF0E2FB76E704F0020050B1AC
S32508010c603146404607F0B3FF98B950A265A128460BF0D4FB68E704F0040050B131464046F9
S32508010c8008F00AF828B949A25EA128460BF0C6FB5AE7422C4ED010DC212C32D006DC112C2F
S32508010ca01DD0122C21D0142C74D124E0222C2ED0242C32D0412C6DD135E0842C52D006DC6E
S32508010cc0442C3DD0812C41D0822C63D144E0A4F2011070B3012851D003285BD154E0012202
S32508010ce03146404608F09AF854E001223146404608F0E4F84EE001223146404608F0A2FB53
S32508010d0048E003223146404608F088F842E003223146404608F0D2F83CE0032231464046BE
S32508010d2008F090FB36E002223146404608F076F830E01DE002223146404608F0BFF829E09E
S32508010d4002223146404608F07DFB23E004223146404608F063F81DE004223146404608F062
S32508010d60ADF817E004223146404608F06BFB11E00A223146404608F051F80BE00A2231465E
S32508010d80404608F09BF805E00A223146404608F059FB00BF00BF002008F8060043463A462C
S32508010da0494619A011F086F800BFCDE6706172616D65746572206572726F722100000000BF
S32508010dc03000000061646A0065000020676E640076627573000000003100000072657300AC
S32508010de095000020636170007664727000000000736B697000000000636170320000000022
S32508010e0032000000330000007B222573223A207B222573223A20222573227D7D0D0A00000F
S32508010e2070B504460126207802287ED194F82C0001287AD1012249A1E06801F08BF80028DF
S32508010e4022D02D22115D206907F02EFFD0B12D22115D20690DF0DAFF05460026642D0FD8A1
S32508010e60E8B23F4A516888473EA00FF083FC28460FF06EFC41A00FF07DFC0FF0A5FD54E057
S32508010e80022652E0032650E001223DA1E06801F061F810B32D22115D206907F005FFD0B178
S32508010ea02D22115D20690DF0B1FF05460026642D0FD8E8B22A4A9168884732A00FF05AFC4A
S32508010ec028460FF045FC2DA00FF054FC0FF07CFD2BE0022629E0032627E001222FA1E0681A
S32508010ee001F038F8F8B12D22115D206907F0DCFED0B12D22115D20690DF088FF0546002646
S32508010f00642D0FD8E8B2164AD168884724A00FF031FC28460FF01CFC18A00FF02BFC0FF0F6
S32508010f2053FD02E0022600E00326012E05D122A227A120460BF072FA0EE0022E05D125A226
S32508010f402BA120460BF06AFA06E0032E04D129A22DA120460BF062FA70BD00007200000010
S32508010f60380000207B226C6564223A202272222C202276616C7565223A2000007D0D0A006B
S32508010f80670000007B226C6564223A202267222C202276616C7565223A2000006200000079
S32508010fa07B226C6564223A202262222C202276616C7565223A200000706172616D657465D8
S32508010fc07273206E6F20737570706F727421000031000000696E7075742076616C75652004
S32508010fe06D6F7265207468656E2031303021000032000000696E7075742076616C756520CF
S325080110006572726F72210000330000002DE9FC5F054600242878052806D0D5A2D9A1284661
S325080110200BF0FCF9BDE8FC9FD5F80C9095F82C60032E15D13246D4A1484600F08BFF18B11A
S325080110400124DFF8488326E03246D1A1484600F081FF00B30224DFF8348308F108081AE062
S32508011060042E0BD13246CBA1484600F073FF90B10424DFF8188308F110080CE0022E0AD19C
S325080110803246C6A1484600F065FF20B10824DFF8FC8208F118082CB9B5A2C1A128460BF00E
S325080110a0BDF9BFE7D5F810902D20465D032E2AD13246BCA1484600F04DFF18B144F010048C
S325080110c0B94F4FE03246B9A1484600F043FF20B144F02004B44F083744E03246B4A148464E
S325080110e000F038FF20B144F48054AF4F303739E03246B0A1484600F02DFF30B344F400547D
S32508011100A94F38372EE0042E20D13246AAA1484600F020FF20B144F04004A34F103721E045
S325080111203246A7A1484600F015FF20B144F480449D4F403716E03246A3A1484600F00AFFE5
S3250801114018B144F40044984F48370BE0022E09D1324692A1484600F0FDFE18B144F080043B
S32508011160914F2037102C05DA81A299A128460BF055F957E7D5F814902E20465D3146484655
S3250801118007F092FD28B97AA292A128460BF046F948E7314648460DF039FE8346D5F818903C
S325080111a02F20465D3146484607F07EFD28B970A289A128460BF032F934E7314648460DF0E9
S325080111c025FE8246D5F81C903020465D04F0010058B13146484607F0BAFC00285CD164A29E
S325080111e07EA128460BF01AF91CE704F0020058B13146484607F0EBFC00284DD15CA277A104
S3250801120028460BF00BF90DE704F0040058B13146484607F041FD00283ED155A26FA1284677
S325080112200BF0FCF8FEE604F0080050B13146484607F01AFD78BB4EA268A128460BF0EEF841
S32508011240F0E604F4805050B13146484607F014FD08BB47A261A128460BF0E0F8E2E604F424
S32508011260005050B13146484607F00EFD98B940A25AA128460BF0D2F8D4E604F4004050B1B3
S325080112803146484607F09BFC28B939A253A128460BF0C4F8C6E6FFE74FF60F70044041F20A
S325080112a00201601A8C422FD008DC012C10D0022C15D0042C1AD0082C42D11EE0B0F5805FEE
S325080112c029D0B0F5405F2DD0B0F5E04F38D130E053465A463146484608F004F930E05346FC
S325080112e05A463146484608F0B3F929E053465A463146484608F018FB22E053465A46314692
S32508011300484608F0FFF91BE053465A463146484608F052FA14E053465A463146484608F099
S32508011320A7FA0DE053465A463146484608F034F906E053465A463146484608F089F900BF50
S3250801134000BF002009F806003B46424624A13148CDE900BA0FF07CFE2E480FF00BFA0FF0EF
S3250801136033FB49462CA010F0A5FD00BF5AE60000706172616D65746572206572726F722108
S32508011380000000003000000061646A0065000020676E6400766275730000000054520000BB
S325080113a031000000726573009500002063617000766F6800766F6C00766472700000000060
S325080113c064647332000000006361703200000000320000003300000034000000350000005D
S325080113e07B222573223A207B222573223A207B226F70656E206C696D6974223A2025642CBD
S32508011400202273686F7274206C696D6974223A2025642C005010002020222573227D7D7DE8
S325080114200D0A0000F0B589B005460027202101A8FAF712FF01272878012877D1EC6895F830
S325080114402C60032E60D1324662A1204600F082FD48B161A00FF08EF967A00FF08BF9032012
S32508011460009000279BE0324667A1204600F072FD48B159A00FF07EF964A00FF07BF90520E2
S32508011480009000278BE0324664A1204600F062FD48B151A00FF06EF961A00FF06BF907200E
S325080114a0009000277BE0324661A1204600F052FD48B149A00FF05EF95EA00FF05BF904203F
S325080114c0009000276BE032465EA1204600F042FD48B141A00FF04EF95BA00FF04BF906206B
S325080114e0009000275BE032465BA1204600F032FD002854D038A00FF03DF958A00FF03AF96F
S325080115000820009000274AE0012E48D1324657A1204600F01FFD50B12FA00FF02BF954A0A2
S325080115200FF028F900200090002738E04BE0324651A1204600F00EFD48B127A00FF01AF9C5
S325080115404EA00FF017F901200090002727E032464DA1204600F0FEFC48B11FA00FF00AF930
S325080115604AA00FF007F902200090002717E02078312814DB2078392811DC20782638009057
S32508011580002060702078421E43A101A80FF060FD11A00FF0EFF801A80FF0ECF800272FB141
S325080115a040A246A128460AF039FF11E0444A012168460FF09BFC0FF007FA052010F0B4F9FC
S325080115c001F04CFF04E037A23EA128460AF026FF09B0F0BD63316C007B2269506F72742066
S325080115e0506F736974696F6E223A202276616C7565223A20000000002243315F4C656674D0
S32508011600227D0D0A0000000063326C002243325F4C656674227D0D0A0000000063336C00CB
S325080116202243335F4C656674227D0D0A00000000633172002243315F5269676874227D0DBE
S325080116400A000000633272002243325F5269676874227D0D0A000000633372002243335FC1
S325080116605269676874227D0D0A00000030000000224E41227D0D0A006C000000224C65666B
S3250801168074227D0D0A00000072000000225269676874227D0D0A000022506F732563227D4E
S325080116a00D0A0000706172616D6574657273206E6F20737570706F72742100003100000044
S325080116c0201208003200000070B5044601252078022875D194F82C00042819D10422B6A1A7
S325080116e0E06800F037FC002812D02D210A5DB4A1206900F02FFC60B10025B5A00FF03AF8FC
S32508011700B8480FF037F8B8A00FF034F80FF05CF93AE12D210A5DB6A1206900F01BFC68B1E5
S325080117200025B6A00FF026F8AE4830300FF022F8ADA00FF01FF80FF047F925E12D210A5D36
S32508011740B3A1206900F006FC68B10025B3A00FF011F8A44860300FF00DF8A3A00FF00AF84E
S325080117600FF032F910E12D210A5DB1A1206900F0F1FB68B10025B1A00EF0FCFF99489030AA
S325080117800EF0F8FF98A00EF0F5FF0FF01DF9FBE02D210A5DAEA1206900F0DCFB70B1002591
S325080117a0B0A00EF0E7FF8F48C0300EF0E3FF8EA00EF0E0FF0FF008F9E6E001E00325E3E0A2
S325080117c020780328A4D194F82C000528A0D10522AAA1E06800F0BEFB002899D02E20005DCD
S325080117e0302806DD30212E2001550021606980F82F102D210A5D72A1206900F0ABFBF0B181
S3250801180000252E20025D77486169FAF70CFD00212E20005D734A11544FF480524FF40121FC
S3250801182070480FF09AF96AA00EF0A4FF6D480EF0A1FF6DA00EF09EFF0FF0C6F8A4E02D211A
S325080118400A5D6BA1206900F085FB08B300252E20025D644830306169FAF7E5FC00212E2069
S32508011860005D30305F4A11544FF480524FF401215C480FF072F961A00EF07CFF594830308B
S325080118800EF078FF58A00EF075FF0FF09DF87BE02D210A5D5EA1206900F05CFB08B3002507
S325080118a02E20025D4F4860306169FAF7BCFC00212E20005D60304B4A11544FF480524FF424
S325080118c0012148480FF049F954A00EF053FF454860300EF04FFF44A00EF04CFF0FF074F8C1
S325080118e052E02D210A5D52A1206900F033FB08B300252E20025D3B4890306169FAF793FC3E
S3250801190000212E20005D9030364A11544FF480524FF4012133480FF020F948A00EF02AFF2B
S32508011920304890300EF026FF2FA00EF023FF0FF04BF829E02D210A5D45A1206900F00AFBEA
S3250801194008B300252E20025D2648C0306169FAF76AFC00212E20005DC030224A11544FF49C
S3250801196080524FF401211F480FF0F7F83DA00EF001FF1C48C0300EF0FDFE1BA00EF0FAFEF3
S325080119800FF022F800E00325012D05D13DA243A120460AF043FD0EE0022D05D140A245A1F5
S325080119a020460AF03BFD06E0032D04D142A247A120460AF033FD70BD726561640000000070
S325080119c073657269616C5F6E756D6265720000007B2273657269616C5F6E756D6265722269
S325080119e03A202200E8B80020227D0D0A000000006D6C625F6E756D62657200007B226D6C4D
S32508011a00625F6E756D626572223A20220000000068775F76657273696F6E00007B2268770F
S32508011a205F76657273696F6E223A20220000000066775F76657273696F6E00007B226677D8
S32508011a405F76657273696F6E223A202200000000646174655F6D616E7566616374757265DC
S32508011a60640000007B22646174655F6D616E756661637475726564223A20220077726974F6
S32508011a8065000000706172616D6574657273206E6F20737570706F72742100003100000012
S32508011aa0696E7075742076616C7565206572726F7221000032000000696E707574206F66E8
S32508011ac066736574206572726F722100330000007CB5054643A00EF04DFE0EF075FF142059
S32508011ae00FF022FF01210846FBF718FD0446002C34D101200AF036F90120811E40F6C413AE
S32508011b0042A2CDE900104248018842A0FBF724FE01206421831E40A2CDE900103F48018804
S32508011b203CA0FBF719FE01210020FBF7F7FC0120811E40F6C41335A2CDE90010344801881B
S32508011b4037A0FBF709FE01206421831E32A2CDE900103248018832A0FBF7FEFD00210120C1
S32508011b60FBF7DCFC0446002C33D10AF0FBF80120811E40F6C41325A2CDE9001024480188D6
S32508011b8024A0FBF7E9FD01206421831E22A2CDE90010224801881FA0FBF7DEFD00210846DB
S32508011ba0FBF7BCFC0120811E40F6C41317A2CDE90010174801881AA0FBF7CEFD012064211B
S32508011bc0831E15A2CDE900101448018814A0FBF7C3FD14A00EF0CEFD0EF0F6FE14200FF0EB
S32508011be0A3FE7CBD7B2267726F7570223A20226D657373616765222C20226974656D223A14
S32508011c0020227374617274227D0D0A00766F68008406002061303500766F6C0086060020D5
S32508011c20623035007B2267726F7570223A20226D657373616765222C226974656D223A20E6
S32508011c4022656E64227D0D0A0000000010B504462078012837D194F82C0003280FD10322A6
S32508011c6019A1E06800F076F968B348F2A5001749096808604FF0006007F0B0FE23E094F8EE
S32508011c802C000A281FD10A2211A1E06800F062F9C8B10220114908700AF014FB00231A467D
S32508011ca041F28831480009F0EBF800200C4908800C48007838B901200A4908700A49087094
S32508011cc000200A49088010BD6D637500A0060020626F6F746C6F616465720000A60600202B
S32508011ce0A40600202C000020280000202A00002010B504460BA00EF03DFD0EF065FE1420A6
S32508011d000FF012FE01200EF071FE00200EF06EFE0EA00EF02FFD0EF057FE14200FF004FE2D
S32508011d2010BD00007B2267726F7570223A20226D657373616765222C20226974656D223ADF
S32508011d4020227374617274227D0D0A007B2267726F7570223A20226D657373616765222CB3
S32508011d60226974656D223A2022656E64227D0D0A00000000F8B5044601262078022835D112
S32508011d8094F82C00042879D1042248A1E06800F0E1F8002872D02D22115D206906F084FFBD
S32508011da0002821D02D22115D20690DF02FF80546002640F6FC718D4260D805F501200AF061
S32508011dc06FFA00903BA00EF0D5FC28460EF0C0FC3FA00EF0CFFC00980EF0BAFC3FA00EF058
S32508011de0C9FC0EF0F1FD49E0032647E02078032844D194F82C00052840D1052238A1E06894
S32508011e0000F0A8F8002839D02D22115D206906F04BFF002831D02D22115D20690CF0F6FF0C
S32508011e200546002640F6FC718D4227D82E22115D606906F039FFF0B12E22115D60690CF0D8
S32508011e40E5FF009005F50122012168460FF04EF800BF25A00EF08EFC28460EF079FC1CA024
S32508011e600EF088FC00980EF073FC1CA00EF082FC0EF0AAFD02E0022600E00326012E05D1D7
S32508011e8021A227A120460AF0C9FA0EE0022E05D124A229A120460AF0C1FA06E0032E04D1FA
S32508011ea026A22BA120460AF0B9FAF8BD72656164000000007B22656570726F6D223A202258
S32508011ec072656164222C226F6666736574222C002C202276616C7565223A20007D0D0A0077
S32508011ee077726974650000007B22656570726F6D223A20227772697465222C226F6666739C
S32508011f006574222C00000000706172616D6574657273206E6F20737570706F7274210000FC
S32508011f2031000000696E7075742076616C7565206572726F7221000032000000696E70759B
S32508011f4074206F6666736574206572726F7221003300000030B503460C46002107E0585C7D
S32508011f60655CA84201D0002030BD481CC1B29142F5DB0120F8E7000010B56249624803F042
S32508011f8023F9002412E05F48007A6049095D88420AD15E4B1A5D5B4B59685D4B03EB0410FA
S32508011fa0FFF7D8FF00B103E0601CC4B2222CEADB00BF222C72D2DFE804F01115191D2125FE
S32508011fc0292D3135393D4145494D5155595D6165696D72767A7E82868A8E92964948FCF700
S32508011fe073F885E04748FDF7FDFB81E04548FEF717FF7DE04348FFF7BDFE79E04148FDF71F
S325080120001FFC75E03F48FFF721FE71E03D48FDF7CBFA6DE03B48FEF7B9F969E03948FEF7E0
S325080120205FFA65E03748FDF78BFC61E03548FDF741FB5DE03348FEF7C1FA59E03148FEF7FC
S3250801204077FD55E02F48FEF7E1FF51E02D48FDF707F84DE02B48FDF77BFD49E02948FCF74A
S325080120607DFB45E02748FFF7DDF941E02548FDF7D5FC3DE02348FFF727FB39E02148FDF710
S32508012080B7FD35E01F48FEF7F5F831E01D48FCF7A5FF2DE01B48FCF787FD29E027E01948BA
S325080120a0FBF7FEFF24E01748FFF712FD20E01548FCF7C6F81CE01348FDF714FF18E01148FD
S325080120c0FCF782FB14E00F48FFF712FE10E00D48FCF712FA0CE00B48FDF742F908E0094845
S325080120e0FDF7F6FC04E00748FCF7AEFD00BF00BF00BF222C04D107A20CA102480AF08EF999
S3250801210010BD000050120020C80B00203422020814200208636F6D6D616E64206E6F742060
S32508012120737570706F727465642100003100000070B504460D4610200C4908602020086001
S32508012140402008608020086001200860022008604CF2503002F000FE2946204602F032FDE9
S325080121604CF2503002F0F8FD70BD00000C3C024030B503460C46002000221BE00001995C41
S32508012180302905DB392903DCA1F13005E9B20EE0412905DB462903DCA1F13705E9B206E07F
S325080121a0612904DB662902DCA1F15705E9B20843551CEAB2A242E1DB30BD2DE9F047054634
S325080121c00F461646B9464FEA960806F0030008B108F10108002409E059F824C062460023A8
S325080121e02946022004F030F82D1D641C4445F3D3BDE8F087F8B50722A549A648FFF7AAFE9E
S32508012200E0B9A548416832208847A348816800208847A148C168002088474FF434759F4EC2
S32508012220002403E0305D9E490855641CAC42F9D3AAB24FF402219A480EF08FFC4FF4347267
S3250801224097499848F9F7EFFF072297499748FFF781FEF0B990484168002088478E4881689C
S32508012260322088478C48C168002088474FF4F0758F4E002405E0315D04F58050884A115426
S32508012280641CAC42F7D3AAB24FF4032189480EF064FC4FF4F07287498748F9F7C4FF0722E5
S325080122a086498748FFF756FEF0B97B4841680020884779488168002088477748C168322050
S325080122c088474FF4F0757F4E002405E0315D04F50050734A1154641CAC42F7D3AAB24FF4D2
S325080122e0042179480EF039FC4FF4F07276497748F9F799FF072276497648FFF72BFE00BB8B
S32508012300654841680020884763488168002088476148C16832208847C0256D4EA83E002449
S3250801232005E0315D04F540505D4A1154641CAC42F7D34FF480524FF405216648A8380EF044
S325080123400CFCC0226349A8396348F9F76CFF072262496348FFF7FEFD00BB4F484168002066
S3250801236088474D488168002088474B48C168322088473025594E183E002405E0315D04F553
S325080123806050474A1154641CAC42F7D34FF480524FF405214F48A8380EF0DFFB3022504998
S325080123a018395048F9F73FFF07224F494F48FFF7D1FD00BB384841680020884736488168A1
S325080123c0002088473448C168322088473025464E183E002405E0315D04F56850304A1154D3
S325080123e0641CAC42F7D34FF480524FF405213948A8380EF0B2FB30223C4918393C48F9F770
S3250801240012FF07223B493C48FFF7A4FDF8B9224841680020884720488168002088471E487B
S32508012420C168322088471825324E002405E0315D04F570501A4A1154641CAC42F7D34FF4F2
S3250801244080524FF405212348A8380EF086FB182229492A48F9F7E7FE0F4841680020884786
S325080124600D488168002088470B48C16800208847234809F015FF0090009800F47F0030B9B9
S32508012480204800901E4A012168460EF02FFDF8BD9C040308A07B002038000020E4010308F0
S325080124a0E8780020A05C00207C060308B08A0020B4040308E8880020705F00205C080308D9
S325080124c0B09A002094060308E8980020506100201C09030890A90020306300204C090308D1
S325080124e000B10020F06300207C09030800B300202064002094090308E8B40020506400204A
S3250801250010120800EF00FF002DE9F74F82B0804600200190002405E018F8040000B903E0D6
S32508012520601CC4B2FF2CF7DB00BFFF2C03D1002005B0BDE8F08F019408200FF0F5FB0546EF
