S3250800c00028F10020A1C1000819BB0108A58E0108EDBA010819D500089518020800000000F9
S3250800c0200000000000000000000000007DD60108493601080000000069C9010867FE010865
S3250800c040BBC10008BBC10008BBC10008BBC10008BBC10008BBC10008BBC10008BBC10008B2
S3250800c060BBC10008714E0108BBC10008BBC10008BBC10008BBC10008BBC10008BBC100084E
S3250800c080BBC10008BBC10008BBC10008BBC10008BBC10008BBC10008BBC10008BBC1000872
S3250800c0a0BBC10008BBC10008BBC10008BBC10008BBC1000899000208BBC10008BBC1000833
S3250800c0c0BBC10008BBC10008BBC10008BBC10008BBC1000821150208BBC10008BBC1000876
S3250800c0e0BBC10008BBC10008BBC10008CDFF0108BBC10008BBC10008BBC10008BBC10008C1
S3250800c100BBC10008BBC10008BBC10008BBC10008BBC10008BBC10008BBC10008BBC10008F1
S3250800c120BBC10008BBC10008BBC10008BBC10008BBC10008BBC10008BBC10008BBC10008D1
S3250800c140BBC10008BBC10008BBC10008BBC10008BBC10008BBC10008BBC10008BBC10008B1
S3250800c160BBC10008BBC10008BBC10008BBC10008BBC10008BBC10008BBC100080000000015
S3250800c180BBC10008BBC10008DFF810D000F0B2FC00480047E12A0208AFF3008028F1002035
S3250800c1a00648804706480047FEE7FEE7FEE7FEE7FEE7FEE7FEE7FEE7FEE7FEE73500020896
S3250800c1c089C100082DE9F05F0546002092469B4688460646814640241BE0284641464746B4
S3250800c1e0224600F095FB53465A46C01A914110D311461846224600F07CFB2D1A67EB01085B
S3250800c2004F4622460120002100F073FB17EB00094E41201EA4F10104DFDC484631462A46D1
S3250800c2204346BDE8F09F40EA01039B0703D009E008C9121F08C0042AFAD203E011F8013BBB
S3250800c24000F8013B521EF9D27047D2B201E000F8012B491EFBD270470022F6E710B5134619
S3250800c2600A4604461946FFF7F0FF204610BD034611F8012B00F8012B002AF9D118467047F4
S3250800c2800FB400B58DB010A909900B9000914FF0FF300A9000200C900548069005480790D2
S3250800c2a06A4609A80F9900F069FB0DB05DF814FB99C90008B7C900082DE9FF5F1D464FF0EA
S3250800c2c0FF3BD5E9014691465F464FF00008A9697F1C01988847296A824688470028F6D120
S3250800c2e0BAF1FF3F0CD024F4C064002E19DD600614D5BAF12B0F09D0BAF12D0F0ED103E055
S3250800c300584604B0BDE8F09F44F48064A9697F1C01988847761E8246002E02DDBAF1300F05
S3250800c32003D0B9F1000F26D032E0A969761E44F400747F1C019888478246002E05DDBAF183
S3250800c340780F06D0BAF1580F03D0B9F1000F10D01EE0B9F1000F02D0B9F1100F18D1A969A7
S3250800c360761E24F400747F1C019888478246102002E0082000E00A20814609E008FB0908BC
S3250800c380A969761E44F400747F1C019888478246002E05DD4946504600F0DCFA0028EDDA88
S3250800c3a0E96901988847A00502D46FF00100A8E7E00725D1600613D5600502D5C8F100002B
S3250800c3c000E0404629680A1D2A600968220501D5087015E0220701D5088011E008600FE0FD
S3250800c3e02868011D29600068210502D580F8008006E0210702D5A0F8008001E0C0F8008085
S3250800c40038467EE72DE9FF5FD2E901A74FF00008916999461446DDF838B046460198884729
S3250800c420054659EA0B0005D009E0A169761C019888470546216A284688470028F5D1681C0E
S3250800c44003D05FEACA7005D015E04FF0FF3004B0BDE8F09F2068011D2160D0F800800AE0FF
S3250800c4605FEACA7001D108F8015BA169761C7F1E019888470546002F1ADD681C18D0B9F1D5
S3250800c480000F0DD0E81705EBD060421120F01F0059F822102A1A012090400142E0D107E06E
S3250800c4a0BBF1000FDCD1216A284688470028D7D0E16901988847BBF1000F07D1002E05DD1A
S3250800c4c05FEACA7002D1002188F80010A068B84203DDBBF1000F03D017B16FF00100B6E712
S3250800c4e03046B4E72DE9FE4F804681EA0300C00F0C46009021F0004123F00045B8EB020086
S3250800c500A94105D24046214690461C460B46024623F00040104347D0270DC7F30A00C3F323
S3250800c5200A510290401A019040286BDAC3F3130040F4801B0098924620B10023D2EB030AA2
S3250800c54063EB0B0B01985946C0F14002504600F0D0F906460D4650465946019A00F0E8F9AF
S3250800c56010EB08006141002487EA115284EAE7731A4340D0009A62B3019A012A4FEA0752D4
S3250800c58015DC001B61EB02014FF0004202EA0752CDE90042001C41F5801132462B4600F0B8
S3250800c5a02AFA03B0BDE8F08F40462146F9E7001B61EB0201001C41F5801300185B4120186A
S3250800c5c0A2F5001747EB030140EAD570B6196D4111E06D084FEA360645EAC0754FEA0752AC
S3250800c5e0001B61EB0201001C41F5801149084FEA30000019514132462B4603B0BDE8F04FFB
S3250800c60000F0EAB90098012240000023D0EB020263EBE073009821464FEAE074B8EB0000CC
S3250800c62061EB0401E9E783F000435BE781F0004158E72DE9FE4F81EA030404F0004421F0C4
S3250800c640004100944FF0000B23F0004350EA01045ED052EA03045BD0C3F30A54C1F30A5555
S3250800c6602C44A4F2F3340194A0FB0254C1F3130141F48011C3F3130343F4801301FB024493
S3250800c68000FB034E840A970A44EA815447EA8357A4FB076802958D0A05FB07854FEA932C43
S3250800c6a004FB0C542705029D4FEA065847EA1637B5EB08056EEB070C870E920E47EA811716
S3250800c6c042EA8312A7FB0201B6EB0B0164EB00042B0D43EA0C335E1844EB1C50DA4651467A
S3250800c6e0E7FB0201C5F313044FEA0B3343EA14534FEA0432019C43EA0603A4F10C040294F0
S3250800c700009CCDE900B400F076F903B0BDE8F08F00200146F9E72DE9F04D81EA030404F0CF
S3250800c720004B21F0004514464FF0000A23F0004150EA050220D054EA01021DD0C5F30A57DB
S3250800c7400246C5F31303C1F31300C1F30A5640F4801543F48013A7EB0608101BD64608F266
S3250800c760FD3873EB050002D308F1010801E092185B41B8F1000F03DA00200146BDE8F08DF7
S3250800c78000204FF48011064684460EE0171B73EB050705D3121B63EB050306434CEA010C10
S3250800c7a049084FEA300092185B4150EA0107EDD152EA030012D082EA040083EA050108431C
S3250800c7c005D0101BAB4106D20122002306E000224FF0004302E06FF0010253101AEB060005
S3250800c7e04CEB085110EB0A0041EB0B01BDE8F04D00F0F2B80EB5C10F80EAE0700844CA0778
S3250800c800002140F233438DE80E000A460B4600F0F2F803B000BD0EB540F2334102910021B6
S3250800c820CDE900110A460B4600F0E5F803B000BD70B5C1F30A5201F000450024C1F31301EE
S3250800c84040F2FF3341F480119A4201DA002070BD40F233439A42A2F2334203DC524200F0AC
S3250800c86057F800E090402C43F1D0404270BDC1F30A5210B5C1F3130140F2FF3341F4801105
S3250800c8809A4201DA002010BD40F233439A42A2F2334203DC524200F03BF810BD904010BD59
S3250800c8a000F0004230F000400AD0C10D01F56071C0F3160042EA0151C20840071143704706
S3250800c8c000200146704730B50B46014600202022012409E021FA02F59D4205D303FA02F582
S3250800c8e0491B04FA02F52844151EA2F10102F1DC30BD202A04DB203A00FA02F1002070479B
S3250800c9009140C2F1200320FA03F3194390407047202A04DB203A21FA02F00021704721FAEC
S3250800c92002F3D040C2F120029140084319467047202A06DBCB17203A41FA02F043EAE073C9
S3250800c94006E041FA02F3D040C2F1200291400843194670473A2800D2303820F02002412A63
S3250800c96001D3A2F13700884201D34FF0FF307047026811441378016018467047D16004490A
S3250800c98051610449116200211161114600F0CAB871C9000819CB0008426842B1016811F87E
S3250800c9a0013B23B1521EC0E90012184670470121C160881E704742685AB1C368016843B934
S3250800c9c083688B4205D0491E521CC0E90012002070474FF0FF30704710B5141E73F10004D1
S3250800c9e008DA401C41F1000192185B411A4301D120F0010010BD2DE9F04D92469B4611B197
S3250800ca00B1FA81F202E0B0FA80F220329046FFF770FF04460F4640EA0A0041EA0B015346BC
S3250800ca205A46084313D0114653EA010019D0C8F140025046FFF76CFF05460E4650465946D6
S3250800ca404246FFF756FF084305D0012004E020463946BDE8F08D0020054346EAE0762C436C
S3250800ca6037430A986305E40AA0EB08000022FD0A44EA47540A3002D500200146E9E7010563
S3250800ca8010196941DDE9084500196941BDE8F04DA2E7C1F30A52C1F3130140F2FF3341F403
S3250800caa080119A4202DA00200146704740F233439A42A2F2334202DC5242FFF729BFFFF72E
S3250800cac018BF000030B5041E71F1000404DB4FF00044404264EB0101141E73F1000405DB55
S3250800cae01C464FF00043524263EB0403994208BF904230BD064C074D06E0E06840F00103F2
S3250800cb0094E8070098471034AC42F6D3FFF740FB944C0308B44C0308C0B24FF4F05100F09D
S3250800cb2099B900002DE9F34F8BB04FF0000801F10C000C464FF0010B46460DF1080A0190F3
S3250800cb406269012101989047051E2DD0252D2CD0216A8847C0B16269012101989047216A49
S3250800cb6088470028F7D1411E62690198904700E0761CA1690B988847216A88470028F7D116
S3250800cb80E1690B988847DBE7A1690B9888470746A84201D1761CD3E7E1690B9888477F1CE1
S3250800cba002D1B8F1000F6FD047E1002762693D463946019890472A2804D162690121019864
S3250800cbc090470125DFF888926269012101989047A0F130010A290AD24F45E5DC07EB87015C
S3250800cbe000EB4107303FDFD445F01005ECE7E90601D46FF000476C280AD04C2814D06828F5
S3250800cc0015D06A280DD074281CD07A281AD01DE062690121019890476C2802D045F00405A0
S3250800cc2014E045F002050DE045F020050AE06269012101989047682802D045F0080505E09F
S3250800cc4045F400656269012101989047C4E9015765283DD019DC58287AD00CDC452837D011
S3250800cc6004DC252826D0412831D131E046282FD047282CD12CE05B2877D0612828D063284C
S3250800cc807CD0642823D15AE0D1E06F2848D008DC66281DD067281BD0692821D06E2816D148
S3250800cca027E0702845D0732868D0752847D078280DD14DE0A1690B988847054625283FF439
S3250800ccc069AFE1690B9888476D1C3FF46AAFB4E023466A466FF001000B99AFF300809FE04B
S3250800cce045F040006060A80723464FF0000236D43EE0E8077FF447AF2068011D2160006889
S3250800cd00290501D506701BE7290701D5068017E7A90703D5F117C0E9006111E706600FE711
S3250800cd2045F040006060A80723464FF0080216D41EE040F60E0125EA0100606016E045F027
S3250800cd4040006060A80723464FF00A0207D40FE045F040006060A80708D5234610226FF0DD
S3250800cd6001000B99AFF300805AE007E0234610226FF001000B99FFF79FFA51E04FF0000916
S3250800cd804F464B46632802D05B2807D041E02079C00601D40120A06001273AE06269012103
S3250800cda0019890475E2805D14FF001096269494601989047216939B900210A46534643F8C5
S3250800cdc02120491C0829FADBB0B3216969B9C11700EBD16253110AEB830122F01F02821AE8
S3250800cde001200B68904003430B6062690121019890475D28E8D1B9F1000F09D0002051462C
S3250800ce0051F82020D24341F82020401C0828F7DB02AB224600976FF001000B99FFF7F2FAFD
S3250800ce2000280CDA401C08D1BBF1000F05D04FF0FF300DB0BDE8F08FFFE74046F9E7E90786
S3250800ce4001D108F1010806444FF0000B78E60000CCCCCC0C7F2801D9002208E0064A02EBC6
S3250800ce605002C007127800D1120902F00F02012090400840704700004849030870B58C18BD
S3250800ce8010F8015B15F0070301D110F8013B2A1106D110F8012B03E010F8016B01F8016BF9
S3250800cea05B1EF9D12B0705D40023521E0DD401F8013BFAE710F8013BCB1A921C03E013F8C7
S3250800cec0015B01F8015B521EF9D5A142D8D3002070BD01460888B0F5004F07DB0888401EDF
S3250800cee04FF6FF72101A0880012070470020FCE754494A6822F440324A604A6843681A43A6
S3250800cf004A600268526822F4807203685A6002685368026943EA022203685A6002685268DE
S3250800cf2022F0407203685A600268526883681A4303685A600268926822F4006203689A6028
S3250800cf4002689268C3681A4303689A603E4B826A9A4218D00268926822F0706203689A608C
S3250800cf6002689268836A1A4303689A600268926822F0405203689A6002689268C36A1A4335
S3250800cf8003689A600BE00268926822F0706203689A600268926822F0405203689A600268AF
S3250800cfa0926822F0020203689A6002689368826943EA420203689A60026AA2B102685268E5
S3250800cfc042F4006203685A600268526822F4604203685A6002685368426A521E43EA4232A3
S3250800cfe003685A6005E00268526822F4006203685A600268D26A22F470020368DA62026819
S3250800d000D36A828B521E43EA02520368DA620268926822F4007203689A6002689368026BFD
S3250800d02043EA422203689A600268926822F4806203689A6002689368426943EA82220368DF
S3250800d0409A607047002301400100000F2DE9FE4F05460E46174699460024072E02DD002007
S3250800d060BDE8FE8F802000EB061000F0FF0A8DF808A0E3208DF809000220009002AB012296
S3250800d08049461046D5F808C0E0478046B8F1000F01D10020E4E7082015F028FC4B4800784A
S3250800d0a0012821D100241CE0022015F01FFC00208DF808008DF809000220009002AB002229
S3250800d0c049460120D5F804C0E04780469DF809009DF8081040EA01203D4921F81400601C4F
S3250800d0e084B2642CE0DB6FE03848007802282DD1002426E0022015F0F9FB00208DF8080040
S3250800d1008DF809000220009002AB002249460120D5F804C0E04780469DF809009DF8081079
S3250800d12040EA0120019001A8FFF7D3FE0CB9BDF804B0BDF80400584501DDBDF804B0601C4E
S3250800d14084B20A2CD6DBA7F800B03DE01F480078032823D100241CE0022015F0C7FB002011
S3250800d1608DF808008DF809000220009002AB002249460120D5F804C0E04780469DF8090039
S3250800d1809DF8081040EA0120124921F81400601C84B2114800888442DEDB15E000208DF855
S3250800d1a008008DF809000220009002AB002249460120D5F804C0E04780469DF809009DF8E9
S3250800d1c0081040EA01203880404649E704010020A812002070130020060100202DE9FE4F44
S3250800d1e004460D46174698464FF0000A00200190072D01DDBDE8FE8F802000EB051000F07B
S3250800d200FF098DF80890E3208DF809000220009002AB012241461046D4F808C0E0470646E4
S3250800d2200EB90020E6E74FF0000A1EE0032015F05DFB00208DF808008DF809000220009078
S3250800d24002AB002241460120D4F804C0E04706469DF809009DF8081040EA012B0198584470
S3250800d26001900AF1010000F0FF0ABAF1100FDDDB0198C0F30F1038803046BBE72DE9FC4704
S3250800d28004460D4617469846072D02DD0020BDE8FC87802000EB051000F0FF098DF804909C
S3250800d2a0E3208DF805000220009001AB012241461046D4F808C0E04706460EB90020E6E7BA
S3250800d2c0052015F013FB0220009001AB002241460120D4F804C0E04706469DF805009DF8AE
S3250800d2e0041040EA012038803046D0E710B500224FF40041224809F0FDFE00224FF48041ED
S3250800d3001F4809F0F7FE00224FF480511C4809F0F1FE15F0E5FA01221103194809F0EAFECB
S3250800d32015F0DEFA00224FF48051154809F0E2FE00224FF40041124809F0DCFE0122D103CC
S3250800d3400F4809F0D7FE00224FF400410C4809F0D1FE00224FF48041094809F0CBFE01227C
S3250800d3609103074809F0C6FE00224FF48041044809F0C0FE00220821024809F0BBFE10BDC2
S3250800d380000402400000024070B52DED048B04460E469FED420BB0EE408AF0EE608A9FEDF6
S3250800d3a0410B53EC102B51EC180BFFF7B4F941EC180B2046FFF72FFA41EC190B53EC182BEE
S3250800d3c0FFF737F941EC180B51EC180BFFF74FFA0446002522E004F0010028B10122510374
S3250800d3e0324809F087FE05E000224FF400512F4809F080FE640800BF00BF0122D1032B484A
S3250800d40009F078FE15F06CFA00224FF40041274809F070FE15F064FA681CC5B2202DDADB48
S3250800d4200EB1002400E00424002522E004F0010028B1012251031D4809F05CFE05E00022C8
S3250800d4404FF40051194809F055FE640800BF00BF0122D103154809F04DFE15F041FA002299
S3250800d4604FF40041114809F045FE15F039FA681CC5B2082DDADB012291030C4809F03AFE2C
S3250800d48015F02EFA00224FF48041084809F032FE15F026FABDEC048B70BD00000000001018
S3250800d4a01111A1410000000080842E410004024010B500224FF44071044809F01BFE002246
S3250800d4c00421034809F016FE10BD0000000402400008024010B501224FF44071044809F043
S3250800d4e009FE01220421034809F004FE10BD0000000402400008024010B5044624B10548FB
S3250800d500C1680120884703E00248C1680020884710BD00005806002000BFFEE72DE9F04F5B
S3250800d5202DED028B83B082460F46002405E000207C4921F81400601C84B2642CF7DB002196
S3250800d54038460BF04BFE30B9012F01D1764D08E03FB9764D05E0012003B0BDEC028BBDE816
S3250800d560F08F0220029000264EE006EB46007049085C182190FBF1F201FB120000F0FF0816
S3250800d58006EB46006A4908444078182190FBF1F201FB120000F0FF0966490868804715F8EF
S3250800d5a0091015F80800634A53683A46984715F8091015F808005F4A93683A4698475D4885
S3250800d5c0C1680120884700200FF0F4FCB0EE408A5848C1680020884756490868804706EB2E
S3250800d5e04600534908448078534951F820B000EE10BAB8EE400AB4EEC08AF1EE10FA01DBE9
S3250800d6000220A9E7701C86B202988642ADDB0AEB4A004A49085C182190FBF1F201FB1200B1
S3250800d62000F0FF080AEB4A00444908444078182190FBF1F201FB120000F0FF093D49086872
S3250800d640804715F8091015F808003A4A53683A46984715F8091015F80800364A93683A46E6
S3250800d660984700224FF48071354809F043FD01225102334809F03EFD01220421314809F0D2
S3250800d68039FD012030490870902301AA03212F48FFF7DCFC002436E0224901EB4400FFF7A2
S3250800d6a018FC204931F8141001EB4101C802C11700EB5141C9131B4A22F814104CB910466B
S3250800d6c030F8140022490880104630F8140021490880144830F814001D490988884204DD4F
S3250800d6e0104830F814001A4908800E4830F8140018490988884204DA0A4830F81400154985
S3250800d7000880601C84B2642CC6DB00200E4908700848C16800208847064908688047002093
S3250800d7201AE70000A8120020865C00209E5C0020F847030858060020D0470308FE470308AA
S3250800d740000402400008024004010020FC0500208C0600208E0600202DE9F04387B0804639
S3250800d7600C4691461D46DDE90E76681CD0B9BC420CDA2EB126A228A1284814F043FC11E0C0
S3250800d78027A225A1254814F03DFC0BE02EB126A221A1224814F036FC04E025A21EA11F487D
S3250800d7a014F030FC781CD0B9AC420CDD2EB118A219A11A4814F026FC11E01FA216A1174894
S3250800d7c014F020FC0BE02EB117A213A1134814F019FC04E016A210A1104814F013FC0F4861
S3250800d7e017A3184A1849CDE90295CDE90084CDE90470164814F006FC144813F055FF14F0D2
S3250800d8007FF81E2015F072F807B0BDE8F0830000706173730000000025730000FD0000209B
S3250800d82053686F72740000006661696C0000000050617373000000004F70656E0000000005
S3250800d840676E6400F5000020DC4A03088C5B00200146174890ED002AB8EE422AF2EE042AC7
S3250800d86022EE222A62EE012A82EEA12ADFED112A82EE223A81ED003AD1ED002A9FED0E3A51
S3250800d8809FED0E2A12EE832A81ED002A91ED002AB5EEC02AF1EE10FA03DD0020044A106095
S3250800d8a070479FED072A81ED002A0120F8E700000801002000007A4448E17A3FEC51024204
S3250800d8c00000000000B587B000BF002001901048006840F002000E4908600846006800F087
S3250800d8e00200019000BF00BF08200290094803900120049002A9084809F0F4FA002211465B
S3250800d900092009F0B4FC092009F096FC07B000BD30380240000031100004024010B52DEDEF
S3250800d920028BB0EE408A0FF015F800224FF40051124809F0DFFB9FED120AB4EE408AF1EE02
S3250800d94010FA03D104200EF0C7F814E09FED0D0AB4EE408AF1EE10FA03D105200EF0BCF863
S3250800d96009E09FED090AB4EE408AF1EE10FA02D106200EF0B1F8BDEC028B10BD00080240CF
S3250800d98000409C450000FA4300006C4201490870704700000D0100202DE9F0412DED048BD6
S3250800d9a00446B0EE408AF0EE608AB0EE419AF0EE619A0D4616464FF00008092009F03CFC3D
S3250800d9c004F0010020B1012220213B4809F092FB04F0020020B101220421374809F08AFBFA
S3250800d9e00A2014F083FF04F0010020B100222021314809F07FFB04F0020020B10022042146
S3250800da002D4809F077FB00202C4908702C490860084607682B480AF095FE294800682A4925
S3250800da200860C82005F01EFE092009F013FC1EE023480068C01B6421B0FBF1F81F480078A2
S3250800da40012814D100F032F92846F0EE691AB0EE491AF0EE680AB0EE480AFFF7F9FE20B9B9
S3250800da600420BDEC048BBDE8F0810720F9E7B045DED3134800681549086012480AF071FE2D
S3250800da8002210D4809F02EFB01280DD101210A4809F028FB012807D19FED0D0A85ED000A27
S3250800daa000F004F90620DCE79FED0A0A85ED000A00F0FCF80520D4E7001002400C01002023
S3250800dac030000020640700201001002014010020000000007F96184B2DE9F0472DED048B89
S3250800dae00446F0EE408AB0EE609AB0EE418AF0EE619A0D4617464FF00009092009F09CFB9B
S3250800db005D480168302088475B48416830208847072013F0B9F8FFF7DDFC072013F04EF944
S3250800db20564800780FF06EFA534801685448007888475148416853480078884704F001005A
S3250800db4020B101222021504809F0D4FA04F0020020B1012204214C4809F0CCFA0A2014F093
S3250800db60C5FE04F0010020B100222021464809F0C1FA04F0020020B100220421424809F0D8
S3250800db80B9FAB0EE480AFFF7C9FE0A2005F06AFD002012F04BFF3D490E78F11706EB51715E
S3250800dba0C81013F071F839490E78F11706EB5171C910A6EBC101C8B212F038FF0A2005F052
S3250800dbc051FD002032490870324908600846D0F8008031480AF0B6FD2E4800682F49086079
S3250800dbe0C82005F03FFD092009F034FB1FE029480068A0EB08006421B0FBF1F92448007844
S3250800dc00012814D100F052F82846F0EE691AB0EE481AF0EE490AB0EE680AFFF719FE20B9B8
S3250800dc200420BDEC048BBDE8F0870720F9E7B945DDD3184800681A49086017480AF091FD2F
S3250800dc400221114809F04EFA01280DD101210E4809F048FA012807D19FED120A85ED000A1A
S3250800dc6000F024F80620DCE79FED0F0A85ED000A00F01CF80520D4E7F40500203906002024
S3250800dc803A0600203B06002000100240380600200C010020300000206407002010010020CC
S3250800dca014010020000000007F96184B10B5092009F0C2FA10BD002165E090F836208A4229
S3250800dcc000D181723722125C8A4200D141723822125C8A4200D101723922125C8A4200D11D
S3250800dce0C1713A22125C8A4200D181713B22125C8A4200D141713C22125C8A4200D1017196
S3250800dd003D22125C8A4200D1C1703E22125C8A4200D181703F22125C8A4200D1417040227F
S3250800dd20125C8A4200D141734122125C8A4200D181734222125C8A4200D1C1734322125C3E
S3250800dd408A4200D101744422125C8A4200D141744522125C8A4200D181744622125C8A4274
S3250800dd6000D1C1744722125C8A4200D101754822125C8A4200D141754922125C8A4200D104
S3250800dd8081754A1CD1B2032997DB0021A9E0027E8A4203D1827A42EA01128272427E8A4273
S3250800dda003D1427A42EA01124272827E8A4203D1027A42EA01120272C27E8A4203D1C279E8
S3250800ddc042EA0112C271027F8A4203D1827942EA01128271427F8A4203D1427942EA01121A
S3250800dde04271827F8A4203D1027942EA01120271C27F8A4203D1C27842EA0112C2702022C6
S3250800de00125C8A4203D1827842EA011282702122125C8A4203D1427842EA0112427022227B
S3250800de20125C8A4203D1027842EA011202702322125C8A4203D1027B42EA011202732422D1
S3250800de40125C8A4203D1427B42EA011242732522125C8A4203D1827B42EA01128273262227
S3250800de60125C8A4203D1C27B42EA0112C2732722125C8A4203D1027C42EA01120274282201
S3250800de80125C8A4203D1427C42EA011242742922125C8A4203D1827C42EA011282742A22DB
S3250800dea0125C8A4203D1C27C42EA0112C2742B22125C8A4203D1027D42EA011202752C22B5
S3250800dec0125C8A4203D1427D42EA011242752D22125C8A4203D1827D42EA011282754A1C79
S3250800dee0D1B20329FFF653AF7047000010B5044684B33F480088C82879DD00203C490880EF
S3250800df003C4807F0D3FD3C49088004213B4809F0E9F8C8B138480088B0F57A6F0EDB3848A1
S3250800df200078401C36490870084600781E285EDB0020087001203349087058E00020304945
S3250800df4008703049087052E000202D4908702D4908704CE0FFE72CE0052014F0C7FC2548A5
S3250800df6007F0A4FD244908800421244809F0BAF8C8B121480088B0F57A6F0EDB2048007809
S3250800df80401C1F490870084600781E2811DB0020087001201B4908700CE0002018490870C5
S3250800dfa01849087006E00020154908701549087000E0D1E700BF0221104809F093F8B0B111
S3250800dfc00D48008840F6B831884210DD0A48008807F056FD0A280ADA05F0E2FF642014F0E8
S3250800dfe085FC0EF099FE4FF47A7014F07FFC10BD1C0000205C000020060000200000024064
S3250800e000360000200400002010B50446606814F099FC204614F096FC10BD000038B54FF013
S3250800e020AA300090862013F049FD002404E0FF200E490855601C84B2B4F5805FF7DB002072
S3250800e0400B49088009490870094A128802F50621064A074B1B88D018012213F00BFE054A56
S3250800e0600121684613F01AFF38BD000070CA0020A2060020801208000020054908700549C1
S3250800e080086005490860012004490870704700000C060020140600201006002018060020D7
S3250800e0a010B50446FFF7BAFF02A013F0FDFA13F027FC10BD6C6F6767657220697320636C9A
S3250800e0c065617265640A000070B5044601252078012840D1E06A02280BD1022230A1E06833
S3250800e0e004F0FCF9002836D001202E490870002531E0E06A03280AD103222BA1E06804F038
S3250800e100EDF940B3002027490870002523E0E06A042815D1042225A1E06804F0DFF920B1BB
S3250800e120022024490870022515E0042222A1E06804F0D4F978B103201E49087003250AE07F
S3250800e140E06A052807D105221DA1E06804F0C6F908B109F0DFF86DB912480078012803D104
S3250800e16019A013F0A1FA02E01CA013F09DFA13F0C7FB14E0022D05D11EA013F095FA13F0F1
S3250800e180BFFB0CE0032D05D11FA013F08DFA13F0B7FB04E021A227A120460EF05FFF70BD69
S3250800e1a06F6E0000640000206F6666006B657931000000000C0600206B657932000000008E
S3250800e1c072657365740000007B226465627567223A202274727565227D0D0A007B226465F0
S3250800e1e0627567223A202266616C7365227D0D0A000000007B226465627567223A20226BC7
S3250800e200657931227D0D0A007B226465627567223A20226B657932227D0D0A007061726114
S3250800e2206D6574657273206E6F20737570706F7274210000320000002DE9F04104460025FD
S3250800e240A84600272078022802D14FF0100800E00125002D46D1E06A04285AD1042269A194
S3250800e260E06804F03BF9002830D0B8F1100F2DD130210A5D65A1206904F030F970B100BFEE
S3250800e28063A013F011FA13F03BFB142014F02EFB01210020FFF742F9064618E030210A5D56
S3250800e2a060A1206904F01AF970B100255EA013F0FBF913F025FB142014F018FB01210846A6
S3250800e2c0FFF72CF9064602E0032500E00225002D7DD146B159A013F0E7F913F011FB142027
S3250800e2e014F004FB73E0002710E0594830F8172058A1594813F086FE574813F0D5F913F00F
S3250800e300FFFA0A2014F0F2FA781C87B2642FECDB5DE0E06A052859D1052250A1E06804F083
S3250800e320DDF8002850D0B8F1100F4DD130210A5D36A1206904F0D2F870B1002549A013F0C4
S3250800e340B3F913F0DDFA142014F0D0FA00210846FFF7E4F8064616E030210A5D31A1206991
S3250800e36004F0BCF870B1002543A013F09DF913F0C7FA142014F0BAFA00210120FFF7CEF877
S3250800e380064600E0032505BB46B140A013F08CF913F0B6FA142014F0A9FA18E0002710E05F
S3250800e3a02B4830F817202BA12B4813F02BFE2A4813F07AF913F0A4FA0A2014F097FA781C36
S3250800e3c087B2642FECDB02E0022500E00225B5B1012D05D132A238A120460EF03FFE0EE0E6
S3250800e3e0022D05D135A23AA120460EF037FE06E0032D04D137A23CA120460EF02FFEBDE8E8
S3250800e400F08100006C6566740000000062303500636370696E206C656674206230353A0A08
S3250800e4200000000061303500636370696E206C656674206130353A0A000000006C6566745B
S3250800e440206E6F20636F6E6E656374210A000000A812002025640A008C5B0020726967685E
S3250800e46074000000636370696E207269676874206230353A0A000000636370696E2072699C
S3250800e480676874206130353A0A0000007269676874206E6F20636F6E6E656374210A0000B1
S3250800e4a0706172616D6574657273206E6F20737570706F72742100003100000063637069EF
S3250800e4c06E20706F7274206572726F722100000032000000636370696E2070696E206572D3
S3250800e4e0726F722100000000330000002DE9F04F2DED028B8BB080464FF0010900240020DD
S3250800e5000790089009900A900690059004909FED6A0A8DED030A82468346002598F80000FF
S3250800e52003287BD104A805A9CDE9001006AB07AA62A1D8F80400FDF7A3FE9DF818006C2827
S3250800e54038D14FF0010A4FF0010B5F4D00BF14E004EB44005D4A02EBC001032205A803F063
S3250800e560BDFF40B15A48005D182190FBF1F201FB1200C6B203E0601CC4B2142CE8DB00BF1D
S3250800e580002414E004EB4400504A02EBC001032204A803F0A3FF40B14D48005D182190FBCD
S3250800e5a0F1F201FB1200C7B203E0601CC4B2142CE8DB39E04FF0000A4FF0020B454D0024A7
S3250800e5c014E004EB4400414A02EBC001032205A803F084FF40B14048005D182190FBF1F208
S3250800e5e001FB1200C6B203E0601CC4B2142CE8DB00BF002415E004EB4400344A02EBC00178
S3250800e600032204A803F06AFF48B13348005D182190FBF1F201FB1200C7B204E02DE0601C53
S3250800e620C4B2142CE7DB00BFA95DE85D2B4A536852469847A95DE85D284A93685246984774
S3250800e6404FF4967203A9F6EE001A9FED251ADFED1A0A9FED190A5846FFF79EF90398FEF792
S3250800e6601FF941EC180B8DED008B04AB05AA06A91CA013F0B7FC4FF00009B9F1010F05D1C8
S3250800e6801EA224A140460EF0E9FC10E0B9F1020F05D121A227A140460EF0E0FC07E0B9F181
S3250800e6a0030F04D124A229A140460EF0D7FC0BB0BDEC028BBDE8F08F00000000257320258C
S3250800e6c07320257320257300865C0020D85F0020513202089E5C002065320208580600202A
S3250800e6e000006C4225733A25732D25732C636170203D20252E33666E460A00007061726104
S3250800e7006D6574657273206E6F20737570706F727421000031000000696E707574207661A8
S3250800e7206C7565206D6F7265207468656E2031303021000032000000696E707574207661B8
S3250800e7406C7565206572726F722100003300000070B50446207828B10AA20FA120460EF027
S3250800e7607DFC70BD0D480EF0BBFB05462A460CA1114813F047FC104812F096FF13F0C0F82B
S3250800e78000BFEEE7706172616D65746572206572726F722100000000300000004012080021
S3250800e7a07B22476574636865636B73756D223A20222575227D0D0A005C1000202DE9F84370
S3250800e7c004460026B04600272078022802D14FF0100800E00126002E76D1E06A042874D17B
S3250800e7e004229CA1E06803F079FE002860D0B8F1100F5DD130210A5D98A1206903F06EFECF
S3250800e80078B100BF96A012F04FFF13F079F8142014F06CF86A460121002004F0D7FA05466A
S3250800e82047E030210A5D93A1206903F057FE78B1002691A012F038FF13F062F8142014F098
S3250800e84055F86A460121084604F0C0FA054630E030210A5D8DA1206903F040FE78B1002645
S3250800e8608BA012F021FF13F04BF8142014F03EF86A460121022004F0A9FA054619E0302169
S3250800e8800A5D88A1206903F029FE78B1002686A012F00AFF13F034F8142014F027F86A4681
S3250800e8a00121032004F092FA054602E0032600E00226002E90D14DB180A012F0F5FE13F082
S3250800e8c01FF8142014F012F8AAE017E0002710E07F4830F817207FA17F4813F093FB7E48D5
S3250800e8e012F0E2FE13F00CF80A2013F0FFFF781C87B27A4800888742EADB91E0E06A052869
S3250800e90071D1052276A1E06803F0E8FD00286BD0B8F1100F68D130210A5D50A1206903F0C0
S3250800e920DDFD78B1002670A012F0BEFE12F0E8FF142013F0DBFF6A460021084604F046FA85
S3250800e940054645E030210A5D4AA1206903F0C6FD78B1002669A012F0A7FE12F0D1FF142052
S3250800e96013F0C4FF6A460021012004F02FFA05462EE030210A5D45A1206903F0AFFD78B16C
S3250800e980002663A012F090FE12F0BAFF142013F0ADFF6A460021022004F018FA054617E0D7
S3250800e9a030210A5D3FA1206903F098FD78B100265CA012F079FE12F0A3FF142013F096FF6C
S3250800e9c06A460021032004F001FA054600E0032616BB55B158A012F067FE12F091FF1420F6
S3250800e9e013F084FF1CE01AE017E0002710E0384830F8172037A1384813F004FB364812F0C6
S3250800ea0053FE12F07DFF0A2013F070FF781C87B2324800888742EADB02E0022600E002260E
S3250800ea20B6B1012E05D149A24EA120460EF016FB0EE0022E05D14CA250A120460EF00EFBCD
S3250800ea4006E0032E04D14EA252A120460EF006FBBDE8F8836C6566740000000061303400E4
S3250800ea60636370696E206C656674206130343A0A0000000061303900636370696E206C65BF
S3250800ea806674206130393A0A0000000062303400636370696E206C656674206230343A0A98
S3250800eaa00000000062303900636370696E206C656674206230393A0A000000006C656674CB
S3250800eac0206E6F20636F6E6E656374210A0000007013002025640A008C5B00200601002092
S3250800eae07269676874000000636370696E207269676874206130343A0A00000063637069D7
S3250800eb006E207269676874206130393A0A000000636370696E207269676874206230343AA2
S3250800eb200A000000636370696E207269676874206230393A0A0000007269676874206E6F28
S3250800eb4020636F6E6E656374210A0000706172616D6574657273206E6F20737570706F7278
S3250800eb607421000031000000636370696E20706F7274206572726F72210000003200000032
S3250800eb80636370696E2070696E206572726F722100000000330000002DE9F041044600269E
S3250800eba000272078012801D1102700E00126B6B9102F14D194F82C10E0680AF065FD68B137
S3250800ebc0002694F82C10E06811F0C4F80546642D00D96425E8B20EF01DF900E0022676B119
S3250800ebe0012E05D107A20DA120460EF037FA06E0022E04D10AA20FA120460EF02FFABDE89D
S3250800ec00F0810000706172616D6574657273206E6F20737570706F727421000031000000B5
S3250800ec20696E7075742076616C7565206572726F722100003200000070B5054633480EF0D3
S3250800ec404FF90446012C03D131A013F0CBF95CE0022C03D138A013F0C5F956E0032C03D16B
S3250800ec603FA013F0BFF950E0042C03D147A013F0B9F94AE0052C03D14FA013F0B3F944E02B
S3250800ec80062C03D157A013F0ADF93EE0072C03D15FA013F0A7F938E0082C03D167A013F0CF
S3250800eca0A1F932E00B2C03D16FA013F09BF92CE00C2C03D176A013F095F926E00D2C03D117
S3250800ecc07DA013F08FF920E00E2C03D184A013F089F91AE00F2C03D18BA013F083F914E020
S3250800ece0102C03D192A013F07DF90EE0112C03D199A013F077F908E0122C03D1A0A013F063
S3250800ed0071F902E0A8A013F06DF970BD201208007B2269506F727420506F736974696F6E61
S3250800ed20223A202276616C7565223A20224C656674227D0D0A0000007B2269506F72742060
S3250800ed40506F736974696F6E223A202276616C7565223A20225269676874227D0D0A000043
S3250800ed607B2269506F727420506F736974696F6E223A202276616C7565223A202243315F39
S3250800ed804C656674227D0D0A000000007B2269506F727420506F736974696F6E223A202266
S3250800eda076616C7565223A202243315F5269676874227D0D0A0000007B2269506F72742038
S3250800edc0506F736974696F6E223A202276616C7565223A202243325F4C656674227D0D0A62
S3250800ede0000000007B2269506F727420506F736974696F6E223A202276616C7565223A20AE
S3250800ee002243325F5269676874227D0D0A0000007B2269506F727420506F736974696F6E1A
S3250800ee20223A202276616C7565223A202243335F4C656674227D0D0A000000007B226950FF
S3250800ee406F727420506F736974696F6E223A202276616C7565223A202243335F5269676822
S3250800ee6074227D0D0A0000007B2269506F727420506F736974696F6E223A202276616C75E4
S3250800ee8065223A2022506F7330227D0D0A0000007B2269506F727420506F736974696F6E29
S3250800eea0223A202276616C7565223A2022506F7331227D0D0A0000007B2269506F72742007
S3250800eec0506F736974696F6E223A202276616C7565223A2022506F7332227D0D0A0000005C
S3250800eee07B2269506F727420506F736974696F6E223A202276616C7565223A2022506F7359
S3250800ef0033227D0D0A0000007B2269506F727420506F736974696F6E223A202276616C7584
S3250800ef2065223A2022506F7334227D0D0A0000007B2269506F727420506F736974696F6E84
S3250800ef40223A202276616C7565223A2022506F7335227D0D0A0000007B2269506F72742062
S3250800ef60506F736974696F6E223A202276616C7565223A2022506F7336227D0D0A000000B7
S3250800ef807B2269506F727420506F736974696F6E223A202276616C7565223A2022506F73B8
S3250800efa037227D0D0A0000007B2269506F727420506F736974696F6E223A202276616C75E0
S3250800efc065223A20224E41227D0D0A0010B58CB00446002206A9144808F08AFE00220BA90D
S3250800efe0114808F05FFE9DF81A009DF819109DF818209DF82C30CDE90132CDE903109DF8E3
S3250800f0002E0000909DF82D309DF82F0000F5FA6206A10E4812F0F6FF0C4812F045FB12F091
S3250800f0206FFC0CB010BD0000A007002025642F253032642F253032642D25642D253032647C
S3250800f0403A253032643A253032640A005C1000202DE9F0472DED028B88B004460125002600
S3250800f06000274FF000084FF0000A0020079006900390049005909FED3A0A10EE109A2078B2
S3250800f080022850D106A8009007AB03AA35A16068FDF7F6F80798302838DA0698302835DAEC
S3250800f0a01821079890FBF1F201FB120000F0FF08069890FBF1F201FB120000F0FF0A079845
S3250800f0c0182801DA012600E000260698182801DA012700E000272649086880473B46324653
S3250800f0e05146404606F06CFB3B463246514640460EF0C6FA1E48C168012088471C48016967
S3250800f1000020884710EE109A002500E003254846FDF7C6FB41EC180B8DED008B15A0DDE90A
S3250800f120062112F05FFF012D05D118A21DA120460DF094FF0EE0022D05D11BA221A12046F0
S3250800f1400DF08CFF06E0032D04D11FA223A120460DF084FF08B0BDEC028BBDE8F0870000B9
S3250800f160000000002573202564202564000000005806002025642C2025642052203D2025A7
S3250800f1802E3266204F686D0A00000000706172616D6574657273206E6F20737570706F7253
S3250800f1a07421000031000000696E7075742076616C7565206D6F7265207468656E203130EB
S3250800f1c03021000032000000696E7075742076616C7565206572726F722100003300000093
S3250800f1e02DE9F0432DED068B8BB0044601254FF000090026002700200A900990089005904D
S3250800f200069007909FED570A10EE108A9FED550AB0EE408A207803287DD108A809A9CDE9B2
S3250800f22000100AAB05AA50A16068FDF729F80A9830282CDA0998302829DA18210A9890FB1C
S3250800f240F1F201FB1200C6B2099890FBF1F201FB1200C7B20A98182802DA4FF0010901E0B9
S3250800f2604FF00009089804280FDB089807280CDC0898C3B24A463946304604F001FA00EE54
S3250800f280100AB8EE400AB0EE408A002500E003250898042808D137490870B1EE040AC8EEC1
S3250800f2a0000A10EE908A2AE00898052808D131490870B6EE000AC8EE000A10EE908A1EE0F8
S3250800f2c00898062808D12B4908709FED2B0AC8EE000A10EE908A12E00898072808D12549EC
S3250800f2e008709FED260AC8EE000A10EE908A06E00620204908709FED1B0A10EE108A404638
S3250800f300FDF7CEFA41EC190B18EE100AFDF7C8FA41EC1A0B00E008E08DED029B8DED00ABA6
S3250800f3203A46314616A012F05DFE012D05D11EA223A120460DF092FE0EE0022D05D121A284
S3250800f34027A120460DF08AFE06E0032D04D125A229A120460DF082FE0BB0BDEC068BBDE8F3
S3250800f360F08300000000000025732025642025642025640054060020CDCC4C3D0AD7A33B1E
S3250800f38025642C202564205664726F70203D20252E3266206D562C20523A25302E32662078
S3250800f3a04F686D0A00000000706172616D6574657273206E6F20737570706F727421000082
S3250800f3c031000000696E7075742076616C7565206D6F7265207468656E203130302100000D
S3250800f3e032000000696E7075742076616C7565206572726F72210000330000002DE9F0417B
S3250800f4008EB006460024D6F80C8096F82C703078012809D1032F24D13A46B1A1404603F08F
S3250800f4205DF8F0B101241CE03078022811D1032F17D13A46ABA1404603F050F808B102246D
S3250800f4400FE03A46A8A1404603F048F848B1042407E0A6A2AAA130460DF000FE0EB0BDE8BE
S3250800f460F0812CB9A1A2A7A130460DF0F7FDF5E7012C74D1A4480DF033FD054605F001008E
S3250800f48010B1A248069002E0A048001D069005F0020010B19D48079002E09C48001D0790F2
S3250800f4a005F0040010B19948089002E09748001D089005F0200010B194480A9002E093488C
S3250800f4c0001D0A9005F0400010B190480B9002E08E48001D0B9005F0800010B18B480C90E9
S3250800f4e002E08A48001D0C9005F4807010B187480D9002E08548001D0D9005F01800A8B9A4
S3250800f5008248001D0990DDE90A23DDE90C10CDE90223CDE90410DDE90801CDE900017C4998
S3250800f5207C48DDE9062312F06DFD2DE005F01800102815D175480990DDE90A23DDE90C014A
S3250800f540CDE90223CDE90401DDE90801CDE9000171497048DDE9062312F054FD14E019E0E0
S3250800f5606A480990DDE90B320A990D98CDE9033202910590DDE90801CDE9000167496548F1
S3250800f580DDE9062312F03EFD624812F08DF812F0B7F963E7D6F810803020875D032F23D14C
S3250800f5a03A465FA1404602F099FF10B144F0100441E03A465BA1404602F090FF10B144F00B
S3250800f5c0200438E03A4658A1404602F087FF10B144F480742FE03A4654A1404602F07EFF04
S3250800f5e048B344F4007426E0042F1AD13A4650A1404602F073FF10B144F040041BE03A4623
S3250800f6004DA1404602F06AFF10B144F4806412E03A464BA1404602F061FF60B144F400644D
S3250800f62009E0022F07D13A4647A1404602F056FF08B144F08004102C05DA2CA243A13046E1
S3250800f6400DF00CFD0AE7842C37D00EDC242C2ED006DC122C1CD0142C26D0222C3CD11AE01F
S3250800f660422C1BD0442C37D124E040F20441601A8C422BD006DCB4F5827F21D0B4F5017F47
S3250800f6802AD120E0A0F2FE3058B1022824D120E00CF044FC20E00CF087FD1DE00DF022F8A9
S3250800f6a01AE00CF0ADFB17E00CF0CAFC14E00CF079FE11E00DF0DCF80EE00CF0DBFE0BE00E
S3250800f6c00CF040FF08E00CF0A5FF05E00CF004FD02E00CF0D7FB00BF00BF00BFBEE60000E6
S3250800f6e06772700069746D006C696D00706172616D65746572206572726F722100000000FB
S3250800f700300000003100000010120800ED000020684A03085C100020F849030888490308D2
S3250800f72061646A00676E6400766F6800766F6C007662757300000000646473320000000088
S3250800f74061646A320000000054520000320000002DE9F04F8BB00546012600240020079085
S3250800f760089009900A90069005900490039081460290287803287AD104A805A9CDE90010CF
S3250800f78006AB07AA60A16868FCF77AFD9DF818006C2838D101200390DFF8789100BF14E02D
S3250800f7a004EB44005C4A02EBC001032205A802F095FE40B15948005D182190FBF1F201FBCB
S3250800f7c01200C7B203E0601CC4B2142CE8DB00BF002415E004EB44004F4A02EBC001032241
S3250800f7e004A802F07BFE48B14C48005D182190FBF1F201FB120000F0FF0803E0601CC4B279
S3250800f800142CE7DB39E000200390DFF81491002414E004EB4400404A02EBC001032205A83B
S3250800f82002F05CFE40B13F48005D182190FBF1F201FB1200C7B203E0601CC4B2142CE8DB93
S3250800f84000BF002416E004EB4400334A02EBC001032204A802F042FE50B13248005D18214F
S3250800f86090FBF1F201FB120000F0FF0804E031E0601CC4B2142CE6DB00BF19F8081019F826
S3250800f8800700294A5368039A984728480DF028FB00F0FF0A254810380DF022FB0190234855
S3250800f8a010300DF01DFB00F0FF0B534601225846019903F0B7FB029000214FF47A70FDF77E
S3250800f8c063FD029804AB05AA06A9009018A012F089FB0026012E05D11AA220A128460DF032
S3250800f8e0BDFB0EE0022E05D11DA224A128460DF0B5FB06E0032E04D121A226A128460DF0CE
S3250800f900ADFB0BB0BDE8F08F257320257320257320257300865C0020D85F002051320208AC
S3250800f9209E5C002065320208580600206012080025733A25732D25732C646473203D2025CE
S3250800f940640A0000706172616D6574657273206E6F20737570706F7274210000310000006B
S3250800f960696E7075742076616C7565206D6F7265207468656E203130302100003200000066
S3250800f980696E7075742076616C7565206572726F722100003300000030B52DED048B89B087
S3250800f9a0044633A0006808900020079006900390049005909FED2F0AB0EE408A2078032823
S3250800f9c052D106A807A9CDE9001008AB03AA2AA16068FCF755FC2B49086880479DF820003B
S3250800f9e06C2801D1012000E00020024625489DF8181043689DF81C0098479DF820006C287C
S3250800fa0001D1012000E0002002461E489DF8181083689DF81C0098471A48C1680120884784
S3250800fa201848016900208847B0EE408A1548C168002088479FED140AC8EE000A10EE905AD0
S3250800fa402846FCF72DFF41EC190B8DED009B9DF818309DF81C200DA1114812F0D3FA1048C9
S3250800fa6011F022FE11F04CFF09B0BDEC048B30BD6C000000000000002573202573202564C8
S3250800fa80202564005806002000007A4425642C09256409523D092566206B4F686D0A000047
S3250800faa05C10002070B58CB0044601250020089009900A900B9007900690059004900026D9
S3250800fac02078042828D104A805A906AACDE90021029007AB08AA1DA16068FCF7D1FB9DF8AA
S3250800fae01C006C2801D1012000E0002002469DF810309DF814109DF8180003F0C1FD0646D5
S3250800fb0016A011F0D1FD304611F0BCFD1AA011F0CBFD11F0F5FE0025012D05D118A21EA109
S3250800fb2020460DF09BFA0EE0022D05D11BA222A120460DF093FA06E0032D04D11FA224A1EB
S3250800fb4020460DF08BFA0CB070BD0000257320257320256420256420256400007B22446931
S3250800fb606F64652056647270223A202276616C7565223A2000000000206D567D0D0A0000D5
S3250800fb80706172616D6574657273206E6F20737570706F727421000031000000696E7075DB
S3250800fba0742076616C7565206D6F7265207468656E2031303021000032000000696E707524
S3250800fbc0742076616C7565206572726F722100003300000070B504460125207800B90025BD
S3250800fbe05DB909A011F060FD084811F05DFD08A011F05AFD11F084FE04E006A20BA120460E
S3250800fc000DF02CFA70BD00007B000000000002087D0D0A00706172616D6574657273206EAB
S3250800fc206F20737570706F72742100003200000070B5044601262078012827D194F82C10A0
S3250800fc40E06809F021FD00B394F82C10E06810F081F80546B5F1006F15D31848854212D2A8
S3250800fc60002617A011F020FDE06811F01DFD17A011F01AFD11F044FE052012F037FE28463C
S3250800fc800AF030FC02E0032600E00226012E05D110A216A120460DF0E1F90EE0022E05D17E
S3250800fca013A212A120460DF0D9F906E0032E04D115A20EA120460DF0D1F970BD00000208E3
S3250800fcc07B226A6D70223A2022000000227D0D0A00000000706172616D6574657273206E1C
S3250800fce06F20737570706F727421000032000000706172616D657465727320696E70757473
S3250800fd00206572726F72210061646472657373206D75737420677265617465722074686134
S3250800fd206E20307838303030303030210000000070B5044601252078012815D194F82C1002
S3250800fd40E06810F007F8C6B216B113490868804712A011F0A9FC304611F094FC15A011F067
S3250800fd60A3FC11F0CDFD0025012D05D112A218A120460DF073F90EE0022D05D115A21CA13F
S3250800fd8020460DF06BF906E0032D04D119A21EA120460DF063F970BD580600207B22416D74
S3250800fda0757820496E6974223A202276616C7565223A20007D0D0A00706172616D6574657A
S3250800fdc07273206E6F20737570706F727421000031000000696E7075742076616C75652017
S3250800fde06D6F7265207468656E2031303021000032000000696E7075742076616C756520E2
S3250800fe006572726F722100003300000030B58BB0044600250020089009900A9007900690AF
S3250800fe200590049001252078042825D104A805A906AACDE90021029007AB08AA12A1606859
S3250800fe40FCF71EFADDE90410CDE900019DF818309DF81C201049114812F0D4F800250F484E
S3250800fe6011F022FC15B911F04BFD0AE00CA212A120460DF0F3F804E009A210A120460DF002
S3250800fe80EDF80BB030BD000025732025642025642025642025640000584B03085C10002051
S3250800fea0706172616D6574657273206E6F20737570706F7274210000310000003200000042
S3250800fec01FB50446002000900190029003902078A8B96A460DA16068FCF7D2F910F0E7FAD2
S3250800fee00B49086880479FED0B0AFDF717FD0848C1680120884708A012F074F804E00AA2B1
S3250800ff000EA120460DF0AAF81FBD0000257300005806002000006C42536574436170437587
S3250800ff2072206F6B210A0000696E7075742076616C7565206572726F722100003000000014
S3250800ff4038B504462078012805D016A21AA120460DF084F838BD94F82C10E06809F094FBE7
S3250800ff6028B910A215A120460DF078F8F2E794F82C10E0680FF0EEFE0090114A01216846C8
S3250800ff8011F08CFF0E480CF0ABFF05462A460DA1124812F037F8114811F086FB11F0B0FC4F
S3250800ffa000BFD7E7706172616D65746572206572726F722100000000300000003100000029
S3250800ffc0401208007B22536574636865636B73756D223A20222575227D0D0A005C10002023
S3250800ffe0F8B50446002500262078012801D1102605E02078032801D1202600E0012505BB62
S32508010000E06A03280DD1032274A1E06802F066FA28B1202E03D1002546F0010613E0022533
S3250801002011E0E06A07280DD107226DA1E06802F055FA28B1102E03D1002546F0020602E079
S32508010040022500E00225002D78D1122E7DD0212E76D130210A5D64A1206902F03FFAF8B1B0
S325080100603422115D606909F00FFBB8B100BF3422115D60690FF06EFE00905E4A01216846B9
S3250801008011F00CFF5C485DA14269624811F0BAFF604811F009FB11F033FC55E0042553E026
S325080100a030210A5D5CA1206902F018FA00B33422115D606909F0E8FAC0B100253422115D7A
S325080100c060690FF047FE00904A4A10320121684611F0E4FE484851A142694E4811F092FF96
S325080100e04C4811F0E1FA11F00BFC2DE004252BE030210A5D4DA1206902F0F0F918B334220D
S32508010100115D606909F0C0FAD8B100253422115D60690FF01FFE0090364A2032012168465D
S3250801012011F0BCFE344843A142693A4811F06AFF384811F0B9FA11F0E3FB05E02CE004E016
S3250801014029E0042500E0032525E02A480CF0C8FE00903DA011F0A8FA009811F093FA3EA009
S3250801016011F0A2FA234810300CF0BAFE0090009811F088FA3BA011F097FA1E4820300CF0AA
S32508010180AFFE0090009811F07DFA2DA011F08CFA11F0B6FB00BF00BFF5B1012D05D135A2FE
S325080101a03AA120460CF05AFF16E0022D05D138A23BA120460CF052FF0EE0032D05D139A267
S325080101c03CA120460CF04AFF06E0042D04D13AA23EA120460CF042FFF8BD0000736574003D
S325080101e072656164636667006672657175656E6379000000501208005C1200207B226672E5
S32508010200657175656E6379223A20222573227D0D0A0000005C100020706761007B227067B1
S3250801022061223A20222573227D0D0A0062756666000000007B2262756666223A2022257349
S32508010240227D0D0A000000007B226672657175656E6379223A202200222C202270676122E2
S325080102603A202200222C202262756666223A202200000000706172616D6574657273206E60
S325080102806F20737570706F72742100003100000064647320736574206572726F722100003F
S325080102a0320000007365742074797065206572726F72210033000000696E7075742076610A
S325080102c06C7565206572726F7221000034000000F8B50446002500262078012801D110261F
S325080102e005E02078032801D1202600E0012505BBE06A03280DD103228DA1E06802F0EEF8A3
S3250801030028B1202E03D1002546F0010613E0022511E0E06A07280DD1072286A1E06802F085
S32508010320DDF828B1102E03D1002546F0020602E0022500E00225002D78D1122E77D0212E2F
S3250801034076D130210A5D7DA1206902F0C7F8F8B13422115D606909F097F9B8B100BF3422FA
S32508010360115D60690FF0F6FC0090774A0121684611F094FD754876A142697B4811F042FE10
S32508010380794811F091F911F0BBFA7DE004257BE030210A5D75A1206902F0A0F800B3342281
S325080103a0115D606909F070F9C0B100253422115D60690FF0CFFC0090634A10320121684659
S325080103c011F06CFD61486AA14269674811F01AFE654811F069F911F093FA55E0042553E04E
S325080103e030210A5D66A1206902F078F818B33422115D606909F048F9D8B100253422115D40
S3250801040060690FF0A7FC00904F4A20320121684611F044FD4D485CA14269534811F0F2FD0D
S32508010420514811F041F911F06BFA2DE05FE02CE05CE0042528E030210A5D58A1206902F082
S325080104404DF800B33422115D606909F01DF9C0B100253422115D60690FF07CFC00903A4A4B
S3250801046030320121684611F019FD38484EA142693D4811F0C7FD3C4811F016F911F040FAF1
S3250801048002E0042500E0032530E02F480CF028FD00904BA011F008F9009811F0F3F84CA0A5
S325080104a011F002F9284810300CF01AFD0090009811F0E8F849A011F0F7F8234820300CF0D5
S325080104c00FFD0090009811F0DDF848A011F0ECF81D4830300CF004FD0090009811F0D2F881
S325080104e02CA011F0E1F811F00BFA00BF00BFF5B1012D05D142A248A120460CF0AFFD16E048
S32508010500022D05D145A249A120460CF0A7FD0EE0032D05D146A24AA120460CF09FFD06E045
S32508010520042D04D147A24CA120460CF097FDF8BD736574007265616463666700667265715F
S3250801054075656E6379000000A01208005C1200207B226672657175656E6379223A202225EE
S3250801056073227D0D0A0000005C100020706761007B22706761223A20222573227D0D0A00BE
S3250801058062756666000000007B2262756666223A20222573227D0D0A0000000073686F72C1
S325080105a0746C696D000000007B2273686F72746C696D223A20222573227D0D0A000000007B
S325080105c07B226672657175656E6379223A202200222C2022706761223A202200222C202209
S325080105e062756666223A202200000000222C202273686F72746C696D223A2022000000000B
S32508010600706172616D6574657273206E6F20737570706F727421000031000000646473329E
S3250801062020736574206572726F722100320000007365742074797065206572726F72210009
S3250801064033000000696E7075742076616C7565206572726F7221000034000000F0B587B070
S325080106600546002400262878012801D1102600E00124002C30D10DF11B00411E821E06AB0A
S32508010680CDE90132CDE90310001F00900B1F05AA22A1E868FBF7F4FD07281CD105A809F059
S325080106a02FF8B0B100BF46F001069DF81B009DF81A109DF81920CDE9002102909DF8183024
S325080106c09DF817209DF81610BDF814000BF036F802E0022400E002246CB9112E0AD115A18F
S325080106e01648EA6811F08EFC144810F0DDFF11F007F900BF00BF74B1012C05D110A216A168
S3250801070028460CF0ABFC06E0022C04D113A218A128460CF0A3FC07B0F0BD000025642F2518
S32508010720642F25642D25642D25643A25643A25640000000025730D0A000000005C10002061
S32508010740706172616D6574657273206E6F20737570706F72742100003100000074696D651B
S3250801076020666F726D6174206572726F722100003200000030B58DB0044601252EA000685C
S325080107800C9000200B900A90099008900590069007902078052834D108A809A90AAA0BABD0
S325080107a0CDE90032CDE902100CAB05AA23A16068FBF766FD9DF8200000909DF830006C2895
S325080107c001D1012000E0002002469DF824309DF828109DF82C000CF011FF9DF820009DF802
S325080107e02410CDE900109DF828309DF82C2018A11F4811F007FC1E4810F056FF11F080F8CA
S325080108000025012D05D11BA220A120460CF026FC10E0022D05D11EA224A120460CF01EFCA8
S3250801082008E0032D05D122A226A120460CF016FC00E000BF0DB030BD6C000000257320252A
S325080108407320256420256420256420256400000025642C092564095363616C653A20256457
S3250801086009536E735365743A2025640A000000005C100020706172616D6574657273206EC5
S325080108806F20737570706F727421000031000000696E7075742076616C7565206D6F72650B
S325080108a0207468656E2031303021000032000000696E7075742076616C7565206572726F11
S325080108c0722100003300000070B5044601252078012814D194F82C10E0680FF03BFAC6B24C
S325080108e03046FCF709FE12A010F0DEFE304610F0C9FE16A010F0D8FE11F002F80025012DD4
S3250801090005D113A218A120460CF0A8FB0EE0022D05D116A21CA120460CF0A0FB06E0032D04
S3250801092004D11AA21EA120460CF098FB70BD00007B22416D757820456E61626C65223A201B
S325080109402276616C7565223A200000007D0D0A00706172616D6574657273206E6F20737500
S3250801096070706F727421000031000000696E7075742076616C7565206D6F72652074686540
S325080109806E2031303021000032000000696E7075742076616C7565206572726F72210000FE
S325080109a0330000002DE9FC4105460127FE480CF097FA0090002001902878022803D030202E
S325080109c08DF80400D9E2EE6895F82C40032C6FD12246F6A1304601F081FD002830D02E6963
S325080109e03020445D022C12D12246F1A1304601F075FD40B10027009840F001000090EDA015
S32508010a0010F052FEB9E232208DF80400B5E2032C12D12246EDA1304601F060FD40B1002786
S32508010a20009820F001000090E9A010F03DFEA4E232208DF80400A0E232208DF804009CE26E
S32508010a402246E9A1304601F049FD002831D02E693020445D022C12D12246D5A1304601F0E1
S32508010a603DFD40B10027009840F002000090DFA010F01AFE81E232208DF804007DE2032C58
S32508010a8012D12246D1A1304601F028FD40B10027009820F002000090D8A010F005FE6CE2E3
S32508010aa032208DF8040068E232208DF8040064E2B3E02246D6A1304601F010FD002838D0CB
S32508010ac02E693020445D022C16D12246B8A1304601F004FD60B10027009820F008000090C9
S32508010ae0009840F010000090CAA010F0DDFD44E232208DF8040040E2032C16D12246B3A146
S32508010b00304601F0EBFC60B10027009820F008000090009820F010000090C2A010F0C4FD95
S32508010b202BE232208DF8040027E232208DF8040023E22246C0A1304601F0D0FC80B32E690F
S32508010b403020445D022C12D1224699A1304601F0C5FC40B10027009840F020000090B7A0D3
S32508010b6010F0A2FD09E232208DF8040005E2032C12D1224695A1304601F0B0FC40B100273F
S32508010b80009820F020000090B0A010F08DFDF4E132208DF80400F0E132208DF80400ECE1EB
S32508010ba0FFE72246AEA1304601F098FC80B32E693020445D022C12D122467DA1304601F0D5
S32508010bc08DFC40B10027009840F040000090A5A010F06AFDD1E132208DF80400CDE1032CB7
S32508010be012D1224679A1304601F078FC40B10027009820F0400000909EA010F055FDBCE1E9
S32508010c0032208DF80400B8E132208DF80400B4E1FFE731208DF80400AFE1042C6FD10422FB
S32508010c2099A1304601F05AFC80B32E693020445D022C12D122465EA1304601F04FFC40B1D8
S32508010c400027009840F00400009091A010F02CFD93E132208DF804008FE1032C12D122466F
S32508010c605AA1304601F03AFC40B10027009820F0040000908BA010F017FD7EE132208DF804
S32508010c8004007AE132208DF8040076E1FFE7042289A1304601F022FC80B32E693020445D3E
S32508010ca0022C12D1224642A1304601F017FC40B10027009840F08000009081A010F0F4FC4E
S32508010cc05BE132208DF8040057E1032C12D122463EA1304601F002FC40B10027009820F038
S32508010ce0800000907BA010F0DFFC46E132208DF8040042E132208DF804003EE100E03BE0C5
S32508010d00042279A1304601F0E9FB80B32E693020445D022C12D1224625A1304601F0DEFBFF
S32508010d2040B10027009840F48070009070A010F0BBFC22E132208DF804001EE1032C12D18A
S32508010d40224622A1304601F0C9FB40B10027009820F4807000906BA010F0A6FC0DE13220FD
S32508010d608DF8040009E132208DF8040005E1FFE731208DF8040000E1022C11D1224666A110
S32508010d80304601F0ABFB58B12E693020445D022C08D1224606A1304601F0A0FB08B1BDE038
S32508010da0EBE0C8E0CBE000001012080061646A006F6E00007B2261646A6163656E74223A9D
S32508010dc020226F6E227D0D0A000000006F6666007B2261646A6163656E74223A20226F66AA
S32508010de066227D0D0A000000676E64007B22676E64223A20226F6E227D0D0A007B22676E16
S32508010e0064223A20226F6666227D0D0A00000000646473007B22646473223A20226F6E2220
S32508010e207D0D0A007B2254525F646473223A20226F6666227D0D0A00766F68007B22766FD4
S32508010e4068223A20226F6E227D0D0A007B22766F68223A20226F6666227D0D0A0000000071
S32508010e60766F6C007B22766F6C223A20226F6E227D0D0A007B22766F6C223A20226F66662C
S32508010e80227D0D0A0000000076627573000000007B2276627573223A20226F6E227D0D0A3F
S32508010ea0000000007B2276627573223A20226F6666227D0D0A0000006464733200000000CA
S32508010ec07B2264647332223A20226F6E227D0D0A000000007B2264647332223A20226F664B
S32508010ee066227D0D0A00000061646A32000000007B2261646A32223A20226F6E227D0D0A37
S32508010f00000000007B2261646A32223A20226F6666227D0D0A0000005452000000270098D0
S32508010f2040F008000090009820F0100000901BA010F0BAFB21E032208DF804001DE0032C1A
S32508010f4018D12246AFF27C11304601F0C7FA68B10027009820F008000090009820F01000A3
S32508010f600090AFF2401010F09FFB06E032208DF8040002E032208DF804002FB10BA201A992
S32508010f8028460CF06BF806E00D4A0121684610F085FF10F0B5FCBDE8FC8100007B225452CE
S32508010fa0223A20226F6E227D0D0A0000706172616D65746572206572726F722100000000C5
S32508010fc0101208002DE9F047064600253078032806D0B0A2B4A130460CF040F8BDE8F08704
S32508010fe0D6F80C90F46A032C15D1E2B2AFA1484601F074FA18B10125DFF8B48224E0E2B2A0
S32508011000ACA1484601F06AFAF0B10225DFF8A08208F1080818E0042C16D1E2B2A6A148464F
S3250801102001F05CFA28B10425DFF8848208F110080AE0E2B2A2A1484601F050FA20B10825E2
S32508011040DFF86C8208F130082DB992A29EA130460CF004F8C2E7D6F81090346B032C14D1FA
S32508011060E2B29AA1484601F039FA18B145F01005974F2CE0E2B297A1484601F02FFA30B384
S3250801108045F02005924F083721E0042C1FD1E2B291A1484601F022FA20B145F040058C4F1F
S325080110a0103714E0E2B28EA1484601F017FA20B145F08005864F183709E0E2B28AA14846AE
S325080110c001F00CFA18B145F48075814F4837102D05DA70A286A130460BF0C0FF7EE7D6F80C
S325080110e01490746B05F0010058B12146484608F028FA00282FD167A27EA130460BF0AEFFE2
S325080111006CE705F0020050B1E1B2484608F04FFA08BB60A277A130460BF0A0FF5EE705F0EC
S32508011120040050B1E1B2484608F0A6FA98B959A270A130460BF092FF50E705F0080050B14E
S325080111402146484608F0F5F928B952A269A130460BF084FF42E7422D52D012DC212D36D0D6
S3250801116008DC112D21D0122D25D0142D29D0182D20D175E0222D30D0242D34D0412D7CD1F5
S3250801118037E0882D73D008DC442D3FD0812D43D0822D47D0842D70D14AE0A5F2011070B35F
S325080111a0012851D0032868D154E001222146484608F06AFB61E0E1B20122484608F0A8FBA9
S325080111c05BE0E1B20122484608F066FE55E003222146484608F058FB4FE0E1B20322484616
S325080111e008F096FB49E0E1B20322484608F054FE43E002222146484608F046FB3DE01DE00F
S32508011200E1B20222484608F083FB36E0E1B20222484608F041FE30E004222146484608F04F
S3250801122033FB2AE0E1B20422484608F071FB24E0E1B20422484608F02FFE1EE00A222146BB
S32508011240484608F021FB18E0E1B20A22484608F05FFB12E0E1B20A22484608F01DFE0CE008
S3250801126001222146484608F0C9FA06E0FFE704222146484608F0C2FA00BF00BF002009F852
S3250801128004004B463A4641461BA011F0F7FD00BFA4E60000706172616D65746572206572F2
S325080112a0726F7221000000003000000061646A0065000020676E64007662757300000000CE
S325080112c061646A320000000031000000726573009D00002063617000766472700000000076
S325080112e0736B697000000000636170320000000032000000330000007B222573223A207B31
S32508011300222573223A20222573227D7D0D0A000070B504460126207802287ED1E06A012881
S325080113207BD1012249A1E06801F0D8F8002822D03022115D206908F0A7F9D0B13022115D00
S3250801134020690EF007FD05460026642D0FD8E8B23F4A516888473FA010F0A6F9284610F073
S3250801136091F942A010F0A0F910F0CAFA55E0022653E0032651E001223DA1E06801F0AEF8CB
S32508011380002822D03022115D206908F07DF9D0B13022115D20690EF0DDFC05460026642DCA
S325080113a00FD8E8B22A4A9168884732A010F07CF9284610F067F92DA010F076F910F0A0FA76
S325080113c02BE0022629E0032627E001222FA1E06801F084F8F8B13022115D206908F054F9B3
S325080113e0D0B13022115D20690EF0B4FC05460026642D0FD8E8B2164AD168884724A010F0B7
S3250801140053F9284610F03EF918A010F04DF910F077FA02E0022600E00326012E05D122A281
S3250801142027A120460BF01AFE0EE0022E05D125A22BA120460BF012FE06E0032E04D129A2AD
S325080114402DA120460BF00AFE70BD000072000000380000207B226C6564223A202272222C1F
S32508011460202276616C7565223A2000007D0D0A00670000007B226C6564223A202267222C62
S32508011480202276616C7565223A200000620000007B226C6564223A202262222C20227661C7
S325080114a06C7565223A200000706172616D6574657273206E6F20737570706F7274210000CC
S325080114c031000000696E7075742076616C7565206D6F7265207468656E20313030210000EB
S325080114e032000000696E7075742076616C7565206572726F72210000330000002DE9FC5F2F
S32508011500064600253078052806D0E5A2E9A130460BF0A4FDBDE8FC9FD6F80C90F46A032C46
S3250801152015D1E2B2E4A1484600F0D8FF18B10125DFF8888333E0E2B2E1A1484600F0CEFF03
S32508011540F8B10225DFF8748308F1080827E0042C18D1E2B2DBA1484600F0C0FF28B1042566
S32508011560DFF8588308F1100819E0E2B2D7A1484600F0B4FF28B14FF48075DFF8408308F1BF
S3250801158030080CE0022C0AD1E2B2D2A1484600F0A5FF20B10825DFF8248308F118082DB96B
S325080115a0BFA2CDA130460BF059FDB3E7D6F81090346B032C2AD1E2B2C8A1484600F08EFFAD
S325080115c018B145F01005C64F4FE0E2B2C5A1484600F084FF20B145F02005C14F083744E00C
S325080115e0E2B2C1A1484600F079FF20B145F48055BB4F303739E0E2B2BCA1484600F06EFFAB
S3250801160030B345F40055B64F38372EE0042C20D1E2B2B7A1484600F061FF20B145F0400592
S32508011620AF4F103721E0E2B2B3A1484600F056FF20B145F48045AA4F403716E0E2B2B0A180
S32508011640484600F04BFF18B145F40045A44F48370BE0022C09D1E2B29EA1484600F03EFF79
S3250801166018B145F080059E4F2037102D05DA8CA2A5A130460BF0F2FC4CE7D6F81490746B21
S32508011680E1B2484608F000F828B985A29FA130460BF0E4FC3EE7E1B248460EF05BFB83462E
S325080116a0D6F81890B46BE1B2484607F0EDFF28B97BA297A130460BF0D1FC2BE7E1B24846DB
S325080116c00EF048FB8246D6F81C90F46B05F0010058B12146484607F034FF00286BD170A285
S325080116e08CA130460BF0BAFC14E705F0020058B1E1B2484607F05BFF00285CD168A285A195
S3250801170030460BF0ABFC05E705F0040058B1E1B2484607F0B1FF00284DD161A27DA130460F
S325080117200BF09CFCF6E605F0080058B1E1B2484607F08AFF00283ED159A276A130460BF0CA
S325080117408DFCE7E605F4805050B1E1B2484607F083FF78BB52A26FA130460BF07FFCD9E6DE
S3250801176005F4005050B1E1B2484607F07DFF08BB4BA268A130460BF071FCCBE605F40040FB
S3250801178050B1E1B2484607F00AFF98B944A261A130460BF063FCBDE605F4807050B121461B
S325080117a0484607F0C6FE28B93DA25AA130460BF055FCAFE6FFE74FF60F700540B5F5807F27
S325080117c04FD008DC012D14D0022D19D0042D1ED0082D4DD122E0A5F58050023828B3B0F535
S325080117e0805F29D0B0F5405F2DD0B0F5E04F3FD130E0E1B253465A46484608F0F7FB37E072
S32508011800E1B253465A46484608F0A6FC30E0E1B253465A46484608F00BFE29E0E1B2534625
S325080118205A46484608F0F2FC22E0E1B253465A46484608F045FD1BE0E1B253465A4648469A
S3250801184008F09AFD14E0E1B253465A46484608F027FC0DE0E1B253465A46484608F07CFCCA
S3250801186006E0E1B253465A46484608F065FB00BF00BF002009F804003B46424626A13348D3
S32508011880CDE900BA10F0BEFB30480FF00DFF10F037F849462EA011F0F1FA00BF3AE6000036
S325080118a0706172616D65746572206572726F7221000000003000000061646A006500002009
S325080118c0676E6400766275730000000061646A32000000005452000031000000726573007E
S325080118e09D00002063617000766F6800766F6C007664727000000000646473320000000021
S325080119006361703200000000320000003300000034000000350000007B222573223A207B58
S32508011920222573223A207B226F70656E206C696D6974223A2025642C202273686F72742011
S325080119406C696D6974223A2025642C005C10002020222573227D7D7D0D0A0000F0B589B034
S3250801196005460027202101A8FAF776FC01272878012877D1EC6895F82C60032E60D1324619
S3250801198062A1204600F0AAFD48B161A00FF08CFE67A00FF089FE0320009000279BE032465B
S325080119a067A1204600F09AFD48B159A00FF07CFE64A00FF079FE0520009000278BE032467F
S325080119c064A1204600F08AFD48B151A00FF06CFE61A00FF069FE0720009000277BE03246AB
S325080119e061A1204600F07AFD48B149A00FF05CFE5EA00FF059FE0420009000276BE03246DC
S32508011a005EA1204600F06AFD48B141A00FF04CFE5BA00FF049FE0620009000275BE0324607
S32508011a205BA1204600F05AFD002854D038A00FF03BFE58A00FF038FE0820009000274AE05C
S32508011a40012E48D1324657A1204600F047FD50B12FA00FF029FE54A00FF026FE0020009068
S32508011a60002738E04BE0324651A1204600F036FD48B127A00FF018FE4EA00FF015FE012004
S32508011a800090002727E032464DA1204600F026FD48B11FA00FF008FE4AA00FF005FE0220CF
S32508011aa00090002717E02078312814DB2078392811DC207826380090002060702078421E35
S32508011ac043A101A810F09EFA11A00FF0EDFD01A80FF0EAFD00272FB140A246A128460BF070
S32508011ae0BDFA11E0444A0121684610F0D7F90FF007FF052010F0FAFE02F030F804E037A208
S32508011b003EA128460BF0AAFA09B0F0BD63316C007B2269506F727420506F736974696F6E44
S32508011b20223A202276616C7565223A20000000002243315F4C656674227D0D0A0000000029
S32508011b4063326C002243325F4C656674227D0D0A0000000063336C002243335F4C656674BA
S32508011b60227D0D0A00000000633172002243315F5269676874227D0D0A00000063327200EA
S32508011b802243325F5269676874227D0D0A000000633372002243335F5269676874227D0DE3
S32508011ba00A00000030000000224E41227D0D0A006C000000224C656674227D0D0A000000A6
S32508011bc072000000225269676874227D0D0A000022506F732563227D0D0A00007061726178
S32508011be06D6574657273206E6F20737570706F72742100003100000020120800320000004E
S32508011c0070B5044601252078022874D1E06A042819D10422AFA1E06800F060FC002812D0A5
S32508011c2030210A5DADA1206900F058FC60B10025AEA00FF039FDB2480FF036FDB1A00FF08D
S32508011c4033FD0FF05DFE2DE130210A5DAFA1206900F044FC68B10025AFA00FF025FDA8487E
S32508011c6030300FF021FDA7A00FF01EFD0FF048FE18E130210A5DADA1206900F02FFC68B176
S32508011c800025ADA00FF010FD9D4860300FF00CFD9CA00FF009FD0FF033FE03E130210A5D2D
S32508011ca0AAA1206900F01AFC68B10025AAA00FF0FBFC934890300FF0F7FC92A00FF0F4FC0F
S32508011cc00FF01EFEEEE030210A5DA8A1206900F005FC70B10025AAA00FF0E6FC8848C03060
S32508011ce00FF0E2FC87A00FF0DFFC0FF009FED9E001E00325D6E020780328A4D1E06A0528CA
S32508011d00A1D10522A4A1E06800F0E8FB00289AD0606B302805D9302161630021606980F8B1
S32508011d202F1030210A5D6DA1206900F0D7FBE0B100257348626B6169FAF775FA0021704A01
S32508011d40606B11544FF480524FF401216C480FF0A0FE66A00FF0A8FC69480FF0A5FC69A076
S32508011d600FF0A2FC0FF0CCFD9CE030210A5D67A1206900F0B3FBF8B1002561483030626BE8
S32508011d806169FAF750FA0021606B30305C4A11544FF480524FF4012159480FF07AFE5EA048
S32508011da00FF082FC564830300FF07EFC55A00FF07BFC0FF0A5FD75E030210A5D5BA1206982
S32508011dc000F08CFBF8B100254D486030626B6169FAF729FA0021606B6030494A11544FF428
S32508011de080524FF4012146480FF053FE52A00FF05BFC434860300FF057FC42A00FF054FCD9
S32508011e000FF07EFD4EE030210A5D50A1206900F065FBF8B100253A489030626B6169FAF7F1
S32508011e2002FA0021606B9030354A11544FF480524FF4012132480FF02CFE47A00FF034FCD4
S32508011e402F4890300FF030FC2EA00FF02DFC0FF057FD27E030210A5D44A1206900F03EFB72
S32508011e60F8B100252648C030626B6169FAF7DBF90021606BC030224A11544FF480524FF4C6
S32508011e8001211F480FF005FE3DA00FF00DFC1C48C0300FF009FC1BA00FF006FC0FF030FD83
S32508011ea000E00325012D05D13DA243A120460BF0D5F80EE0022D05D140A245A120460BF0FA
S32508011ec0CDF806E0032D04D142A247A120460BF0C5F870BD726561640000000073657269DD
S32508011ee0616C5F6E756D6265720000007B2273657269616C5F6E756D626572223A2022007B
S32508011f0070BA0020227D0D0A000000006D6C625F6E756D62657200007B226D6C625F6E7575
S32508011f206D626572223A20220000000068775F76657273696F6E00007B2268775F766572E2
S32508011f4073696F6E223A20220000000066775F76657273696F6E00007B2266775F766572B3
S32508011f6073696F6E223A202200000000646174655F6D616E756661637475726564000000FF
S32508011f807B22646174655F6D616E756661637475726564223A2022007772697465000000D0
S32508011fa0706172616D6574657273206E6F20737570706F727421000031000000696E707596
S32508011fc0742076616C7565206572726F7221000032000000696E707574206F6666736574CD
S32508011fe0206572726F722100330000007CB5054643A00FF059FB0FF083FC142010F076FC5E
S3250801200001210846FBF78AFA0446002C34D101200AF0C8FC0120811E40F6C41342A2CDE90A
S3250801202000104248018842A0FBF796FB01206421831E40A2CDE900103F4801883CA0FBF73C
S325080120408BFB01210020FBF769FA0120811E40F6C41335A2CDE900103448018837A0FBF71C
S325080120607BFB01206421831E32A2CDE900103248018832A0FBF770FB00210120FBF74EFA4C
S325080120800446002C33D10AF08DFC0120811E40F6C41325A2CDE900102448018824A0FBF72F
S325080120a05BFB01206421831E22A2CDE90010224801881FA0FBF750FB00210846FBF72EFA72
S325080120c00120811E40F6C41317A2CDE90010174801881AA0FBF740FB01206421831E15A2D8
S325080120e0CDE900101448018814A0FBF735FB14A00FF0DAFA0FF004FC142010F0F7FB7CBD6B
S325080121007B2267726F7570223A20226D657373616765222C20226974656D223A202273749F
S32508012120617274227D0D0A00766F68008C06002061303500766F6C008E0600206230350002
S325080121407B2267726F7570223A20226D657373616765222C226974656D223A2022656E642F
S32508012160227D0D0A0000000010B504462078012835D1E06A03280FD1032219A1E06800F058
S32508012180ADF960B348F2A5001649096808604FF0006008F0A7F922E0E06A0A281FD10A228F
S325080121a011A1E06800F09AF9C8B10220114908700AF0A8FE00231A4641F28831480009F0D6
S325080121c0F5FB00200C4908800C48007838B901200A4908700A49087000200A49088010BDC7
S325080121e06D637500AC060020626F6F746C6F616465720000B2060020B00600202C00002094
S32508012200280000202A00002010B504460BA00FF04BFA0FF075FB142010F068FB01200FF0F9
S3250801222081FB00200FF07EFB0EA00FF03DFA0FF067FB142010F05AFB10BD00007B2267726A
S325080122406F7570223A20226D657373616765222C20226974656D223A20227374617274226B
S325080122607D0D0A007B2267726F7570223A20226D657373616765222C226974656D223A20D3
S3250801228022656E64227D0D0A00000000F8B5044601262078022834D1E06A042878D1042256
S325080122a047A1E06800F01AF9002871D03022115D206907F0E9F9002821D03022115D2069EF
S325080122c00DF048FD0546002640F6FC718D425FD805F501200AF004FE00903BA00FF0E4F935
S325080122e028460FF0CFF93FA00FF0DEF900980FF0C9F93FA00FF0D8F90FF002FB48E0032690
S3250801230046E02078032843D1E06A052840D1052238A1E06800F0E2F8002839D03022115D26
S32508012320206907F0B1F9002831D03022115D20690DF010FD0546002640F6FC718D4227D806
S325080123403422115D606907F09FF9F0B13422115D60690DF0FFFC009005F5012201216846AF
S325080123600FF09CFD00BF25A00FF09EF928460FF089F91CA00FF098F900980FF083F91CA092
S325080123800FF092F90FF0BCFA02E0022600E00326012E05D121A227A120460AF05FFE0EE0A1
S325080123a0022E05D124A229A120460AF057FE06E0032E04D126A22BA120460AF04FFEF8BDE1
S325080123c072656164000000007B22656570726F6D223A202272656164222C226F6666736570
S325080123e074222C002C202276616C7565223A20007D0D0A0077726974650000007B226565DF
S3250801240070726F6D223A20227772697465222C226F6666736574222C00000000706172613D
S325080124206D6574657273206E6F20737570706F727421000031000000696E7075742076614A
S325080124406C7565206572726F7221000032000000696E707574206F6666736574206572724A
S325080124606F722100330000001FB5044600200390009001900290207801281FD103AB6A4685
S325080124800FA16068F9F7FCFE0398012802D10E4908700EE00398022802D10B49087008E02B
S325080124a00398032802D10849087002E00120064908700548017805A00FF094FD1FBD00000A
S325080124c0257320256400000055060020757362632D6D6F64653A25640A00000030B50346B7
S325080124e00C46002107E0585C655CA84201D0002030BD481CC1B29142F5DB0120F8E70000BC
S3250801250010B56949694803F051FB002412E06648007A6749095D88420AD1654B1A5D624B78
S325080125205968644B03EB0410FFF7D8FF00B103E0601CC4B2252CEADB00BF252C70D2DFE898
