S3250800c00098EF00209DC10008E19A010839730108B59A010811D5000815ED0108000000007B
S3250800c0200000000000000000000000000DB30108B526010800000000ADA701081BD30108F1
S3250800c040B7C10008B7C10008B7C10008B7C10008B7C10008B7C10008B7C10008B7C10008D2
S3250800c060B7C10008D1390108B7C10008B7C10008B7C10008B7C10008B7C10008B7C100081F
S3250800c080B7C10008B7C10008B7C10008B7C10008B7C10008B7C10008B7C10008B7C1000892
S3250800c0a0B7C10008B7C10008B7C10008B7C10008B7C10008E5D40108B7C10008B7C1000830
S3250800c0c0B7C10008B7C10008B7C10008B7C10008B7C10008A1E90108B7C10008B7C100083F
S3250800c0e0B7C10008B7C10008B7C10008D1D50108B7C10008B7C10008B7C10008B7C1000803
S3250800c100B7C10008B7C10008B7C10008B7C10008B7C10008B7C10008B7C10008B7C1000811
S3250800c120B7C10008B7C10008B7C10008B7C10008B7C10008B7C10008B7C10008B7C10008F1
S3250800c140B7C10008B7C10008B7C10008B7C10008B7C10008B7C10008B7C10008B7C10008D1
S3250800c160B7C10008B7C10008B7C10008B7C10008B7C10008B7C10008B7C100080000000031
S3250800c180B7C10008B7C10008DFF80CD000F0B0FC004800473500020898EF002006488047B8
S3250800c1a006480047FEE7FEE7FEE7FEE7FEE7FEE7FEE7FEE7FEE7FEE781D4010889C100083A
S3250800c1c02DE9F05F0546002092469B4688460646814640241BE0284641464746224600F0AE
S3250800c1e095FB53465A46C01A914110D311461846224600F07CFB2D1A67EB01084F462246B6
S3250800c2000120002100F073FB17EB00094E41201EA4F10104DFDC484631462A464346BDE8A0
S3250800c220F09F40EA01039B0703D009E008C9121F08C0042AFAD203E011F8013B00F8013BB5
S3250800c240521EF9D27047D2B201E000F8012B491EFBD270470022F6E710B513460A460446B3
S3250800c2601946FFF7F0FF204610BD034611F8012B00F8012B002AF9D1184670470FB400B516
S3250800c2808DB010A909900B9000914FF0FF300A9000200C9005480690054807906A4609A8E9
S3250800c2a00F9900F069FB0DB05DF814FB95C90008B3C900082DE9FF5F1D464FF0FF3BD5E95B
S3250800c2c0014691465F464FF00008A9697F1C01988847296A824688470028F6D1BAF1FF3F2F
S3250800c2e00CD024F4C064002E19DD600614D5BAF12B0F09D0BAF12D0F0ED103E0584604B0EC
S3250800c300BDE8F09F44F48064A9697F1C01988847761E8246002E02DDBAF1300F03D0B9F1DA
S3250800c320000F26D032E0A969761E44F400747F1C019888478246002E05DDBAF1780F06D0A3
S3250800c340BAF1580F03D0B9F1000F10D01EE0B9F1000F02D0B9F1100F18D1A969761E24F458
S3250800c36000747F1C019888478246102002E0082000E00A20814609E008FB0908A969761EC2
S3250800c38044F400747F1C019888478246002E05DD4946504600F0DCFA0028EDDAE969019843
S3250800c3a08847A00502D46FF00100A8E7E00725D1600613D5600502D5C8F1000000E04046B0
S3250800c3c029680A1D2A600968220501D5087015E0220701D5088011E008600FE02868011DB5
S3250800c3e029600068210502D580F8008006E0210702D5A0F8008001E0C0F8008038467EE750
S3250800c4002DE9FF5FD2E901A74FF00008916999461446DDF838B0464601988847054659EA7E
S3250800c4200B0005D009E0A169761C019888470546216A284688470028F5D1681C03D05FEA80
S3250800c440CA7005D015E04FF0FF3004B0BDE8F09F2068011D2160D0F800800AE05FEACA7098
S3250800c46001D108F8015BA169761C7F1E019888470546002F1ADD681C18D0B9F1000F0DD06C
S3250800c480E81705EBD060421120F01F0059F822102A1A012090400142E0D107E0BBF1000F9F
S3250800c4a0DCD1216A284688470028D7D0E16901988847BBF1000F07D1002E05DD5FEACA7052
S3250800c4c002D1002188F80010A068B84203DDBBF1000F03D017B16FF00100B6E73046B4E784
S3250800c4e02DE9FE4F804681EA0300C00F0C46009021F0004123F00045B8EB0200A94105D2D6
S3250800c5004046214690461C460B46024623F00040104347D0270DC7F30A00C3F30A510290F7
S3250800c520401A019040286BDAC3F3130040F4801B0098924620B10023D2EB030A63EB0B0B2B
S3250800c54001985946C0F14002504600F0D0F906460D4650465946019A00F0E8F910EB080010
S3250800c5606141002487EA115284EAE7731A4340D0009A62B3019A012A4FEA075215DC001BCB
S3250800c58061EB02014FF0004202EA0752CDE90042001C41F5801132462B4600F02AFA03B0ED
S3250800c5a0BDE8F08F40462146F9E7001B61EB0201001C41F5801300185B412018A2F5001793
S3250800c5c047EB030140EAD570B6196D4111E06D084FEA360645EAC0754FEA0752001B61EBF3
S3250800c5e00201001C41F5801149084FEA30000019514132462B4603B0BDE8F04F00F0EAB9CF
S3250800c6000098012240000023D0EB020263EBE073009821464FEAE074B8EB000061EB04010E
S3250800c620E9E783F000435BE781F0004158E72DE9FE4F81EA030404F0004421F00041009440
S3250800c6404FF0000B23F0004350EA01045ED052EA03045BD0C3F30A54C1F30A552C44A4F224
S3250800c660F3340194A0FB0254C1F3130141F48011C3F3130343F4801301FB024400FB034E4D
S3250800c680840A970A44EA815447EA8357A4FB076802958D0A05FB07854FEA932C04FB0C5430
S3250800c6a02705029D4FEA065847EA1637B5EB08056EEB070C870E920E47EA811742EA8312B4
S3250800c6c0A7FB0201B6EB0B0164EB00042B0D43EA0C335E1844EB1C50DA465146E7FB020156
S3250800c6e0C5F313044FEA0B3343EA14534FEA0432019C43EA0603A4F10C040294009CCDE983
S3250800c70000B400F076F903B0BDE8F08F00200146F9E72DE9F04D81EA030404F0004B21F0C5
S3250800c720004514464FF0000A23F0004150EA050220D054EA01021DD0C5F30A570246C5F337
S3250800c7401303C1F31300C1F30A5640F4801543F48013A7EB0608101BD64608F2FD3873EBD3
S3250800c760050002D308F1010801E092185B41B8F1000F03DA00200146BDE8F08D00204FF427
S3250800c7808011064684460EE0171B73EB050705D3121B63EB050306434CEA010C49084FEAE9
S3250800c7a0300092185B4150EA0107EDD152EA030012D082EA040083EA0501084305D0101BA6
S3250800c7c0AB4106D20122002306E000224FF0004302E06FF0010253101AEB06004CEB085175
S3250800c7e010EB0A0041EB0B01BDE8F04D00F0F2B80EB5C10F80EAE0700844CA07002140F2B5
S3250800c80033438DE80E000A460B4600F0F2F803B000BD0EB540F2334102910021CDE9001142
S3250800c8200A460B4600F0E5F803B000BD70B5C1F30A5201F000450024C1F3130140F2FF3351
S3250800c84041F480119A4201DA002070BD40F233439A42A2F2334203DC524200F057F800E0E1
S3250800c86090402C43F1D0404270BDC1F30A5210B5C1F3130140F2FF3341F480119A4201DA7D
S3250800c880002010BD40F233439A42A2F2334203DC524200F03BF810BD904010BD00F00042DE
S3250800c8a030F000400AD0C10D01F56071C0F3160042EA0151C20840071143704700200146D1
S3250800c8c0704730B50B46014600202022012409E021FA02F59D4205D303FA02F5491B04FA87
S3250800c8e002F52844151EA2F10102F1DC30BD202A04DB203A00FA02F1002070479140C2F179
S3250800c900200320FA03F3194390407047202A04DB203A21FA02F00021704721FA02F3D0406B
S3250800c920C2F120029140084319467047202A06DBCB17203A41FA02F043EAE07306E041FAAD
S3250800c94002F3D040C2F1200291400843194670473A2800D2303820F02002412A01D3A2F11D
S3250800c9603700884201D34FF0FF307047026811441378016018467047D16004495161044972
S3250800c980116200211161114600F0CAB86DC9000815CB0008426842B1016811F8013B23B175
S3250800c9a0521EC0E90012184670470121C160881E704742685AB1C368016843B983688B428C
S3250800c9c005D0491E521CC0E90012002070474FF0FF30704710B5141E73F1000408DA401C4B
S3250800c9e041F1000192185B411A4301D120F0010010BD2DE9F04D92469B4611B1B1FA81F2B7
S3250800ca0002E0B0FA80F220329046FFF770FF04460F4640EA0A0041EA0B0153465A460843EF
S3250800ca2013D0114653EA010019D0C8F140025046FFF76CFF05460E46504659464246FFF743
S3250800ca4056FF084305D0012004E020463946BDE8F08D0020054346EAE0762C4337430A98CE
S3250800ca606305E40AA0EB08000022FD0A44EA47540A3002D500200146E9E7010510196941AC
S3250800ca80DDE9084500196941BDE8F04DA2E7C1F30A52C1F3130140F2FF3341F480119A4269
S3250800caa002DA00200146704740F233439A42A2F2334202DC5242FFF729BFFFF718BF0000C4
S3250800cac030B5041E71F1000404DB4FF00044404264EB0101141E73F1000405DB1C464FF08B
S3250800cae00043524263EB0403994208BF904230BD064C074D06E0E06840F0010394E8070010
S3250800cb0098471034AC42F6D3FFF742FBE0DA020800DB0208C0B24FF4F05100F097B900001B
S3250800cb202DE9F34F8BB04FF0000801F10C000C464FF0010B46460DF1080A01906269012158
S3250800cb4001989047051E2DD0252D2CD0216A8847C0B16269012101989047216A884700283F
S3250800cb60F7D1411E62690198904700E0761CA1690B988847216A88470028F7D1E1690B9820
S3250800cb808847DBE7A1690B9888470746A84201D1761CD3E7E1690B9888477F1C02D1B8F152
S3250800cba0000F6FD046E1002762693D463946019890472A2804D162690121019890470125E4
S3250800cbc0DFF884926269012101989047A0F130010A290AD24F45E5DC07EB870100EB41072A
S3250800cbe0303FDFD445F01005ECE7E90601D46FF000476C280AD04C2814D0682815D06A28B1
S3250800cc000DD074281CD07A281AD01DE062690121019890476C2802D045F0040514E045F0EE
S3250800cc2002050DE045F020050AE06269012101989047682802D045F0080505E045F400652A
S3250800cc406269012101989047C4E9015765283DD019DC58287AD00CDC452837D004DC252882
S3250800cc6026D0412831D131E046282FD047282CD12CE05B2877D0612828D063287CD06428A1
S3250800cc8023D15AE0D0E06F2848D008DC66281DD067281BD0692821D06E2816D127E0702882
S3250800cca045D0732868D0752847D078280DD14DE0A1690B988847054625283FF469AFE16976
S3250800ccc00B9888476D1C3FF46AAFB3E023466A466FF001000B99AFF300809EE045F040003A
S3250800cce06060A80723464FF0000236D43EE0E8077FF447AF2068011D21600068290501D5FA
S3250800cd0006701BE7290701D5068017E7A90703D5F117C0E9006111E706600FE745F04000A0
S3250800cd206060A80723464FF0080216D41EE040F60E0125EA0100606016E045F0400060609C
S3250800cd40A80723464FF00A0207D40FE045F040006060A80708D5234610226FF001000B9938
S3250800cd60AFF3008059E007E0234610226FF001000B99FFF79FFA50E04FF000094F464B4697
S3250800cd80632802D05B2806D040E0E80601D40120A06001273AE062690121019890475E28A6
S3250800cda005D14FF001096269494601989047216939B900210A46534643F82120491C0829E4
S3250800cdc0FADBB0B3216969B9C11700EBD16253110AEB830122F01F02821A01200B6890405B
S3250800cde003430B6062690121019890475D28E8D1B9F1000F09D00020514651F82020D243F2
S3250800ce0041F82020401C0828F7DB02AB224600976FF001000B99FFF7F3FA00280CDA401C30
S3250800ce2008D1BBF1000F05D04FF0FF300DB0BDE8F08FFFE74046F9E7E90701D108F101081C
S3250800ce4006444FF0000B79E6CCCCCC0C7F2801D9002208E0064A02EB5002C007127800D125
S3250800ce60120902F00F0201209040084070470000C8D7020870B58C1810F8015B15F00703B1
S3250800ce8001D110F8013B2A1106D110F8012B03E010F8016B01F8016B5B1EF9D12B0705D41E
S3250800cea00023521E0DD401F8013BFAE710F8013BCB1A921C03E013F8015B01F8015B521EF4
S3250800cec0F9D5A142D8D3002070BD01460888B0F5004F07DB0888401E4FF6FF72101A088098
S3250800cee0012070470020FCE754494A6822F440324A604A6843681A434A600268526822F42A
S3250800cf00807203685A6002685368026943EA022203685A600268526822F0407203685A60D9
S3250800cf200268526883681A4303685A600268926822F4006203689A6002689268C3681A4325
S3250800cf4003689A603E4B826A9A4218D00268926822F0706203689A6002689268836A1A43CA
S3250800cf6003689A600268926822F0405203689A6002689268C36A1A4303689A600BE0026829
S3250800cf80926822F0706203689A600268926822F0405203689A600268926822F002020368EE
S3250800cfa09A6002689368826943EA420203689A60026AA2B10268526842F4006203685A60A3
S3250800cfc00268526822F4604203685A6002685368426A521E43EA423203685A6005E00268EC
S3250800cfe0526822F4006203685A600268D26A22F470020368DA620268D36A828B521E43EAA6
S3250800d00002520368DA620268926822F4007203689A6002689368026B43EA422203689A60EE
S3250800d0200268926822F4806203689A6002689368426943EA822203689A60704700230140C0
S3250800d0400100000F2DE9FE4F05460E46174699460024072E02DD0020BDE8FE8F802000EB5F
S3250800d060061000F0FF0A8DF808A0E3208DF809000220009002AB012249461046D5F808C0D9
S3250800d080E0478046B8F1000F01D10020E4E7082012F044FE4B480078012821D100241CE06E
S3250800d0a0022012F03BFE00208DF808008DF809000220009002AB002249460120D5F804C008
S3250800d0c0E04780469DF809009DF8081040EA01203D4921F81400601C84B2642CE0DB6FE0C0
S3250800d0e03848007802282DD1002426E0022012F015FE00208DF808008DF8090002200090B4
S3250800d10002AB002249460120D5F804C0E04780469DF809009DF8081040EA0120019001A834
S3250800d120FFF7D3FE0CB9BDF804B0BDF80400584501DDBDF804B0601C84B20A2CD6DBA7F817
S3250800d14000B03DE01F480078032823D100241CE0022012F0E3FD00208DF808008DF8090097
S3250800d1600220009002AB002249460120D5F804C0E04780469DF809009DF8081040EA01205C
S3250800d180124921F81400601C84B2114800888442DEDB15E000208DF808008DF80900022095
S3250800d1a0009002AB002249460120D5F804C0E04780469DF809009DF8081040EA0120388086
S3250800d1c0404649E7F20000207C12002044130020F40000202DE9FE4F04460D461746984605
S3250800d1e04FF0000A00200190072D01DDBDE8FE8F802000EB051000F0FF098DF80890E3202B
S3250800d2008DF809000220009002AB012241461046D4F808C0E04706460EB90020E6E74FF019
S3250800d220000A1EE0032012F079FD00208DF808008DF809000220009002AB002241460120D9
S3250800d240D4F804C0E04706469DF809009DF8081040EA012B0198584401900AF1010000F06A
S3250800d260FF0ABAF1100FDDDB0198C0F30F1038803046BBE72DE9FC4704460D4617469846A9
S3250800d280072D02DD0020BDE8FC87802000EB051000F0FF098DF80490E3208DF805000220C5
S3250800d2a0009001AB012241461046D4F808C0E04706460EB90020E6E7052012F02FFD0220F4
S3250800d2c0009001AB002241460120D4F804C0E04706469DF805009DF8041040EA01203880F1
S3250800d2e03046D0E710B500224FF40041224808F07DF900224FF480411F4808F077F9002299
S3250800d3004FF480511C4808F071F912F001FD01221103194808F06AF912F0FAFC00224FF4D5
S3250800d3208051154808F062F900224FF40041124808F05CF90122D1030F4808F057F9002259
S3250800d3404FF400410C4808F051F900224FF48041094808F04BF901229103074808F046F9B5
S3250800d36000224FF48041044808F040F900220821024808F03BF910BD0004024000000240E6
S3250800d38070B52DED048B04460E469FED420BB0EE408AF0EE608A9FED410B53EC102B51EC7B
S3250800d3a0180BFFF7B6F941EC180B2046FFF731FA41EC190B53EC182BFFF739F941EC180B75
S3250800d3c051EC180BFFF751FA0446002522E004F0010028B101225103324808F007F905E091
S3250800d3e000224FF400512F4808F000F9640800BF00BF0122D1032B4808F0F8F812F088FC3F
S3250800d40000224FF40041274808F0F0F812F080FC681CC5B2202DDADB0EB1002400E00424A3
S3250800d420002522E004F0010028B1012251031D4808F0DCF805E000224FF40051194808F04D
S3250800d440D5F8640800BF00BF0122D103154808F0CDF812F05DFC00224FF40041114808F0A4
S3250800d460C5F812F055FC681CC5B2082DDADB012291030C4808F0BAF812F04AFC00224FF447
S3250800d4808041084808F0B2F812F042FCBDEC048B70BD0000000000101111A1410000000012
S3250800d4a080842E410004024010B500224FF44071044808F09BF800220421034808F096F8DB
S3250800d4c010BD0000000402400008024010B501224FF44071044808F089F8012204210348AD
S3250800d4e008F084F810BD0000000402400008024010B5044624B10548C1680120884703E020
S3250800d5000248C1680020884710BD00004406002000BFFEE72DE9F04F2DED028B83B08246C9
S3250800d5200F46002405E000207C4921F81400601C84B2642CF7DB002138460AF099F830B946
S3250800d540012F01D1764D08E03FB9764D05E0012003B0BDEC028BBDE8F08F02200290002668
S3250800d5604EE006EB46007049085C182190FBF1F201FB120000F0FF0806EB46006A49084439
S3250800d5804078182190FBF1F201FB120000F0FF0966490868804715F8091015F80800634A4A
S3250800d5a053683A46984715F8091015F808005F4A93683A4698475D48C16801208847002027
S3250800d5c00DF06EFBB0EE408A5848C1680020884756490868804706EB4600534908448078CA
S3250800d5e0534951F820B000EE10BAB8EE400AB4EEC08AF1EE10FA01DB0220A9E7701C86B299
S3250800d60002988642ADDB0AEB4A004A49085C182190FBF1F201FB120000F0FF080AEB4A00F1
S3250800d620444908444078182190FBF1F201FB120000F0FF093D490868804715F8091015F8AE
S3250800d64008003A4A53683A46984715F8091015F80800364A93683A46984700224FF48071AB
S3250800d660354807F0C3FF01225102334807F0BEFF01220421314807F0B9FF0120304908703F
S3250800d680902301AA03212F48FFF7DCFC002436E0224901EB4400FFF718FC204931F8141020
S3250800d6a001EB4101C802C11700EB5141C9131B4A22F814104CB9104630F814002249088006
S3250800d6c0104630F8140021490880144830F814001D490988884204DD104830F814001A4987
S3250800d6e008800E4830F8140018490988884204DA0A4830F8140015490880601C84B2642CB2
S3250800d700C6DB00200E4908700848C1680020884706490868804700201AE700007C120020AE
S3250800d720165C00202E5C002094D60208440600206CD602089AD6020800040240000802406B
S3250800d740F2000020E8050020780600207A0600202DE9F04387B080460C4691461D46DDE9C6
S3250800d7600E76681CD0B9BC420CDA2EB126A228A1284811F04BFE11E027A225A1254811F00E
S3250800d78045FE0BE02EB126A221A1224811F03EFE04E025A21EA11F4811F038FE781CD0B918
S3250800d7a0AC420CDD2EB118A219A11A4811F02EFE11E01FA216A1174811F028FE0BE02EB1E9
S3250800d7c017A213A1134811F021FE04E016A210A1104811F01BFE0F4817A3184A1849CDE90A
S3250800d7e00295CDE90084CDE90470164811F00EFE144811F099F911F0C3FA1E2012F08EFA40
S3250800d80007B0BDE8F0830000706173730000000025730000E900002053686F7274000000C3
S3250800d8206661696C0000000050617373000000004F70656E00000000676E6400E1000020DB
S3250800d8402CD902081C5B00200146174890ED002AB8EE422AF2EE042A22EE222A62EE012AD0
S3250800d86082EEA12ADFED112A82EE223A81ED003AD1ED002A9FED0E3A9FED0E2A12EE832AB7
S3250800d88081ED002A91ED002AB5EEC02AF1EE10FA03DD0020044A106070479FED072A81ED24
S3250800d8a0002A0120F8E70000F800002000007A4448E17A3FEC5102420000000000B587B00B
S3250800d8c000BF002001901048006840F002000E4908600846006800F00200019000BF00BF62
S3250800d8e008200290094803900120049002A9084807F074FD00221146092007F034FF09206F
S3250800d90007F016FF07B000BD30380240000031100004024010B52DED028BB0EE408A0CF078
S3250800d9203BFF00224FF40051144807F05FFE642012F0F4F99FED120AB4EE408AF1EE10FAC9
S3250800d94003D104200CF0ACF814E09FED0E0AB4EE408AF1EE10FA03D105200CF0A1F809E0BD
S3250800d9609FED090AB4EE408AF1EE10FA02D106200CF096F8BDEC028B10BD000000080240D5
S3250800d98000409C450000FA4300006C420149087070470000FD0000202DE9F0412DED048BE7
S3250800d9a00446B0EE408AF0EE608AB0EE419AF0EE619A0D4616464FF00008092007F0B8FEC1
S3250800d9c004F0010020B1012220213B4807F00EFE04F0020020B101220421374807F006FE00
S3250800d9e00A2012F09BF904F0010020B100222021314807F0FBFD04F0020020B100220421BA
S3250800da002D4807F0F3FD00202C4908702C490860084607682B4809F0DFF8294800682A4966
S3250800da200860C82004F054FE092007F08FFE1EE023480068C01B6421B0FBF1F81F480078F1
S3250800da40012814D100F048F82846F0EE691AB0EE491AF0EE680AB0EE480AFFF7F5FE20B9A8
S3250800da600420BDEC048BBDE8F0810720F9E7B045DED31348006815490860124809F0BBF8EA
S3250800da8002210D4807F0AAFD01280DD101210A4807F0A4FD012807D19FED0D0A85ED000A2F
S3250800daa000F01AF80620DCE79FED0A0A85ED000A00F012F80520D4E700100240FC00002009
S3250800dac030000020500700200001002004010020000000007F96184B10B5092007F028FEA8
S3250800dae010BD002165E090F82E208A4200D181722F22125C8A4200D141723022125C8A42E4
S3250800db0000D101723122125C8A4200D1C1713222125C8A4200D181713322125C8A4200D172
S3250800db2041713422125C8A4200D101713522125C8A4200D1C1703622125C8A4200D181706B
S3250800db403722125C8A4200D141703822125C8A4200D141733922125C8A4200D181733A22D3
S3250800db60125C8A4200D1C1733B22125C8A4200D101743C22125C8A4200D141743D22125C90
S3250800db808A4200D181743E22125C8A4200D1C1743F22125C8A4200D101754022125C8A42C7
S3250800dba000D141754122125C8A4200D181754A1CD1B2032997DB0021A9E0027E8A4203D11B
S3250800dbc0827A42EA01128272427E8A4203D1427A42EA01124272827E8A4203D1027A42EAB1
S3250800dbe001120272C27E8A4203D1C27942EA0112C271027F8A4203D1827942EA01128271B5
S3250800dc00427F8A4203D1427942EA01124271827F8A4203D1027942EA01120271C27F8A420D
S3250800dc2003D1C27842EA0112C2702022125C8A4203D1827842EA011282702122125C8A425F
S3250800dc4003D1427842EA011242702222125C8A4203D1027842EA011202702322125C8A423B
S3250800dc6003D1027B42EA011202732422125C8A4203D1427B42EA011242732522125C8A420B
S3250800dc8003D1827B42EA011282732622125C8A4203D1C27B42EA0112C2732722125C8A42E7
S3250800dca003D1027C42EA011202742822125C8A4203D1427C42EA011242742922125C8A42BF
S3250800dcc003D1827C42EA011282742A22125C8A4203D1C27C42EA0112C2742B22125C8A429B
S3250800dce003D1027D42EA011202752C22125C8A4203D1427D42EA011242752D22125C8A4273
S3250800dd0003D1827D42EA011282754A1CD1B20329FFF653AF7047000010B5044684B33F485C
S3250800dd200088C82879DD00203C4908803C4806F0F7F93C49088004213B4807F04FFCC8B100
S3250800dd4038480088B0F57A6F0EDB38480078401C36490870084600781E285EDB002008700E
S3250800dd6001203349087058E00020304908703049087052E000202D4908702D4908704CE0EC
S3250800dd80FFE72CE0052011F0C9FF254806F0C8F9244908800421244807F020FCC8B12148F6
S3250800dda00088B0F57A6F0EDB20480078401C1F490870084600781E2811DB00200870012089
S3250800ddc01B4908700CE00020184908701849087006E00020154908701549087000E0D1E751
S3250800dde000BF0221104807F0F9FBB0B10D48008840F6B831884210DD0A48008806F07AF999
S3250800de000A280ADA04F0F4FF642011F087FF0CF0F9FD4FF47A7011F081FF10BD1C00002043
S3250800de20580000200600002000000240360000200400002010B50446606811F097FF2046A6
S3250800de4011F094FF10BD000038B54FF0AA300090862011F073F8002404E0FF200E490855D0
S3250800de60601C84B2B4F5805FF7DB00200B49088009490870094A128802F50621064A074B15
S3250800de801B88D018012211F0F9F8054A0121684611F008FA38BD0000E0C800208A06002045
S3250800dea080120800002005490870054908600549086001200449087070470000F8050020AE
S3250800dec000060020FC0500200406002010B50446FFF7BAFF02A010F027FE10F051FF10BD21
S3250800dee06C6F6767657220697320636C65617265640A000070B5044601252078012844D133
S3250800df0094F82C0002280BD1022232A1E06803F0DFFB002839D001202F490870002534E0AE
S3250800df2094F82C0003280AD103222CA1E06803F0CFFB50B3002028490870002525E094F85C
S3250800df402C00042815D1042225A1E06803F0C0FB20B1022024490870022516E0042223A1B4
S3250800df60E06803F0B5FB80B103201F49087003250BE094F82C00052807D105221DA1E06877
S3250800df8003F0A6FB08B107F041FC6DB912480078012803D119A010F0C7FD02E01CA010F0E2
S3250800dfa0C3FD10F0EDFE14E0022D05D11EA010F0BBFD10F0E5FE0CE0032D05D11FA010F0A5
S3250800dfc0B3FD10F0DDFE04E021A227A120460CF0BBFE70BD6F6E0000600000206F66660059
S3250800dfe06B65793100000000F80500206B6579320000000072657365740000007B22646578
S3250800e000627567223A202274727565227D0D0A007B226465627567223A202266616C736553
S3250800e020227D0D0A000000007B226465627567223A20226B657931227D0D0A007B22646544
S3250800e040627567223A20226B657932227D0D0A00706172616D6574657273206E6F2073756C
S3250800e06070706F7274210000320000002DE9F04104460025A84600272078022802D14FF06B
S3250800e080100800E00125002D47D194F82C0004285AD1042269A1E06803F01AFB002830D058
S3250800e0a0B8F1100F2DD12D210A5D66A1206903F00FFB70B100BF64A010F036FD10F060FED5
S3250800e0c0142011F02BFE01210020FFF723FA064618E02D210A5D61A1206903F0F9FA70B1F4
S3250800e0e000255FA010F020FD10F04AFE142011F015FE01210846FFF70DFA064602E003257E
S3250800e10000E00225002D7ED146B15AA010F00CFD10F036FE142011F001FE74E0002710E0A1
S3250800e120594830F8172059A1594811F06FF9584810F0FAFC10F024FE0A2011F0EFFD781C6A
S3250800e14087B2642FECDB5EE094F82C00052859D1052250A1E06803F0BBFA002850D0B8F1D8
S3250800e160100F4DD12D210A5D36A1206903F0B0FA70B1002549A010F0D7FC10F001FE14206D
S3250800e18011F0CCFD00210846FFF7C4F9064616E02D210A5D31A1206903F09AFA70B1002566
S3250800e1a043A010F0C1FC10F0EBFD142011F0B6FD00210120FFF7AEF9064600E0032505BBEE
S3250800e1c046B140A010F0B0FC10F0DAFD142011F0A5FD18E0002710E02B4830F817202BA153
S3250800e1e02B4811F013F92A4810F09EFC10F0C8FD0A2011F093FD781C87B2642FECDB02E0FC
S3250800e200022500E00225B5B1012D05D132A238A120460CF099FD0EE0022D05D135A23AA10E
S3250800e22020460CF091FD06E0032D04D137A23CA120460CF089FDBDE8F08100006C65667496
S3250800e2400000000062303500636370696E206C656674206230353A0A000000006130350020
S3250800e260636370696E206C656674206130353A0A000000006C656674206E6F20636F6E6E18
S3250800e280656374210A0000007C12002025640A001C5B002072696768740000006363706974
S3250800e2a06E207269676874206230353A0A000000636370696E207269676874206130353A0E
S3250800e2c00A0000007269676874206E6F20636F6E6E656374210A0000706172616D65746587
S3250800e2e07273206E6F20737570706F727421000031000000636370696E20706F7274206528
S3250800e30072726F722100000032000000636370696E2070696E206572726F722100000000F8
S3250800e320330000002DE9F04F2DED028B8BB080464FF00109002400200790089009900A90B0
S3250800e3400690059004909FED6A0A8DED030A82468346002598F8000003287BD104A805A952
S3250800e360CDE9001006AB07AA62A1D8F80400FDF785FF9DF818006C2838D14FF0010A4FF045
S3250800e380010B5F4D00BF14E004EB44005D4A02EBC001032205A803F09BF940B15A48005D33
S3250800e3a0182190FBF1F201FB1200C6B203E0601CC4B2142CE8DB00BF002414E004EB440040
S3250800e3c0504A02EBC001032204A803F081F940B14D48005D182190FBF1F201FB1200C7B298
S3250800e3e003E0601CC4B2142CE8DB39E04FF0000A4FF0020B454D002414E004EB4400414A21
S3250800e40002EBC001032205A803F062F940B14048005D182190FBF1F201FB1200C6B203E03A
S3250800e420601CC4B2142CE8DB00BF002415E004EB4400344A02EBC001032204A803F048F99D
S3250800e44048B13348005D182190FBF1F201FB1200C7B204E02DE0601CC4B2142CE7DB00BF0B
S3250800e460A95DE85D2B4A536852469847A95DE85D284A9368524698474FF4967203A9F6EE92
S3250800e480001A9FED251ADFED1A0A9FED190A5846FFF782FA0398FEF701FA41EC180B8DED85
S3250800e4a0008B04AB05AA06A91CA010F09FFF4FF00009B9F1010F05D11EA224A140460CF07D
S3250800e4c043FC10E0B9F1020F05D121A227A140460CF03AFC07E0B9F1030F04D124A229A123
S3250800e4e040460CF031FC0BB0BDEC028BBDE8F08F000000002573202573202573202573008A
S3250800e500165C0020685F0020540602082E5C0020680602084406002000006C4225733A25DF
S3250800e520732D25732C636170203D20252E33666E460A0000706172616D6574657273206E4C
S3250800e5406F20737570706F727421000031000000696E7075742076616C7565206D6F72656F
S3250800e560207468656E2031303021000032000000696E7075742076616C7565206572726F75
S3250800e580722100003300000070B50446207828B10AA20FA120460CF0D7FB70BD0D480CF0B9
S3250800e5a015FB05462A460CA1114810F02FFF104810F0BAFA10F0E4FB00BFEEE7706172612B
S3250800e5c06D65746572206572726F72210000000030000000401208007B224765746368652E
S3250800e5e0636B73756D223A20222575227D0A0000481000202DE9F84304460026B0460027B3
S3250800e6002078022802D14FF0100800E00126002E77D194F82C00042874D104229CA1E068AF
S3250800e62003F056F8002860D0B8F1100F5DD12D210A5D99A1206903F04BF878B100BF97A070
S3250800e64010F072FA10F09CFB142011F067FB6A460121002003F040FC054647E02D210A5DCA
S3250800e66093A1206903F034F878B1002691A010F05BFA10F085FB142011F050FB6A46012109
S3250800e680084603F029FC054630E02D210A5D8EA1206903F01DF878B100268CA010F044FA7D
S3250800e6a010F06EFB142011F039FB6A460121022003F012FC054619E02D210A5D88A12069DA
S3250800e6c003F006F878B1002686A010F02DFA10F057FB142011F022FB6A460121032003F013
S3250800e6e0FBFB054602E0032600E00226002E8FD14DB181A010F018FA10F042FB142011F087
S3250800e7000DFBABE017E0002710E0804830F817207FA1804810F07AFE7E4810F005FA10F0FE
S3250800e7202FFB0A2011F0FAFA781C87B27A4800888742EADB92E094F82C00052871D105221D
S3250800e74076A1E06802F0C4FF00286BD0B8F1100F68D12D210A5D50A1206902F0B9FF78B131
S3250800e760002670A010F0E0F910F00AFB142011F0D5FA6A460021084603F0AEFB054645E048
S3250800e7802D210A5D4AA1206902F0A2FF78B1002669A010F0C9F910F0F3FA142011F0BEFABB
S3250800e7a06A460021012003F097FB05462EE02D210A5D45A1206902F08BFF78B1002663A089
S3250800e7c010F0B2F910F0DCFA142011F0A7FA6A460021022003F080FB054617E02D210A5D7C
S3250800e7e03FA1206902F074FF78B100265CA010F09BF910F0C5FA142011F090FA6A4600210F
S3250800e800032003F069FB054600E0032616BB55B158A010F089F910F0B3FA142011F07EFA71
S3250800e8201CE01AE017E0002710E0384830F8172037A1384810F0EAFD364810F075F910F0BC
S3250800e8409FFA0A2011F06AFA781C87B2324800888742EADB02E0022600E00226B6B1012E7D
S3250800e86005D149A24EA120460CF06EFA0EE0022E05D14CA250A120460CF066FA06E0032E64
S3250800e88004D14EA252A120460CF05EFABDE8F8836C656674000000006130340063637069C9
S3250800e8a06E206C656674206130343A0A0000000061303900636370696E206C6566742061C5
S3250800e8c030393A0A0000000062303400636370696E206C656674206230343A0A00000000B5
S3250800e8e062303900636370696E206C656674206230393A0A000000006C656674206E6F2070
S3250800e900636F6E6E656374210A0000004413002025640A001C5B0020F40000207269676875
S3250800e92074000000636370696E207269676874206130343A0A000000636370696E207269D9
S3250800e940676874206130393A0A000000636370696E207269676874206230343A0A000000C3
S3250800e960636370696E207269676874206230393A0A0000007269676874206E6F20636F6E94
S3250800e9806E656374210A0000706172616D6574657273206E6F20737570706F727421000005
S3250800e9a031000000636370696E20706F7274206572726F72210000003200000063637069EA
S3250800e9c06E2070696E206572726F722100000000330000002DE9F041044600260027207840
S3250800e9e0012801D1102700E00126B6B9102F14D194F82C10E06809F093F868B1002694F8DE
S3250800ea002C10E0680EF000FC0546642D00D96425E8B20CF075F800E0022676B1012E05D1F5
S3250800ea2007A20DA120460CF08FF906E0022E04D10AA20FA120460CF087F9BDE8F081000048
S3250800ea40706172616D6574657273206E6F20737570706F727421000031000000696E70752C
S3250800ea60742076616C7565206572726F722100003200000010B58CB00446002206A91448C2
S3250800ea8007F0B2FB00220BA9114807F087FB9DF81A009DF819109DF818209DF82C30CDE93B
S3250800eaa00132CDE903109DF82E0000909DF82D309DF82F0000F5FA6206A10E4810F0A6FC53
S3250800eac00C4810F031F810F05BF90CB010BD00008C07002025642F253032642F253032645E
S3250800eae02D25642D253032643A253032643A253032640A00481000202DE9F0418CB006469F
S3250800eb000024D6F80C8096F82C703078012809D1032F24D13A469EA1404602F0D9FDF0B1BF
S3250800eb2001241CE03078022811D1032F17D13A4698A1404602F0CCFD08B102240FE03A4690
S3250800eb4095A1404602F0C4FD48B1042407E093A297A130460CF0F8F80CB0BDE8F0812CB9AA
S3250800eb608EA294A130460CF0EFF8F5E7012C7DD191480CF02BF8054605F0010010B18F48A1
S3250800eb80059002E08D48001D059005F0020010B18A48069002E08948001D069005F00400EA
S3250800eba010B18648079002E08448001D079005F0200010B18148099002E08048001D099027
S3250800ebc005F0400010B17D480A9002E07B48001D0A9005F0800010B178480B9002E0774844
S3250800ebe0001D0B9005F0180098B97448001D0890DDE90823DDE90A10CDE90123CDE903100C
S3250800ec00079800906E496F48DDE9052310F0FEFB28E005F01800102812D168480890DDE924
S3250800ec200823DDE90A10CDE90123CDE903100798009065496348DDE9052310F0E7FB11E0CF
S3250800ec405E480890DDE90813DDE90A02CDE90113CDE90302079800905C495A48DDE90523CC
S3250800ec6010F0D4FB57480FF05FFF00E002E010F087F871E7D6F810802D20875D032F23D16D
S3250800ec803A4653A1404602F023FD10B144F0100438E03A464FA1404602F01AFD10B144F045
S3250800eca020042FE03A464CA1404602F011FD10B144F4807426E03A4648A1404602F008FD47
S3250800ecc000B344F400741DE0042F11D13A4644A1404602F0FDFC10B144F0400412E03A4634
S3250800ece041A1404602F0F4FC60B144F4806409E0022F07D13A463EA1404602F0E9FC08B128
S3250800ed0044F08004102C05DA24A23AA130460CF01BF821E7442C28D00CDC222C19D004DC7D
S3250800ed20122C13D0142C2FD119E0242C1AD0422C2AD111E0842C1BD0B4F5827F1BD0B4F5FE
S3250800ed40017F1BD0A4F20440F0B91AE00BF03CF81AE00BF083F917E00BF0E6FB14E00BF05B
S3250800ed60C9F811E00BF040FA0EE00BF0A3FC0BE00BF0A2FA08E00BF007FB05E00BF06CFB68
S3250800ed8002E00BF003F900BF00BF00BFE4E600006772700069746D006C696D00706172610C
S3250800eda06D65746572206572726F722100000000300000003100000010120800D900002039
S3250800edc0C8D802084810002068D8020808D8020861646A00676E6400766F6800766F6C00C9
S3250800ede076627573000000006464733200000000545200003200000030B52DED048B89B039
S3250800ee00044633A0006808900020079006900390049005909FED2F0AB0EE408A20780328CE
S3250800ee2052D106A807A9CDE9001008AB03AA2AA16068FDF723FA2B49086880479DF8200019
S3250800ee406C2801D1012000E00020024625489DF8181043689DF81C0098479DF820006C2827
S3250800ee6001D1012000E0002002461E489DF8181083689DF81C0098471A48C1680120884730
S3250800ee801848016900208847B0EE408A1548C168002088479FED140AC8EE000A10EE905A7C
S3250800eea02846FDF7FBFC41EC190B8DED009B9DF818309DF81C200DA1114810F0A7FA1048D7
S3250800eec00FF032FE0FF05CFF09B0BDEC048B30BD6C00000000000000257320257320256458
S3250800eee0202564004406002000007A4425642C09256409523D092566206B4F686D0A000007
S3250800ef004810002070B58CB0044601250020089009900A900B900790069005900490002698
S3250800ef202078042828D104A805A906AACDE90021029007AB08AA1DA16068FDF79FF99DF888
S3250800ef401C006C2801D1012000E0002002469DF810309DF814109DF8180003F0C7FB06467C
S3250800ef6016A00FF0E1FD30460FF0CCFD1AA00FF0DBFD0FF005FF0025012D05D118A21EA17C
S3250800ef8020460BF0E1FE0EE0022D05D11BA222A120460BF0D9FE06E0032D04D11FA224A107
S3250800efa020460BF0D1FE0CB070BD0000257320257320256420256420256400007B22446995
S3250800efc06F64652056647270223A202276616C7565223A2000000000206D567D0D0A000081
S3250800efe0706172616D6574657273206E6F20737570706F727421000031000000696E707587
S3250800f000742076616C7565206D6F7265207468656E2031303021000032000000696E7075CF
S3250800f020742076616C7565206572726F722100003300000070B504460125207800B9002568
S3250800f0405DB909A00FF070FD08480FF06DFD08A00FF06AFD0FF094FE04E006A20BA1204681
S3250800f0600BF072FE70BD00007B000000000002087D0D0A00706172616D6574657273206E0F
S3250800f0806F20737570706F72742100003200000070B5044601262078012827D194F82C104C
S3250800f0a0E06808F03DFD00B394F82C10E0680EF0ABF80546B5F1006F15D31848854212D211
S3250800f0c0002617A00FF030FDE0680FF02DFD17A00FF02AFD0FF054FE052010F01FFE2846CA
S3250800f0e009F0F6FA02E0032600E00226012E05D110A216A120460BF027FE0EE0022E05D11E
S3250800f10013A212A120460BF01FFE06E0032E04D115A20EA120460BF017FE70BD00000208FC
S3250800f1207B226A6D70223A2022000000227D0D0A00000000706172616D6574657273206EC7
S3250800f1406F20737570706F727421000032000000706172616D657465727320696E7075741E
S3250800f160206572726F72210061646472657373206D757374206772656174657220746861E0
S3250800f1806E20307838303030303030210000000070B5044601252078012815D194F82C10AE
S3250800f1a0E0680EF031F8C6B216B113490868804712A00FF0B9FC30460FF0A4FC15A00FF0D1
S3250800f1c0B3FC0FF0DDFD0025012D05D112A218A120460BF0B9FD0EE0022D05D115A21CA185
S3250800f1e020460BF0B1FD06E0032D04D119A21EA120460BF0A9FD70BD440600207B22416DA4
S3250800f200757820496E6974223A202276616C7565223A20007D0D0A00706172616D65746525
S3250800f2207273206E6F20737570706F727421000031000000696E7075742076616C756520C2
S3250800f2406D6F7265207468656E2031303021000032000000696E7075742076616C7565208D
S3250800f2606572726F722100003300000030B58BB0044600250020089009900A90079006905B
S3250800f2800590049001252078042825D104A805A906AACDE90021029007AB08AA12A1606805
S3250800f2a0FCF7ECFFDDE90410CDE900019DF818309DF81C201049114810F0A8F800250F4855
S3250800f2c00FF032FC15B90FF05BFD0AE00CA212A120460BF039FD04E009A210A120460BF04B
S3250800f2e033FD0BB030BD000025732025642025642025642025640000A4D9020848100020ED
S3250800f300706172616D6574657273206E6F20737570706F72742100003100000032000000ED
S3250800f3201FB50446002000900190029003902078A8B96A460DA16068FCF7A0FF0EF0F7FA9B
S3250800f3400B49086880479FED0B0AFEF7E3FA0848C1680120884708A010F048F804E00AA2C0
S3250800f3600EA120460BF0F0FC1FBD0000257300004406002000006C425365744361704375FF
S3250800f38072206F6B210A0000696E7075742076616C7565206572726F7221000030000000C0
S3250800f3a038B504462078012805D016A21AA120460BF0CAFC38BD94F82C10E06808F0B0FB30
S3250800f3c028B910A215A120460BF0BEFCF2E794F82C10E0680DF018FF0090114A0121684603
S3250800f3e00FF060FF0E480BF0F1FB05462A460DA1124810F00BF811480FF096FB0FF0C0FCFA
S3250800f40000BFD7E7706172616D65746572206572726F7221000000003000000031000000D4
S3250800f420401208007B22536574636865636B73756D223A20222575227D0A000048100020EF
S3250800f440F8B50446002500262078012801D1102605E02078032801D1202600E0012505BB0D
S3250800f46094F82C0003280DD1032275A1E06802F02FF928B1202E03D1002546F0010614E0CF
S3250800f480022512E094F82C0007280DD107226DA1E06802F01DF928B1102E03D1002546F0B3
S3250800f4a0020602E0022500E00225002D78D1122E7DD0212E76D12D210A5D64A1206902F058
S3250800f4c007F9F8B12E22115D606908F029FBB8B100BF2E22115D60690DF096FE00905E4A5A
S3250800f4e0012168460FF0DEFE5C485DA1426962480FF08CFF60480FF017FB0FF041FC55E0A8
S3250800f500042553E02D210A5D5CA1206902F0E0F800B32E22115D606908F002FBC0B10025B7
S3250800f5202E22115D60690DF06FFE00904A4A1032012168460FF0B6FE484851A142694E4820
S3250800f5400FF064FF4C480FF0EFFA0FF019FC2DE004252BE02D210A5D4DA1206902F0B8F89C
S3250800f56018B32E22115D606908F0DAFAD8B100252E22115D60690DF047FE0090364A203286
S3250800f580012168460FF08EFE344843A142693A480FF03CFF38480FF0C7FA0FF0F1FB05E02B
S3250800f5a02CE004E029E0042500E0032525E02A480BF00CFB00903DA00FF0B6FA00980FF0E7
S3250800f5c0A1FA3EA00FF0B0FA234810300BF0FEFA009000980FF096FA3BA00FF0A5FA1E48C7
S3250800f5e020300BF0F3FA009000980FF08BFA2DA00FF09AFA0FF0C4FB00BF00BFF5B1012DA9
S3250800f60005D135A23AA120460BF09EFB16E0022D05D138A23BA120460BF096FB0EE0032D99
S3250800f62005D139A23CA120460BF08EFB06E0042D04D13AA23EA120460BF086FBF8BD000006
S3250800f6407365740072656164636667006672657175656E63790000005012080048120020CE
S3250800f6607B226672657175656E6379223A20222573227D0D0A000000481000207067610071
S3250800f6807B22706761223A20222573227D0D0A0062756666000000007B2262756666223A5C
S3250800f6a020222573227D0D0A000000007B226672657175656E6379223A202200222C20220F
S3250800f6c0706761223A202200222C202262756666223A202200000000706172616D65746526
S3250800f6e07273206E6F20737570706F72742100003100000064647320736574206572726F0C
S3250800f70072210000320000007365742074797065206572726F72210033000000696E70758E
S3250800f720742076616C7565206572726F7221000034000000F8B50446002500262078012868
S3250800f74001D1102605E02078032801D1202600E0012505BB94F82C0003280DD103228EA1F8
S3250800f760E06801F0B5FF28B1202E03D1002546F0010614E0022512E094F82C0007280DD15F
S3250800f780072286A1E06801F0A3FF28B1102E03D1002546F0020602E0022500E00225002DA5
S3250800f7a078D1122E77D0212E76D12D210A5D7DA1206901F08DFFF8B12E22115D606908F0D4
S3250800f7c0AFF9B8B100BF2E22115D60690DF01CFD0090774A012168460FF064FD754876A159
S3250800f7e042697B480FF012FE79480FF09DF90FF0C7FA7DE004257BE02D210A5D75A1206933
S3250800f80001F066FF00B32E22115D606908F088F9C0B100252E22115D60690DF0F5FC009036
S3250800f820634A1032012168460FF03CFD61486AA1426967480FF0EAFD65480FF075F90FF0B6
S3250800f8409FFA55E0042553E02D210A5D66A1206901F03EFF18B32E22115D606908F060F95A
S3250800f860D8B100252E22115D60690DF0CDFC00904F4A2032012168460FF014FD4D485CA192
S3250800f880426953480FF0C2FD51480FF04DF90FF077FA2DE05FE02CE05CE0042528E02D21F5
S3250800f8a00A5D58A1206901F013FF00B32E22115D606908F035F9C0B100252E22115D6069D1
S3250800f8c00DF0A2FC00903A4A3032012168460FF0E9FC38484EA142693D480FF097FD3C489F
S3250800f8e00FF022F90FF04CFA02E0042500E0032530E02F480BF06AF900904BA00FF014F91C
S3250800f90000980FF0FFF84CA00FF00EF9284810300BF05CF9009000980FF0F4F849A00FF05E
S3250800f92003F9234820300BF051F9009000980FF0E9F848A00FF0F8F81D4830300BF046F9DF
S3250800f940009000980FF0DEF82CA00FF0EDF80FF017FA00BF00BFF5B1012D05D142A248A1E7
S3250800f96020460BF0F1F916E0022D05D145A249A120460BF0E9F90EE0032D05D146A24AA158
S3250800f98020460BF0E1F906E0042D04D147A24CA120460BF0D9F9F8BD73657400726561648C
S3250800f9a0636667006672657175656E6379000000A0120800481200207B22667265717565DE
S3250800f9c06E6379223A20222573227D0D0A00000048100020706761007B22706761223A20E2
S3250800f9e0222573227D0D0A0062756666000000007B2262756666223A20222573227D0D0ABA
S3250800fa000000000073686F72746C696D000000007B2273686F72746C696D223A2022257321
S3250800fa20227D0D0A000000007B226672657175656E6379223A202200222C2022706761220B
S3250800fa403A202200222C202262756666223A202200000000222C202273686F72746C696D49
S3250800fa60223A202200000000706172616D6574657273206E6F20737570706F72742100004B
S3250800fa80310000006464733220736574206572726F72210032000000736574207479706583
S3250800faa0206572726F72210033000000696E7075742076616C7565206572726F72210000C2
S3250800fac034000000F0B587B00546002400262878012801D1102600E00124002C30D10DF172
S3250800fae01B00411E821E06ABCDE90132CDE90310001F00900B1F05AA22A1E868FCF7BEFB34
S3250800fb0007281CD105A808F047F8B0B100BF46F001069DF81B009DF81A109DF81920CDE987
S3250800fb20002102909DF818309DF817209DF81610BDF8140009F0E6FD02E0022400E00224ED
S3250800fb406CB9112E0AD115A11648EA680FF05EFC14480EF0E9FF0FF013F900BF00BF74B1A9
S3250800fb60012C05D110A216A128460BF0EDF806E0022C04D113A218A128460BF0E5F807B069
S3250800fb80F0BD000025642F25642F25642D25642D25643A25643A25640000000025730D0A10
S3250800fba00000000048100020706172616D6574657273206E6F20737570706F727421000030
S3250800fbc03100000074696D6520666F726D6174206572726F722100003200000030B58DB0CF
S3250800fbe0044601252EA000680C9000200B900A90099008900590069007902078052834D1A3
S3250800fc0008A809A90AAA0BABCDE90032CDE902100CAB05AA23A16068FCF730FB9DF8200095
S3250800fc2000909DF830006C2801D1012000E0002002469DF824309DF828109DF82C000BF020
S3250800fc4025FB9DF820009DF82410CDE900109DF828309DF82C2018A11F480FF0D7FB1E480D
S3250800fc600EF062FF0FF08CF80025012D05D11BA220A120460BF068F810E0022D05D11EA277
S3250800fc8024A120460BF060F808E0032D05D122A226A120460BF058F800E000BF0DB030BD65
S3250800fca06C000000257320257320256420256420256420256400000025642C092564095333
S3250800fcc063616C653A20256409536E735365743A2025640A0000000048100020706172612C
S3250800fce06D6574657273206E6F20737570706F727421000031000000696E707574207661B3
S3250800fd006C7565206D6F7265207468656E2031303021000032000000696E707574207661C2
S3250800fd206C7565206572726F722100003300000070B5044601252078012814D194F82C10CE
S3250800fd40E0680DF061FAC6B23046FDF7D1FB12A00EF0EAFE30460EF0D5FE16A00EF0E4FED2
S3250800fd600FF00EF80025012D05D113A218A120460AF0EAFF0EE0022D05D116A21CA12046C2
S3250800fd800AF0E2FF06E0032D04D11AA21EA120460AF0DAFF70BD00007B22416D7578204511
S3250800fda06E61626C65223A202276616C7565223A200000007D0D0A00706172616D65746519
S3250800fdc07273206E6F20737570706F727421000031000000696E7075742076616C75652017
S3250800fde06D6F7265207468656E2031303021000032000000696E7075742076616C756520E2
S3250800fe006572726F72210000330000002DE9FC4105460127FA480AF0D9FE0090002001903C
S3250800fe202878022803D030208DF80400E0E1EE6895F82C40032C6FD12246F2A1304601F05D
S3250800fe4047FC002830D02E692D20445D022C12D12246EDA1304601F03BFC40B1002700984F
S3250800fe6040F001000090E9A00EF05EFEC0E132208DF80400BCE1032C12D12246E9A130463D
S3250800fe8001F026FC40B10027009820F001000090E5A00EF049FEABE132208DF80400A7E137
S3250800fea032208DF80400A3E12246E5A1304601F00FFC002831D02E692D20445D022C12D1B6
S3250800fec02246D1A1304601F003FC40B10027009840F002000090DBA00EF026FE88E132200A
S3250800fee08DF8040084E1032C12D12246CDA1304601F0EEFB40B10027009820F0020000907C
S3250800ff00D4A00EF011FE73E132208DF804006FE132208DF804006BE1B3E02246D2A13046C8
S3250800ff2001F0D6FB002838D02E692D20445D022C16D12246B4A1304601F0CAFB60B1002706
S3250800ff40009820F008000090009840F010000090C6A00EF0E9FD4BE132208DF8040047E172
S3250800ff60032C16D12246AFA1304601F0B1FB60B10027009820F008000090009820F0100062
S3250800ff800090BEA00EF0D0FD32E132208DF804002EE132208DF804002AE12246BCA130467C
S3250800ffa001F096FB80B32E692D20445D022C12D1224695A1304601F08BFB40B100270098AD
S3250800ffc040F020000090B3A00EF0AEFD10E132208DF804000CE1032C12D1224691A130465C
S3250800ffe001F076FB40B10027009820F020000090ACA00EF099FDFBE032208DF80400F7E0B4
S3250801000032208DF80400F3E0FFE72246AAA1304601F05EFB80B32E692D20445D022C12D101
S32508010020224679A1304601F053FB40B10027009840F040000090A1A00EF076FDD8E032200E
S325080100408DF80400D4E0032C12D1224675A1304601F03EFB40B10027009820F04000009094
S325080100609AA00EF061FDC3E032208DF80400BFE032208DF80400BBE0FFE731208DF8040088
S32508010080B6E0042C74D1042295A1304601F020FB80B32E692D20445D022C12D122465AA13C
S325080100a0304601F015FB40B10027009840F0040000908DA00EF038FD9AE032208DF8040091
S325080100c096E0032C12D1224656A1304601F000FB40B10027009820F00400009087A00EF04F
S325080100e023FD85E032208DF8040081E032208DF804007DE0FFE7042285A1304601F0E8FA7D
S3250801010080B32E692D20445D022C12D122463EA1304601F0DDFA40B10027009840F0800022
S3250801012000907DA00EF000FD62E032208DF804005EE0032C12D122463AA1304601F0C8FA2F
S3250801014040B10027009820F08000009077A00EF0EBFC4DE032208DF8040049E032208DF8BC
S32508010160040045E000E003E031208DF804003FE0022C3DD1224672A1304601F0A9FA78B39F
S325080101802E692D20445D022C16D122461EA1304601F09EFA60B10027009840F008000090F8
S325080101a0009820F01000009066A00EF0BDFC1FE032208DF804001BE0032C16D1224619A11E
S325080101c0304601F085FA60B10027009820F008000090009820F01000009028A00EF0A4FC04
S325080101e006E032208DF8040002E032208DF804002FB158A201A928460AF0A6FDBBE0B3E0B5
S325080102001012080061646A006F6E00007B2261646A6163656E74223A20226F6E227D0D0A91
S32508010220000000006F6666007B2261646A6163656E74223A20226F6666227D0D0A0000000E
S32508010240676E64007B22676E64223A20226F6E227D0D0A007B22676E64223A20226F6666A0
S32508010260227D0D0A00000000646473007B22646473223A20226F6E227D0D0A007B22545232
S325080102805F646473223A20226F6666227D0D0A00766F68007B22766F68223A20226F6E2252
S325080102a07D0D0A007B22766F68223A20226F6666227D0D0A00000000766F6C007B22766F4F
S325080102c06C223A20226F6E227D0D0A007B22766F6C223A20226F6666227D0D0A00000000F5
S325080102e076627573000000007B2276627573223A20226F6E227D0D0A000000007B2276622C
S325080103007573223A20226F6666227D0D0A00000064647332000000007B2264647332223A84
S3250801032020226F6E227D0D0A000000007B2264647332223A20226F6666227D0D0A00000040
S32508010340545200007B225452223A20226F6E227D0D0A0000706172616D65746572206572BC
S32508010360726F722100000000044A012168460EF099FF0EF005FDBDE8FC81000010120800FA
S325080103802DE9F047054600242878032806D089A28DA128460AF0D8FCBDE8F087D5F80C80E7
S325080103a095F82C60032E15D1324688A1404601F08FF918B10124DFF8189218E0324685A159
S325080103c0404601F085F990B10224DFF8049209F108090CE0042E0AD132467FA1404601F032
S325080103e077F920B10424DFF8E89109F110092CB970A27BA128460AF0A7FCCDE7D5F81080F3
S325080104002D20465D032E14D1324676A1404601F05FF918B144F01004734F21E0324673A109
S32508010420404601F055F9D8B144F020046E4F083716E0042E14D132466DA1404601F048F9C0
S3250801044020B144F04004684F103709E032466AA1404601F03DF918B144F08004624F1837AC
S32508010460102C05DA53A266A128460AF06DFC93E7D5F814802E20465D04F0010050B131464C
S32508010480404607F0A0FA08BB4AA25EA128460AF05BFC81E704F0020050B13146404607F076
S325080104a0D2FA98B943A257A128460AF04DFC73E704F0040050B13146404607F029FB28B936
S325080104c03CA250A128460AF03FFC65E7412C40D00EDC212C2BD006DC112C16D0122C1AD073
S325080104e0142C5AD11DE0222C27D0242C55D12AE0812C40D004DC422C31D0442C4DD134E012
S32508010500822C3ED0842C48D141E001223146404607F0C0FB41E001223146404607F00AFC16
S325080105203BE001223146404607F006FE35E003223146404607F0AEFB2FE00322314640466E
S3250801054007F0F8FB29E003223146404607F0F4FD23E002223146404607F09CFB1DE00222BC
S325080105603146404607F0E6FB17E002223146404607F0E2FD11E004223146404607F08AFB19
S325080105800BE004223146404607F0D4FB05E004223146404607F0D0FD00BF00BF002008F80E
S325080105a0060043463A46494617A00FF093FE00BFF2E60000706172616D65746572206572F8
S325080105c0726F7221000000003000000061646A0061000020676E64007662757300000000BF
S325080105e0310000007265730091000020636170007664727000000000736B69700000000019
S3250801060032000000330000007B222573223A207B222573223A20222573227D7D0D0A000017
S3250801062070B504460126207802287ED194F82C0001287AD1012249A1E06801F049F8002829
S3250801064022D02D22115D206907F06AFAD0B12D22115D20690CF0D8FD05460026642D0FD877
S32508010660E8B23F4A516888473EA00EF05DFA28460EF048FA41A00EF057FA0EF081FB54E001
S32508010680022652E0032650E001223DA1E06801F01FF810B32D22115D206907F041FAD0B18B
S325080106a02D22115D20690CF0AFFD05460026642D0FD8E8B22A4A9168884732A00EF034FA80
S325080106c028460EF01FFA2DA00EF02EFA0EF058FB2BE0022629E0032627E001222FA1E0689B
S325080106e000F0F6FFF8B12D22115D206907F018FAD0B12D22115D20690CF086FD0546002657
S32508010700642D0FD8E8B2164AD168884724A00EF00BFA28460EF0F6F918A00EF005FA0EF07B
S325080107202FFB02E0022600E00326012E05D122A227A120460AF008FB0EE0022E05D125A2BE
S325080107402BA120460AF000FB06E0032E04D129A22DA120460AF0F8FA70BD000072000000ED
S32508010760380000207B226C6564223A202272222C202276616C7565223A2000007D0D0A0073
S32508010780670000007B226C6564223A202267222C202276616C7565223A2000006200000081
S325080107a07B226C6564223A202262222C202276616C7565223A200000706172616D657465E0
S325080107c07273206E6F20737570706F727421000031000000696E7075742076616C7565200C
S325080107e06D6F7265207468656E2031303021000032000000696E7075742076616C756520D7
S325080108006572726F72210000330000002DE9FC5F054600242878052806D0CAA2CEA128467F
S325080108200AF092FABDE8FC9FD5F80C9095F82C60032E15D13246C9A1484600F049FF18B1D9
S325080108400124DFF81C8326E03246C6A1484600F03FFF00B30224DFF8088308F108081AE00F
S32508010860042E0BD13246C0A1484600F031FF90B10424DFF8EC8208F110080CE0022E0AD11E
S325080108803246BBA1484600F023FF20B10824DFF8D08208F118082CB9AAA2B6A128460AF0A6
S325080108a053FABFE7D5F810902D20465D032E2AD13246B1A1484600F00BFF18B144F010044A
S325080108c0AE4F44E03246AEA1484600F001FF20B144F02004A94F083739E03246A9A14846DA
S325080108e000F0F6FE20B144F48054A44F30372EE03246A5A1484600F0EBFE40B344F400541C
S325080109009E4F383723E0042E15D132469FA1484600F0DEFE20B144F04004984F103716E0D2
S3250801092032469CA1484600F0D3FE80B144F48044924F40370BE0022E09D132468CA14846F7
S3250801094000F0C6FE18B144F080048C4F2037102C05DA7CA291A128460AF0F6F962E7D5F849
S3250801096014902E20465D3146484607F0D9F828B974A28BA128460AF0E7F953E7314648465C
S325080109800CF042FC8346D5F818902F20465D3146484607F0C5F828B96AA282A128460AF0AD
S325080109a0D3F93FE7314648460CF02EFC8246D5F81C903020465D04F0010058B131464846D4
S325080109c007F001F800285CD15EA277A128460AF0BBF927E704F0020058B13146484607F086
S325080109e032F800284DD157A26FA128460AF0ACF918E704F0040058B13146484607F088F8E6
S32508010a0000283ED14FA268A128460AF09DF909E704F0080050B13146484607F061F878BB23
S32508010a2048A261A128460AF08FF9FBE604F4805050B13146484607F05BF808BB41A25AA131
S32508010a4028460AF081F9EDE604F4005050B13146484607F055F898B93AA253A128460AF0B7
S32508010a6073F9DFE604F4004050B13146484606F0E2FF28B933A24CA128460AF065F9D1E601
S32508010a80FFE74FF60F700440082C27D006DC012C0FD0022C14D0042C3CD118E0A4F5805090
S32508010aa0023810B3B0F5805F26D0B0F5405F31D129E053465A463146484607F08DFB29E09B
S32508010ac053465A463146484607F03CFC22E053465A463146484607F0A1FD1BE053465A4691
S32508010ae03146484607F088FC14E053465A463146484607F0DBFC0DE053465A46314648463C
S32508010b0007F030FD06E053465A463146484607F0BDFB00BF00BF002009F806003B46424621
S32508010b2022A12F48CDE900BA0EF070FC2C480DF0FBFF0EF025F949462AA00FF0CBFB00BF2E
S32508010b4070E60000706172616D65746572206572726F7221000000003000000061646A00A5
S32508010b6061000020676E64007662757300000000545200003100000072657300910000201A
S32508010b8063617000766F6800766F6C00766472700000000064647332000000003200000019
S32508010ba03300000034000000350000007B222573223A207B222573223A207B226F70656ED9
S32508010bc0206C696D6974223A2025642C202273686F7274206C696D6974223A2025642C00B4
S32508010be04810002020222573227D7D7D0D0A0000F8B50446002701272078012877D1E66847
S32508010c0094F82C50032D60D12A4656A1304600F05FFD48B154A00DF087FF5BA00DF084FF48
S32508010c2003200090002782E02A465BA1304600F04FFD48B14CA00DF077FF58A00DF074FF8B
S32508010c4005200090002772E02A4658A1304600F03FFD48B144A00DF067FF55A00DF064FFB7
S32508010c6007200090002762E02A4655A1304600F02FFD48B13CA00DF057FF52A00DF054FFE3
S32508010c8004200090002752E02A4652A1304600F01FFD48B134A00DF047FF4FA00DF044FF14
S32508010ca006200090002742E02A464FA1304600F00FFD00283BD02CA00DF036FF4BA00DF03B
S32508010cc033FF08200090002731E0012D2FD12A464AA1304600F0FCFC50B123A00DF024FF18
S32508010ce047A00DF021FF0020009000271FE032E02A4645A1304600F0EBFC48B11AA00DF0A6
S32508010d0013FF42A00DF010FF0120009000270EE02A4641A1304600F0DBFC40B112A00DF0CF
S32508010d2003FF3EA00DF000FF0220009000272FB13DA243A120460AF007F811E0414A01214F
S32508010d4068460EF0AFFA0EF01BF805200EF0E6FF01F038FF04E034A23BA1204609F0F4FF06
S32508010d60F8BD000063316C007B2269506F727420506F736974696F6E223A202276616C7539
S32508010d8065223A20000000002243315F4C656674227D0D0A0000000063326C002243325F36
S32508010da04C656674227D0D0A0000000063336C002243335F4C656674227D0D0A00000000A9
S32508010dc0633172002243315F5269676874227D0D0A000000633272002243325F52696768CE
S32508010de074227D0D0A000000633372002243335F5269676874227D0D0A00000030000000D7
S32508010e00224E41227D0D0A006C000000224C656674227D0D0A0000007200000022526967D7
S32508010e206874227D0D0A0000706172616D6574657273206E6F20737570706F727421000082
S32508010e4031000000201208003200000070B5044601252078022875D194F82C00042819D17B
S32508010e600422B6A1E06800F033FC002812D02D210A5DB4A1206900F02BFC60B10025B5A040
S32508010e800DF052FEB8480DF04FFEB8A00DF04CFE0DF076FF3AE12D210A5DB6A1206900F0FB
S32508010ea017FC68B10025B6A00DF03EFEAE4830300DF03AFEADA00DF037FE0DF061FF25E1D6
S32508010ec02D210A5DB3A1206900F002FC68B10025B3A00DF029FEA44860300DF025FEA3A0EF
S32508010ee00DF022FE0DF04CFF10E12D210A5DB1A1206900F0EDFB68B10025B1A00DF014FE87
S32508010f00994890300DF010FE98A00DF00DFE0DF037FFFBE02D210A5DAEA1206900F0D8FB78
S32508010f2070B10025B0A00DF0FFFD8F48C0300DF0FBFD8EA00DF0F8FD0DF022FFE6E001E072
S32508010f400325E3E020780328A4D194F82C000528A0D10522AAA1E06800F0BAFB002899D019
S32508010f602E20005D302806DD30212E2001550021606980F82F102D210A5D72A1206900F0A5
S32508010f80A7FBF0B100252E20025D77486169FBF748F900212E20005D734A11544FF480526E
S32508010fa04FF4012170480DF0B4FF6AA00DF0BCFD6D480DF0B9FD6DA00DF0B6FD0DF0E0FE95
S32508010fc0A4E02D210A5D6BA1206900F081FB08B300252E20025D644830306169FBF721F959
S32508010fe000212E20005D30305F4A11544FF480524FF401215C480DF08CFF61A00DF094FD73
S32508011000594830300DF090FD58A00DF08DFD0DF0B7FE7BE02D210A5D5EA1206900F058FB2A
S3250801102008B300252E20025D4F4860306169FBF7F8F800212E20005D60304B4A11544FF4A8
S3250801104080524FF4012148480DF063FF54A00DF06BFD454860300DF067FD44A00DF064FD42
S325080110600DF08EFE52E02D210A5D52A1206900F02FFB08B300252E20025D3B4890306169C1
S32508011080FBF7CFF800212E20005D9030364A11544FF480524FF4012133480DF03AFF48A004
S325080110a00DF042FD304890300DF03EFD2FA00DF03BFD0DF065FE29E02D210A5D45A12069E4
S325080110c000F006FB08B300252E20025D2648C0306169FBF7A6F800212E20005DC030224AA3
S325080110e011544FF480524FF401211F480DF011FF3DA00DF019FD1C48C0300DF015FD1BA080
S325080111000DF012FD0DF03CFE00E00325012D05D13DA243A1204609F017FE0EE0022D05D147
S3250801112040A245A1204609F00FFE06E0032D04D142A247A1204609F007FE70BD7265616488
S325080111400000000073657269616C5F6E756D6265720000007B2273657269616C5F6E756D4C
S32508011160626572223A202200E0B80020227D0D0A000000006D6C625F6E756D6265720000F8
S325080111807B226D6C625F6E756D626572223A20220000000068775F76657273696F6E00009E
S325080111a07B2268775F76657273696F6E223A20220000000066775F76657273696F6E00005F
S325080111c07B2266775F76657273696F6E223A202200000000646174655F6D616E75666163AB
S325080111e074757265640000007B22646174655F6D616E756661637475726564223A20220085
S325080112007772697465000000706172616D6574657273206E6F20737570706F727421000005
S3250801122031000000696E7075742076616C7565206572726F7221000032000000696E7075A8
S3250801124074206F6666736574206572726F722100330000007CB5054643A00DF065FC0DF00C
S325080112608FFD14200EF05AFD01210846FCF752F90446002C34D1012009F0B6FA0120811E97
S3250801128040F6C41342A2CDE900104248018842A0FCF75EFA01206421831E40A2CDE9001059
S325080112a03F4801883CA0FCF753FA01210020FCF731F90120811E40F6C41335A2CDE900102A
S325080112c03448018837A0FCF743FA01206421831E32A2CDE900103248018832A0FCF738FA18
S325080112e000210120FCF716F90446002C33D109F07BFA0120811E40F6C41325A2CDE9001059
S325080113002448018824A0FCF723FA01206421831E22A2CDE90010224801881FA0FCF718FA6D
S3250801132000210846FCF7F6F80120811E40F6C41317A2CDE90010174801881AA0FCF708FA6B
S3250801134001206421831E15A2CDE900101448018814A0FCF7FDF914A00DF0E6FB0DF010FD9C
S3250801136014200EF0DBFC7CBD7B2267726F7570223A20226D657373616765222C2022697462
S32508011380656D223A20227374617274227D0A0000766F68007806002061303500766F6C00F5
S325080113a07A060020623035007B2267726F7570223A20226D657373616765222C22697465B8
S325080113c06D223A2022656E64227D0A0010B504462078012837D194F82C0003280FD1032253
S325080113e019A1E06800F074F968B348F2A5001749096808604FF0006007F06AF923E094F8C4
S325080114002C000A281FD10A2211A1E06800F060F9C8B102201149087009F0EAFB00231A4632
S3250801142041F28831480008F0A5FA00200C4908800C48007838B901200A4908700A49087061
S3250801144000200A49088010BD6D63750094060020626F6F746C6F6164657200009A060020CB
S32508011460980600202C000020280000202A00002010B504460BA00DF057FB0DF081FC14200A
S325080114800EF04CFC01200DF08DFC00200DF08AFC0EA00DF049FB0DF073FC14200EF03EFCE6
S325080114a010BD00007B2267726F7570223A20226D657373616765222C20226974656D223A68
S325080114c020227374617274227D0A00007B2267726F7570223A20226D657373616765222C49
S325080114e0226974656D223A2022656E64227D0A00F8B5044601262078022835D194F82C00F0
S32508011500042879D1042248A1E06800F0E1F8002872D02D22115D206906F002FB002821D06A
S325080115202D22115D20690BF06FFE0546002640F6FC718D4260D805F5012009F047FB0090ED
S325080115403BA00DF0F1FA28460DF0DCFA3FA00DF0EBFA00980DF0D6FA3FA00DF0E5FA0DF09A
S325080115600FFC49E0032647E02078032844D194F82C00052840D1052238A1E06800F0A8F832
S32508011580002839D02D22115D206906F0C9FA002831D02D22115D20690BF036FE05460026FD
S325080115a040F6FC718D4227D82E22115D606906F0B7FAF0B12E22115D60690BF025FE0090A7
S325080115c005F50122012168460DF06CFE00BF25A00DF0AAFA28460DF095FA1CA00DF0A4FA32
S325080115e000980DF08FFA1CA00DF09EFA0DF0C8FB02E0022600E00326012E05D121A227A10A
S32508011600204609F0A1FB0EE0022E05D124A229A1204609F099FB06E0032E04D126A22BA1C9
S32508011620204609F091FBF8BD72656164000000007B22656570726F6D223A20227265616400
S32508011640222C226F6666736574222C002C202276616C7565223A20007D0D0A0077726974D5
S32508011660650000007B22656570726F6D223A20227772697465222C226F6666736574222CC3
S3250801168000000000706172616D6574657273206E6F20737570706F7274210000310000007B
S325080116a0696E7075742076616C7565206572726F7221000032000000696E707574206F66EC
S325080116c066736574206572726F7221003300000030B503460C46002107E0585C655CA842C4
S325080116e001D0002030BD481CC1B29142F5DB0120F8E7000010B55D495D4802F091FD0024CF
S3250801170012E05A48007A5B49095D88420AD1594B1A5D564B5968584B03EB0410FFF7D8FF0E
S3250801172000B103E0601CC4B2202CEADB00BF202C71D2DFE804F01014181C2024282C3034A6
S32508011740383C4044484C5054585C6064686C7175797D8185898D4548FCF7CCFB7DE04348D7
S32508011760FDF768FC79E04148FEF75AFF75E03F48FFF7BEFE71E03D48FDF78AFC6DE03B4824
S32508011780FFF724FE69E03948FDF736FB65E03748FEF724FA61E03548FEF7CAFA5DE033482D
S325080117a0FDF7F6FC59E03148FDF7ACFB55E02F48FEF72CFB51E02D48FEF7E2FD4DE02B4805
S325080117c0FFF724F849E02948FDF796F945E02748FDF7E6FD41E02548FCF7D6FE3DE0234883
S325080117e0FFF706FA39E02148FDF740FD35E01F48FFF72CFB31E01D48FDF722FE2DE01B489E
S32508011800FEF760F929E01948FDF734F925E01748FDF7E0F821E01FE01448FCF757FB1CE013
S325080118201248FFF717FD18E01048FCF71FFC14E00E48FDF77FFF10E00C48FCF7DBFE0CE01F
S325080118400A48FFF715FE08E00848FCF76BFD04E00648FDF765FD00E000BF00BF202C04D184
S3250801186006A20CA1014809F06FFA10BD48120020C00B00203406020834040208636F6D6DF5
S32508011880616E64206E6F7420737570706F727465642100003100000070B504460D4610204B
S325080118a00C49086020200860402008608020086001200860022008604CF2503002F078FAAF
S325080118c02946204602F0AAF94CF2503002F070FA70BD00000C3C024030B503460C4600201E
S325080118e000221BE00001995C302905DB392903DCA1F13005E9B20EE0412905DB462903DC64
S32508011900A1F13705E9B206E0612904DB662902DCA1F15705E9B20843551CEAB2A242E1DB12
S3250801192030BD2DE9F04705460F461646B9464FEA960806F0030008B108F10108002409E0CB
S3250801194059F824C0624600232946022003F09CFC2D1D641C4445F3D3BDE8F087F8B5072251
S32508011960A549A648FFF7B4FEE0B9A548416832208847A348816800208847A148C16800208F
S3250801198088474FF434759F4E002403E0305D9E490855641CAC42F9D3AAB24FF402219A48DA
S325080119a00DF0B7FA4FF4347297499848FAF739FC072297499748FFF78BFEF0B9904841680A
S325080119c0002088478E488168322088478C48C168002088474FF4F0758F4E002405E0315D21
S325080119e004F58050884A1154641CAC42F7D3AAB24FF4032189480DF08CFA4FF4F072874914
S32508011a008748FAF70EFC072286498748FFF760FEF0B97B4841680020884779488168002004
S32508011a2088477748C168322088474FF4F0757F4E002405E0315D04F50050734A1154641CC8
S32508011a40AC42F7D3AAB24FF4042179480DF061FA4FF4F07276497748FAF7E3FB0722764908
S32508011a607648FFF735FE00BB654841680020884763488168002088476148C16832208847FA
S32508011a80C0256D4EA83E002405E0315D04F540505D4A1154641CAC42F7D34FF480524FF4F5
S32508011aa005216648A8380DF034FAC0226349A8396348FAF7B6FB072262496348FFF708FE01
S32508011ac000BB4F484168002088474D488168002088474B48C168322088473025594E183E71
S32508011ae0002405E0315D04F56050474A1154641CAC42F7D34FF480524FF405214F48A83874
S32508011b000DF007FA3022504918395048FAF789FB07224F494F48FFF7DBFD00BB3848416865
S32508011b200020884736488168002088473448C168322088473025464E183E002405E0315DB5
S32508011b4004F56850304A1154641CAC42F7D34FF480524FF405213948A8380DF0DAF93022AD
S32508011b603C4918393C48FAF75CFB07223B493C48FFF7AEFDF8B922484168002088472048C7
S32508011b808168002088471E48C168322088471825324E002405E0315D04F570501A4A1154D8
S32508011ba0641CAC42F7D34FF480524FF405212348A8380DF0AEF9182229492A48FAF731FB36
S32508011bc00F484168002088470D488168002088470B48C16800208847234808F0F7FF009086
S32508011be0009800F47F0030B9204800901E4A012168460DF057FBF8BD5CD10208987B002044
S32508011c0038000020A4CE0208E0780020985C00203CD30208A88A002074D10208E088002013
S32508011c20685F00201CD50208A89A002054D30208E098002048610020DCD5020888A90020B3
S32508011c40286300200CD60208F8B00020E86300203CD60208F8B200201864002054D60208F5
S32508011c60E0B400204864002010120800EF00FF002DE9F74F82B0804600200190002405E0AF
S32508011c8018F8040000B903E0601CC4B2FF2CF7DB00BFFF2C03D1002005B0BDE8F08F01944A
S32508011ca008200EF031F90546019CE00028800C2068802888C11700EB5171C1F3C707698899
S32508011cc001FB07F00EF020F96860D5F804904FF0000A00264EE0039828B118F8060002F0A9
S32508011ce099F8009004E018F8060002F0CDF80090BAF1000F21D000241BE00098005DC0F103
S32508011d00FF0B07FB04F0401E19F80010CAF108004BFA00F0014307FB04F0401E09F8001094
S32508011d200BFA0AF0C1B207FB04F009F80010601CC4B26888A042E0DC0EE0002409E0009808
S32508011d40005DC0F1FF0107FB04F009F80010601CC4B26888A042F2DC18F806002E2803D08E
S32508011d6018F80600692801D14FF0040A09F10109701CC6B201988642ADDB002406E06868C3
S32508011d80005DC04369680855601CC4B268887843A042F4DC28467FE72DE9F84F05460E4687
S32508011da092461F4616B90020BDE8F88F01222021434803F01BFC01220421414803F016FCED
S32508011dc00A200DF0ABFF002204213D4803F00EFC002220213A4803F009FC012208213948B0
S32508011de003F004FCB946F91707EB5171C910A7EBC101C8B200F0ECF8A946E91705EB9171C2
S32508011e008910A5EB8101C8B207F04AFE51463046FBF7B6FA90236A4603212B48FBF712F9A9
S32508011e20642E03D30A20294908800DE04FF47A70B0FBF6F02549088008460088B0F5FA7F72
S32508011e4002DD4FF4FA70088003202149087090236A4603211C48FBF7F5F84FF00008002425
S32508011e601CE01C4830F81400B0F5004F03DB0020184921F81400174931F8141001EB41015C
S32508011e80C802C11700EB5141C913124A22F81410104630F814008044601C84B20B480088BB
S32508011ea08442DEDB00200A49087008480088B8FBF0FB00220821034803F098FB584673E71F
S32508011ec00010024000000240E8050020F4000020F2000020441300202DE9F84F04460E46BA
S32508011ee09146304605F0F2FB002864D1012E01D1324D01E006B9324D2046E11704EB917159
S32508011f008910A4EB810101EB41012E4A515C182291FBF2F302FB1311CFB2E11704EB91717F
S32508011f208910A4EB810101EB4101264A11444978182291FBF2F302FB131101F0FF08224905
S32508011f400868804715F80810E85D1F4A53683246984715F80810E85D1B4A93683246984735
S32508011f601948C16801208847184808F02FFE00F0FF0A1648103808F029FE0090134810306A
S32508011f8008F024FE00F0FF0B5346012258460099FFF702FFC9F8000000214FF47A70FBF733
S32508011fa0EFF90948C168002088470749086880470020BDE8F88FFF20FBE70000165C00205B
S32508011fc02E5C002072D7020844060020B012080010B50446082C70D2DFE804F00417293B02
S32508011fe04C5E708100224FF480714F4803F0FEFA00224FF400714D4803F0F8FA00224FF4AA
S3250801200080714A4803F0F2FA8CE000224FF48071454803F0EBFA00224FF40071434803F0D4
S32508012020E5FA01221102414803F0E0FA7AE000224FF480713C4803F0D9FA012251023B4833
S3250801204003F0D4FA00224FF48071384803F0CEFA68E000224FF48071334803F0C7FA01222F
S325080120605102324803F0C2FA012211022F4803F0BDFA57E0012211022B4803F0B7FA0022D8
S325080120804FF40071294803F0B1FA00224FF48071264803F0ABFA45E001221102224803F05A
S325080120a0A5FA00224FF40071204803F09FFA012211021E4803F09AFA34E020E0012211023B
S325080120c0194803F093FA01225102184803F08EFA00224FF48071154803F088FA22E0012272
S325080120e01102114803F082FA012251020F4803F07DFA012211020D4803F078FA12E00022BB
S325080121004FF48071084803F071FA00224FF40071064803F06BFA00224FF48071034803F0BE
S3250801212065FA00BF00BF10BD00000240000802402DE9FE4F04460E4691461D4616B9002030
S32508012140BDE8FE8F01222021384803F04FFA01220421364803F04AFA0A200DF0DFFD0022FC
S325080121604FF40071324803F041FA002204212F4803F03CFA002220212C4803F037FA0122EF
S3250801218008212C4803F032FAA846E91705EB5171C910A5EBC101C8B2FFF71AFFA046E11742
S325080121a004EB91718910A4EB8101C8B207F078FC49463046FBF7E4F828200DF0AFFD922317
S325080121c002AA00211C48FAF73DFF28200DF0A6FD922302AA03211848FAF734FF022017491F
S325080121e00870922301AA00211348FAF72BFF92236A4603211048FAF725FF00200F4908707B
S32508012200BDF80400BDF80010884202DABDF8007001E0BDF8047007EB4700C0F3101A002224
S325080122200821044803F0E2F9504689E7001002400004024000000240E8050020F20000204D
S3250801224010B50249024802F093F810BD68E90020C00B00201CB517480078002829D0002482
S3250801226025E004EB4400144901EBC000006904EB4401114A02EBC101C968CDE9001004EB81
S325080122804400114601EBC000836804EB440001EBC0020AA116480DF0B9F815480CF044FCCC
S325080122a00CF06EFD0A200DF039FD601CC4B21E2CD7DB1CBD60000020985C00207B222573BB
S325080122c0222C2074797065203D2025642C204F70656E4C696D203D2025642C2053686F72CB
S325080122e0744C696D203D2025647D0D0A00000000481000201CB517480078002829D000243A
S3250801230025E004EB4400144901EBC000006904EB4401114A02EBC101C968CDE9001004EBE0
S325080123204400114601EBC000836804EB440001EBC0020AA116480DF069F815480CF0F4FBCC
S325080123400CF01EFD0A200DF0E9FC601CC4B2082CD7DB1CBD60000020486400207B22257319
S32508012360222C2074797065203D2025642C204F70656E4C696D203D2025642C2053686F722A
S32508012380744C696D203D2025647D0D0A00000000481000201CB517480078002829D0002499
S325080123a025E004EB4400144901EBC000006904EB4401114A02EBC101C968CDE9001004EB40
S325080123c04400114601EBC000836804EB440001EBC0020AA116480DF019F815480CF0A4FBCC
S325080123e00CF0CEFC0A200DF099FC601CC4B2142CD7DB1CBD60000020685F00207B222573F3
S32508012400222C2074797065203D2025642C204F70656E4C696D203D2025642C2053686F7289
S32508012420744C696D203D2025647D0D0A00000000481000201CB517480078002829D00024F8
S3250801244025E004EB4400144901EBC000006904EB4401114A02EBC101C968CDE9001004EB9F
S325080124604400114601EBC000836804EB440001EBC0020AA116480CF0C9FF15480CF054FBC5
S325080124800CF07EFC0A200DF049FC601CC4B2082CD7DB1CBD60000020286300207B2225733A
S325080124a0222C2074797065203D2025642C204F70656E4C696D203D2025642C2053686F72E9
S325080124c0744C696D203D2025647D0D0A00000000481000201CB517480078002829D0002458
S325080124e025E004EB4400144901EBC000006904EB4401114A02EBC101C968CDE9001004EBFF
S325080125004400114601EBC000836804EB440001EBC0020AA116480CF079FF15480CF004FBC4
S325080125200CF02EFC0A200DF0F9FB601CC4B2082CD7DB1CBD60000020E86300207B2225737A
