S3250800c00090F000209DC10008D19A01082D730108A59A010811D5000819ED010800000000AA
S3250800c02000000000000000000000000005B30108A5240108000000009DA701081FD3010817
S3250800c040B7C10008B7C10008B7C10008B7C10008B7C10008B7C10008B7C10008B7C10008D2
S3250800c060B7C10008C5390108B7C10008B7C10008B7C10008B7C10008B7C10008B7C100082B
S3250800c080B7C10008B7C10008B7C10008B7C10008B7C10008B7C10008B7C10008B7C1000892
S3250800c0a0B7C10008B7C10008B7C10008B7C10008B7C10008E9D40108B7C10008B7C100082C
S3250800c0c0B7C10008B7C10008B7C10008B7C10008B7C10008A5E90108B7C10008B7C100083B
S3250800c0e0B7C10008B7C10008B7C10008D5D50108B7C10008B7C10008B7C10008B7C10008FF
S3250800c100B7C10008B7C10008B7C10008B7C10008B7C10008B7C10008B7C10008B7C1000811
S3250800c120B7C10008B7C10008B7C10008B7C10008B7C10008B7C10008B7C10008B7C10008F1
S3250800c140B7C10008B7C10008B7C10008B7C10008B7C10008B7C10008B7C10008B7C10008D1
S3250800c160B7C10008B7C10008B7C10008B7C10008B7C10008B7C10008B7C100080000000031
S3250800c180B7C10008B7C10008DFF80CD000F0B0FC004800473500020890F0002006488047BF
S3250800c1a006480047FEE7FEE7FEE7FEE7FEE7FEE7FEE7FEE7FEE7FEE785D4010889C1000836
S3250800c1c02DE9F05F0546002092469B4688460646814640241BE0284641464746224600F0AE
S3250800c1e095FB53465A46C01A914110D311461846224600F07CFB2D1A67EB01084F462246B6
S3250800c2000120002100F073FB17EB00094E41201EA4F10104DFDC484631462A464346BDE8A0
S3250800c220F09F40EA01039B0703D009E008C9121F08C0042AFAD203E011F8013B00F8013BB5
S3250800c240521EF9D27047D2B201E000F8012B491EFBD270470022F6E710B513460A460446B3
S3250800c2601946FFF7F0FF204610BD034611F8012B00F8012B002AF9D1184670470FB400B516
S3250800c2808DB010A909900B9000914FF0FF300A9000200C9005480690054807906A4609A8E9
S3250800c2a00F9900F069FB0DB05DF814FB95C90008B3C900082DE9FF5F1D464FF0FF3BD5E95B
S3250800c2c0014691465F464FF00008A9697F1C01988847296A824688470028F6D1BAF1FF3F2F
S3250800c2e00CD024F4C064002E19DD600614D5BAF12B0F09D0BAF12D0F0ED103E0584604B0EC
S3250800c300BDE8F09F44F48064A9697F1C01988847761E8246002E02DDBAF1300F03D0B9F1DA
S3250800c320000F26D032E0A969761E44F400747F1C019888478246002E05DDBAF1780F06D0A3
S3250800c340BAF1580F03D0B9F1000F10D01EE0B9F1000F02D0B9F1100F18D1A969761E24F458
S3250800c36000747F1C019888478246102002E0082000E00A20814609E008FB0908A969761EC2
S3250800c38044F400747F1C019888478246002E05DD4946504600F0DCFA0028EDDAE969019843
S3250800c3a08847A00502D46FF00100A8E7E00725D1600613D5600502D5C8F1000000E04046B0
S3250800c3c029680A1D2A600968220501D5087015E0220701D5088011E008600FE02868011DB5
S3250800c3e029600068210502D580F8008006E0210702D5A0F8008001E0C0F8008038467EE750
S3250800c4002DE9FF5FD2E901A74FF00008916999461446DDF838B0464601988847054659EA7E
S3250800c4200B0005D009E0A169761C019888470546216A284688470028F5D1681C03D05FEA80
S3250800c440CA7005D015E04FF0FF3004B0BDE8F09F2068011D2160D0F800800AE05FEACA7098
S3250800c46001D108F8015BA169761C7F1E019888470546002F1ADD681C18D0B9F1000F0DD06C
S3250800c480E81705EBD060421120F01F0059F822102A1A012090400142E0D107E0BBF1000F9F
S3250800c4a0DCD1216A284688470028D7D0E16901988847BBF1000F07D1002E05DD5FEACA7052
S3250800c4c002D1002188F80010A068B84203DDBBF1000F03D017B16FF00100B6E73046B4E784
S3250800c4e02DE9FE4F804681EA0300C00F0C46009021F0004123F00045B8EB0200A94105D2D6
S3250800c5004046214690461C460B46024623F00040104347D0270DC7F30A00C3F30A510290F7
S3250800c520401A019040286BDAC3F3130040F4801B0098924620B10023D2EB030A63EB0B0B2B
S3250800c54001985946C0F14002504600F0D0F906460D4650465946019A00F0E8F910EB080010
S3250800c5606141002487EA115284EAE7731A4340D0009A62B3019A012A4FEA075215DC001BCB
S3250800c58061EB02014FF0004202EA0752CDE90042001C41F5801132462B4600F02AFA03B0ED
S3250800c5a0BDE8F08F40462146F9E7001B61EB0201001C41F5801300185B412018A2F5001793
S3250800c5c047EB030140EAD570B6196D4111E06D084FEA360645EAC0754FEA0752001B61EBF3
S3250800c5e00201001C41F5801149084FEA30000019514132462B4603B0BDE8F04F00F0EAB9CF
S3250800c6000098012240000023D0EB020263EBE073009821464FEAE074B8EB000061EB04010E
S3250800c620E9E783F000435BE781F0004158E72DE9FE4F81EA030404F0004421F00041009440
S3250800c6404FF0000B23F0004350EA01045ED052EA03045BD0C3F30A54C1F30A552C44A4F224
S3250800c660F3340194A0FB0254C1F3130141F48011C3F3130343F4801301FB024400FB034E4D
S3250800c680840A970A44EA815447EA8357A4FB076802958D0A05FB07854FEA932C04FB0C5430
S3250800c6a02705029D4FEA065847EA1637B5EB08056EEB070C870E920E47EA811742EA8312B4
S3250800c6c0A7FB0201B6EB0B0164EB00042B0D43EA0C335E1844EB1C50DA465146E7FB020156
S3250800c6e0C5F313044FEA0B3343EA14534FEA0432019C43EA0603A4F10C040294009CCDE983
S3250800c70000B400F076F903B0BDE8F08F00200146F9E72DE9F04D81EA030404F0004B21F0C5
S3250800c720004514464FF0000A23F0004150EA050220D054EA01021DD0C5F30A570246C5F337
S3250800c7401303C1F31300C1F30A5640F4801543F48013A7EB0608101BD64608F2FD3873EBD3
S3250800c760050002D308F1010801E092185B41B8F1000F03DA00200146BDE8F08D00204FF427
S3250800c7808011064684460EE0171B73EB050705D3121B63EB050306434CEA010C49084FEAE9
S3250800c7a0300092185B4150EA0107EDD152EA030012D082EA040083EA0501084305D0101BA6
S3250800c7c0AB4106D20122002306E000224FF0004302E06FF0010253101AEB06004CEB085175
S3250800c7e010EB0A0041EB0B01BDE8F04D00F0F2B80EB5C10F80EAE0700844CA07002140F2B5
S3250800c80033438DE80E000A460B4600F0F2F803B000BD0EB540F2334102910021CDE9001142
S3250800c8200A460B4600F0E5F803B000BD70B5C1F30A5201F000450024C1F3130140F2FF3351
S3250800c84041F480119A4201DA002070BD40F233439A42A2F2334203DC524200F057F800E0E1
S3250800c86090402C43F1D0404270BDC1F30A5210B5C1F3130140F2FF3341F480119A4201DA7D
S3250800c880002010BD40F233439A42A2F2334203DC524200F03BF810BD904010BD00F00042DE
S3250800c8a030F000400AD0C10D01F56071C0F3160042EA0151C20840071143704700200146D1
S3250800c8c0704730B50B46014600202022012409E021FA02F59D4205D303FA02F5491B04FA87
S3250800c8e002F52844151EA2F10102F1DC30BD202A04DB203A00FA02F1002070479140C2F179
S3250800c900200320FA03F3194390407047202A04DB203A21FA02F00021704721FA02F3D0406B
S3250800c920C2F120029140084319467047202A06DBCB17203A41FA02F043EAE07306E041FAAD
S3250800c94002F3D040C2F1200291400843194670473A2800D2303820F02002412A01D3A2F11D
S3250800c9603700884201D34FF0FF307047026811441378016018467047D16004495161044972
S3250800c980116200211161114600F0CAB86DC9000815CB0008426842B1016811F8013B23B175
S3250800c9a0521EC0E90012184670470121C160881E704742685AB1C368016843B983688B428C
S3250800c9c005D0491E521CC0E90012002070474FF0FF30704710B5141E73F1000408DA401C4B
S3250800c9e041F1000192185B411A4301D120F0010010BD2DE9F04D92469B4611B1B1FA81F2B7
S3250800ca0002E0B0FA80F220329046FFF770FF04460F4640EA0A0041EA0B0153465A460843EF
S3250800ca2013D0114653EA010019D0C8F140025046FFF76CFF05460E46504659464246FFF743
S3250800ca4056FF084305D0012004E020463946BDE8F08D0020054346EAE0762C4337430A98CE
S3250800ca606305E40AA0EB08000022FD0A44EA47540A3002D500200146E9E7010510196941AC
S3250800ca80DDE9084500196941BDE8F04DA2E7C1F30A52C1F3130140F2FF3341F480119A4269
S3250800caa002DA00200146704740F233439A42A2F2334202DC5242FFF729BFFFF718BF0000C4
S3250800cac030B5041E71F1000404DB4FF00044404264EB0101141E73F1000405DB1C464FF08B
S3250800cae00043524263EB0403994208BF904230BD064C074D06E0E06840F0010394E8070010
S3250800cb0098471034AC42F6D3FFF742FB240A0308440A0308C0B24FF4F05100F097B9000032
S3250800cb202DE9F34F8BB04FF0000801F10C000C464FF0010B46460DF1080A01906269012158
S3250800cb4001989047051E2DD0252D2CD0216A8847C0B16269012101989047216A884700283F
S3250800cb60F7D1411E62690198904700E0761CA1690B988847216A88470028F7D1E1690B9820
S3250800cb808847DBE7A1690B9888470746A84201D1761CD3E7E1690B9888477F1C02D1B8F152
S3250800cba0000F6FD046E1002762693D463946019890472A2804D162690121019890470125E4
S3250800cbc0DFF884926269012101989047A0F130010A290AD24F45E5DC07EB870100EB41072A
S3250800cbe0303FDFD445F01005ECE7E90601D46FF000476C280AD04C2814D0682815D06A28B1
S3250800cc000DD074281CD07A281AD01DE062690121019890476C2802D045F0040514E045F0EE
S3250800cc2002050DE045F020050AE06269012101989047682802D045F0080505E045F400652A
S3250800cc406269012101989047C4E9015765283DD019DC58287AD00CDC452837D004DC252882
S3250800cc6026D0412831D131E046282FD047282CD12CE05B2877D0612828D063287CD06428A1
S3250800cc8023D15AE0D0E06F2848D008DC66281DD067281BD0692821D06E2816D127E0702882
S3250800cca045D0732868D0752847D078280DD14DE0A1690B988847054625283FF469AFE16976
S3250800ccc00B9888476D1C3FF46AAFB3E023466A466FF001000B99AFF300809EE045F040003A
S3250800cce06060A80723464FF0000236D43EE0E8077FF447AF2068011D21600068290501D5FA
S3250800cd0006701BE7290701D5068017E7A90703D5F117C0E9006111E706600FE745F04000A0
S3250800cd206060A80723464FF0080216D41EE040F60E0125EA0100606016E045F0400060609C
S3250800cd40A80723464FF00A0207D40FE045F040006060A80708D5234610226FF001000B9938
S3250800cd60AFF3008059E007E0234610226FF001000B99FFF79FFA50E04FF000094F464B4697
S3250800cd80632802D05B2806D040E0E80601D40120A06001273AE062690121019890475E28A6
S3250800cda005D14FF001096269494601989047216939B900210A46534643F82120491C0829E4
S3250800cdc0FADBB0B3216969B9C11700EBD16253110AEB830122F01F02821A01200B6890405B
S3250800cde003430B6062690121019890475D28E8D1B9F1000F09D00020514651F82020D243F2
S3250800ce0041F82020401C0828F7DB02AB224600976FF001000B99FFF7F3FA00280CDA401C30
S3250800ce2008D1BBF1000F05D04FF0FF300DB0BDE8F08FFFE74046F9E7E90701D108F101081C
S3250800ce4006444FF0000B79E6CCCCCC0C7F2801D9002208E0064A02EB5002C007127800D125
S3250800ce60120902F00F02012090400840704700000C07030870B58C1810F8015B15F007033C
S3250800ce8001D110F8013B2A1106D110F8012B03E010F8016B01F8016B5B1EF9D12B0705D41E
S3250800cea00023521E0DD401F8013BFAE710F8013BCB1A921C03E013F8015B01F8015B521EF4
S3250800cec0F9D5A142D8D3002070BD01460888B0F5004F07DB0888401E4FF6FF72101A088098
S3250800cee0012070470020FCE754494A6822F440324A604A6843681A434A600268526822F42A
S3250800cf00807203685A6002685368026943EA022203685A600268526822F0407203685A60D9
S3250800cf200268526883681A4303685A600268926822F4006203689A6002689268C3681A4325
S3250800cf4003689A603E4B826A9A4218D00268926822F0706203689A6002689268836A1A43CA
S3250800cf6003689A600268926822F0405203689A6002689268C36A1A4303689A600BE0026829
S3250800cf80926822F0706203689A600268926822F0405203689A600268926822F002020368EE
S3250800cfa09A6002689368826943EA420203689A60026AA2B10268526842F4006203685A60A3
S3250800cfc00268526822F4604203685A6002685368426A521E43EA423203685A6005E00268EC
S3250800cfe0526822F4006203685A600268D26A22F470020368DA620268D36A828B521E43EAA6
S3250800d00002520368DA620268926822F4007203689A6002689368026B43EA422203689A60EE
S3250800d0200268926822F4806203689A6002689368426943EA822203689A60704700230140C0
S3250800d0400100000F2DE9FE4F05460E46174699460024072E02DD0020BDE8FE8F802000EB5F
S3250800d060061000F0FF0A8DF808A0E3208DF809000220009002AB012249461046D5F808C0D9
S3250800d080E0478046B8F1000F01D10020E4E7082012F036FE4B480078012821D100241CE07C
S3250800d0a0022012F02DFE00208DF808008DF809000220009002AB002249460120D5F804C016
S3250800d0c0E04780469DF809009DF8081040EA01203D4921F81400601C84B2642CE0DB6FE0C0
S3250800d0e03848007802282DD1002426E0022012F007FE00208DF808008DF8090002200090C2
S3250800d10002AB002249460120D5F804C0E04780469DF809009DF8081040EA0120019001A834
S3250800d120FFF7D3FE0CB9BDF804B0BDF80400584501DDBDF804B0601C84B20A2CD6DBA7F817
S3250800d14000B03DE01F480078032823D100241CE0022012F0D5FD00208DF808008DF80900A5
S3250800d1600220009002AB002249460120D5F804C0E04780469DF809009DF8081040EA01205C
S3250800d180124921F81400601C84B2114800888442DEDB15E000208DF808008DF80900022095
S3250800d1a0009002AB002249460120D5F804C0E04780469DF809009DF8081040EA0120388086
S3250800d1c0404649E7F0000020741200203C130020F20000202DE9FE4F04460D461746984619
S3250800d1e04FF0000A00200190072D01DDBDE8FE8F802000EB051000F0FF098DF80890E3202B
S3250800d2008DF809000220009002AB012241461046D4F808C0E04706460EB90020E6E74FF019
S3250800d220000A1EE0032012F06BFD00208DF808008DF809000220009002AB002241460120E7
S3250800d240D4F804C0E04706469DF809009DF8081040EA012B0198584401900AF1010000F06A
S3250800d260FF0ABAF1100FDDDB0198C0F30F1038803046BBE72DE9FC4704460D4617469846A9
S3250800d280072D02DD0020BDE8FC87802000EB051000F0FF098DF80490E3208DF805000220C5
S3250800d2a0009001AB012241461046D4F808C0E04706460EB90020E6E7052012F021FD022002
S3250800d2c0009001AB002241460120D4F804C0E04706469DF805009DF8041040EA01203880F1
S3250800d2e03046D0E710B500224FF40041224808F077F900224FF480411F4808F071F90022A5
S3250800d3004FF480511C4808F06BF912F0F3FC01221103194808F064F912F0ECFC00224FF4FE
S3250800d3208051154808F05CF900224FF40041124808F056F90122D1030F4808F051F900226B
S3250800d3404FF400410C4808F04BF900224FF48041094808F045F901229103074808F040F9C7
S3250800d36000224FF48041044808F03AF900220821024808F035F910BD0004024000000240F2
S3250800d38070B52DED048B04460E469FED420BB0EE408AF0EE608A9FED410B53EC102B51EC7B
S3250800d3a0180BFFF7B6F941EC180B2046FFF731FA41EC190B53EC182BFFF739F941EC180B75
S3250800d3c051EC180BFFF751FA0446002522E004F0010028B101225103324808F001F905E097
S3250800d3e000224FF400512F4808F0FAF8640800BF00BF0122D1032B4808F0F2F812F07AFC5A
S3250800d40000224FF40041274808F0EAF812F072FC681CC5B2202DDADB0EB1002400E00424B7
S3250800d420002522E004F0010028B1012251031D4808F0D6F805E000224FF40051194808F053
S3250800d440CFF8640800BF00BF0122D103154808F0C7F812F04FFC00224FF40041114808F0BE
S3250800d460BFF812F047FC681CC5B2082DDADB012291030C4808F0B4F812F03CFC00224FF46F
S3250800d4808041084808F0ACF812F034FCBDEC048B70BD0000000000101111A1410000000026
S3250800d4a080842E410004024010B500224FF44071044808F095F800220421034808F090F8E7
S3250800d4c010BD0000000402400008024010B501224FF44071044808F083F8012204210348B3
S3250800d4e008F07EF810BD0000000402400008024010B5044624B10548C1680120884703E026
S3250800d5000248C1680020884710BD00004006002000BFFEE72DE9F04F2DED028B83B08246CD
S3250800d5200F46002405E000207C4921F81400601C84B2642CF7DB002138460AF093F830B94C
S3250800d540012F01D1764D08E03FB9764D05E0012003B0BDEC028BBDE8F08F02200290002668
S3250800d5604EE006EB46007049085C182190FBF1F201FB120000F0FF0806EB46006A49084439
S3250800d5804078182190FBF1F201FB120000F0FF0966490868804715F8091015F80800634A4A
S3250800d5a053683A46984715F8091015F808005F4A93683A4698475D48C16801208847002027
S3250800d5c00DF066FBB0EE408A5848C1680020884756490868804706EB4600534908448078D2
S3250800d5e0534951F820B000EE10BAB8EE400AB4EEC08AF1EE10FA01DB0220A9E7701C86B299
S3250800d60002988642ADDB0AEB4A004A49085C182190FBF1F201FB120000F0FF080AEB4A00F1
S3250800d620444908444078182190FBF1F201FB120000F0FF093D490868804715F8091015F8AE
S3250800d64008003A4A53683A46984715F8091015F80800364A93683A46984700224FF48071AB
S3250800d660354807F0BDFF01225102334807F0B8FF01220421314807F0B3FF01203049087051
S3250800d680902301AA03212F48FFF7DCFC002436E0224901EB4400FFF718FC204931F8141020
S3250800d6a001EB4101C802C11700EB5141C9131B4A22F814104CB9104630F814002249088006
S3250800d6c0104630F8140021490880144830F814001D490988884204DD104830F814001A4987
S3250800d6e008800E4830F8140018490988884204DA0A4830F8140015490880601C84B2642CB2
S3250800d700C6DB00200E4908700848C1680020884706490868804700201AE7000074120020B6
S3250800d7200E5C0020265C0020C00503084006002098050308C605030800040240000802406B
S3250800d740F0000020E405002074060020760600202DE9F04387B080460C4691461D46DDE9D4
S3250800d7600E76681CD0B9BC420CDA2EB126A228A1284811F03DFE11E027A225A1254811F01C
S3250800d78037FE0BE02EB126A221A1224811F030FE04E025A21EA11F4811F02AFE781CD0B942
S3250800d7a0AC420CDD2EB118A219A11A4811F020FE11E01FA216A1174811F01AFE0BE02EB105
S3250800d7c017A213A1134811F013FE04E016A210A1104811F00DFE0F4817A3184A1849CDE926
S3250800d7e00295CDE90084CDE90470164811F000FE144811F09BF911F0C5FA1E2012F080FA58
S3250800d80007B0BDE8F0830000706173730000000025730000E900002053686F7274000000C3
S3250800d8206661696C0000000050617373000000004F70656E00000000676E6400E1000020DB
S3250800d84070080308145B00200146174890ED002AB8EE422AF2EE042A22EE222A62EE012A64
S3250800d86082EEA12ADFED112A82EE223A81ED003AD1ED002A9FED0E3A9FED0E2A12EE832AB7
S3250800d88081ED002A91ED002AB5EEC02AF1EE10FA03DD0020044A106070479FED072A81ED24
S3250800d8a0002A0120F8E70000F400002000007A4448E17A3FEC5102420000000000B587B00F
S3250800d8c000BF002001901048006840F002000E4908600846006800F00200019000BF00BF62
S3250800d8e008200290094803900120049002A9084807F06EFD00221146092007F02EFF09207B
S3250800d90007F010FF07B000BD30380240000031100004024010B52DED028BB0EE408A0CF07E
S3250800d92033FF00224FF40051124807F059FE9FED120AB4EE408AF1EE10FA03D104200CF058
S3250800d940A7F814E09FED0D0AB4EE408AF1EE10FA03D105200CF09CF809E09FED090AB4EE7B
S3250800d960408AF1EE10FA02D106200CF091F8BDEC028B10BD0008024000409C450000FA43BD
S3250800d98000006C420149087070470000F90000202DE9F0472DED048B0446F0EE408AB0EEB3
S3250800d9a0609AB0EE418AF0EE619A0D4617464FF00009092007F0B6FE5E4801683020884723
S3250800d9c05C48416830208847072010F09FFBFFF77DFD072010F034FC574800780DF080F9B8
S3250800d9e0544801685548007888475248416854480078884704F0010020B101222021514847
S3250800da0007F0EEFD04F0020020B1012204214D4807F0E6FD0A2012F073F904F0010020B13A
S3250800da2000222021474807F0DBFD04F0020020B100220421434807F0D3FDB0EE480AFFF7D1
S3250800da4069FF0A2004F03CFD002010F031FA3E490E78F11706EB5171C81010F057FB3A4939
S3250800da600E78F11706EB5171C910A6EBC101C8B210F01EFA0A2004F023FD00203349087047
S3250800da80334908600846D0F80080324809F09EF82F480068304908604FF4C87004F010FDB9
S3250800daa0092007F04DFE1FE029480068A0EB08006421B0FBF1F925480078012814D100F085
S3250800dac053F82846F0EE691AB0EE481AF0EE490AB0EE680AFFF7B8FE20B90420BDEC048BFC
S3250800dae0BDE8F0870720F9E7B945DDD3184800681A490860174809F078F80221114807F079
S3250800db0067FD01280DD101210E4807F061FD012807D19FED130A85ED000A00F025F8062066
S3250800db20DCE79FED100A85ED000A00F01DF80520D4E70000DC05002021060020220600207D
S3250800db40230600200010024020060020F80000203000002048070020FC00002000010020C2
S3250800db60000000007F96184B10B5092007F0DAFD0CF000FE10BD002165E090F82E208A4294
S3250800db8000D181722F22125C8A4200D141723022125C8A4200D101723122125C8A4200D176
S3250800dba0C1713222125C8A4200D181713322125C8A4200D141713422125C8A4200D10171EF
S3250800dbc03522125C8A4200D1C1703622125C8A4200D181703722125C8A4200D141703822E1
S3250800dbe0125C8A4200D141733922125C8A4200D181733A22125C8A4200D1C1733B22125C98
S3250800dc008A4200D101743C22125C8A4200D141743D22125C8A4200D181743E22125C8A42CD
S3250800dc2000D1C1743F22125C8A4200D101754022125C8A4200D141754122125C8A4200D15D
S3250800dc4081754A1CD1B2032997DB0021A9E0027E8A4203D1827A42EA01128272427E8A42B4
S3250800dc6003D1427A42EA01124272827E8A4203D1027A42EA01120272C27E8A4203D1C27929
S3250800dc8042EA0112C271027F8A4203D1827942EA01128271427F8A4203D1427942EA01125B
S3250800dca04271827F8A4203D1027942EA01120271C27F8A4203D1C27842EA0112C270202207
S3250800dcc0125C8A4203D1827842EA011282702122125C8A4203D1427842EA011242702222BD
S3250800dce0125C8A4203D1027842EA011202702322125C8A4203D1027B42EA01120273242213
S3250800dd00125C8A4203D1427B42EA011242732522125C8A4203D1827B42EA01128273262268
S3250800dd20125C8A4203D1C27B42EA0112C2732722125C8A4203D1027C42EA01120274282242
S3250800dd40125C8A4203D1427C42EA011242742922125C8A4203D1827C42EA011282742A221C
S3250800dd60125C8A4203D1C27C42EA0112C2742B22125C8A4203D1027D42EA011202752C22F6
S3250800dd80125C8A4203D1427D42EA011242752D22125C8A4203D1827D42EA011282754A1CBA
S3250800dda0D1B20329FFF653AF7047000010B5044684B33F480088C82879DD00203C49088030
S3250800ddc03C4806F0A7F93C49088004213B4807F0FFFBC8B138480088B0F57A6F0EDB3848FD
S3250800dde00078401C36490870084600781E285EDB0020087001203349087058E00020304987
S3250800de0008703049087052E000202D4908702D4908704CE0FFE72CE0052011F071FF25483C
S3250800de2006F078F9244908800421244807F0D0FBC8B121480088B0F57A6F0EDB2048007864
S3250800de40401C1F490870084600781E2811DB0020087001201B4908700CE000201849087006
S3250800de601849087006E00020154908701549087000E0D1E700BF0221104807F0A9FBB0B13B
S3250800de800D48008840F6B831884210DD0A48008806F02AF90A280ADA04F0BAFE642011F087
S3250800dea02FFF0CF0A7FD4FF47A7011F029FF10BD1C00002058000020060000200000024047
S3250800dec0360000200400002010B50446606811F035FF204611F032FF10BD000038B54FF01D
S3250800dee0AA300090862011F02BF8002404E0FF200E490855601C84B2B4F5805FF7DB0020D9
S3250800df000B49088009490870094A128802F50621064A074B1B88D018012211F0B1F8054AF9
S3250800df200121684611F0C0F938BD0000D8C900208606002080120800002005490870054919
S3250800df4008600549086001200449087070470000F4050020FC050020F8050020000600207B
S3250800df6010B50446FFF7BAFF02A010F0DFFD10F009FF10BD6C6F6767657220697320636C17
S3250800df8065617265640A000070B5044601252078012844D194F82C0002280BD1022232A148
S3250800dfa0E06803F097FA002839D001202F490870002534E094F82C0003280AD103222CA15C
S3250800dfc0E06803F087FA50B3002028490870002525E094F82C00042815D1042225A1E06843
S3250800dfe003F078FA20B1022024490870022516E0042223A1E06803F06DFA80B103201F4971
S3250800e000087003250BE094F82C00052807D105221DA1E06803F05EFA08B107F0F1FB6DB970
S3250800e02012480078012803D119A010F07FFD02E01CA010F07BFD10F0A5FE14E0022D05D11C
S3250800e0401EA010F073FD10F09DFE0CE0032D05D11FA010F06BFD10F095FE04E021A227A1CE
S3250800e06020460CF069FE70BD6F6E0000600000206F6666006B65793100000000F405002071
S3250800e0806B6579320000000072657365740000007B226465627567223A20227472756522B0
S3250800e0a07D0D0A007B226465627567223A202266616C7365227D0D0A000000007B22646555
S3250800e0c0627567223A20226B657931227D0D0A007B226465627567223A20226B6579322247
S3250800e0e07D0D0A00706172616D6574657273206E6F20737570706F727421000032000000BD
S3250800e1002DE9F04104460025A84600272078022802D14FF0100800E00125002D47D194F863
S3250800e1202C0004285AD1042269A1E06803F0D2F9002830D0B8F1100F2DD12D210A5D66A16E
S3250800e140206903F0C7F970B100BF64A010F0EEFC10F018FE142011F0D3FD01210020FFF754
S3250800e160D9F9064618E02D210A5D61A1206903F0B1F970B100255FA010F0D8FC10F002FE85
S3250800e180142011F0BDFD01210846FFF7C3F9064602E0032500E00225002D7ED146B15AA096
S3250800e1a010F0C4FC10F0EEFD142011F0A9FD74E0002710E0594830F8172059A1594811F0C4
S3250800e1c017F9584810F0B2FC10F0DCFD0A2011F097FD781C87B2642FECDB5EE094F82C001E
S3250800e1e0052859D1052250A1E06803F073F9002850D0B8F1100F4DD12D210A5D36A12069B8
S3250800e20003F068F970B1002549A010F08FFC10F0B9FD142011F074FD00210846FFF77AF9AE
S3250800e220064616E02D210A5D31A1206903F052F970B1002543A010F079FC10F0A3FD1420CE
S3250800e24011F05EFD00210120FFF764F9064600E0032505BB46B140A010F068FC10F092FDE1
S3250800e260142011F04DFD18E0002710E02B4830F817202BA12B4811F0BBF82A4810F056FC79
S3250800e28010F080FD0A2011F03BFD781C87B2642FECDB02E0022500E00225B5B1012D05D1EF
S3250800e2a032A238A120460CF047FD0EE0022D05D135A23AA120460CF03FFD06E0032D04D1CF
S3250800e2c037A23CA120460CF037FDBDE8F08100006C656674000000006230350063637069BD
S3250800e2e06E206C656674206230353A0A0000000061303500636370696E206C65667420618D
S3250800e30030353A0A000000006C656674206E6F20636F6E6E656374210A00000074120020C3
S3250800e32025640A00145B00207269676874000000636370696E207269676874206230353A23
S3250800e3400A000000636370696E207269676874206130353A0A0000007269676874206E6F15
S3250800e36020636F6E6E656374210A0000706172616D6574657273206E6F20737570706F7260
S3250800e3807421000031000000636370696E20706F7274206572726F7221000000320000001A
S3250800e3a0636370696E2070696E206572726F7221000000003300000070B50446207828B15D
S3250800e3c00AA20FA120460CF0B7FC70BD0D480CF0F5FB05462A460CA1114811F009F8104835
S3250800e3e010F0A4FB10F0CEFC00BFEEE7706172616D65746572206572726F722100000000E6
S3250800e40030000000401208007B22476574636865636B73756D223A20222575227D0A000073
S3250800e420401000202DE9F84304460026B04600272078022802D14FF0100800E00126002E5F
S3250800e44077D194F82C00042874D104229CA1E06803F040F8002860D0B8F1100F5DD12D21CB
S3250800e4600A5D99A1206903F035F878B100BF97A010F05CFB10F086FC142011F041FC6A462A
S3250800e4800121002003F020FC054647E02D210A5D93A1206903F01EF878B1002691A010F0B0
S3250800e4a045FB10F06FFC142011F02AFC6A460121084603F009FC054630E02D210A5D8EA1F1
S3250800e4c0206903F007F878B100268CA010F02EFB10F058FC142011F013FC6A460121022083
S3250800e4e003F0F2FB054619E02D210A5D88A1206902F0F0FF78B1002686A010F017FB10F01B
S3250800e50041FC142011F0FCFB6A460121032003F0DBFB054602E0032600E00226002E8FD1DA
S3250800e5204DB181A010F002FB10F02CFC142011F0E7FBABE017E0002710E0804830F81720B2
S3250800e5407FA1804810F054FF7E4810F0EFFA10F019FC0A2011F0D4FB781C87B27A4800889D
S3250800e5608742EADB92E094F82C00052871D1052276A1E06802F0AEFF00286BD0B8F1100F16
S3250800e58068D12D210A5D50A1206902F0A3FF78B1002670A010F0CAFA10F0F4FB142011F02A
S3250800e5a0AFFB6A460021084603F08EFB054645E02D210A5D4AA1206902F08CFF78B10026A3
S3250800e5c069A010F0B3FA10F0DDFB142011F098FB6A460021012003F077FB05462EE02D21D9
S3250800e5e00A5D45A1206902F075FF78B1002663A010F09CFA10F0C6FB142011F081FB6A46C7
S3250800e6000021022003F060FB054617E02D210A5D3FA1206902F05EFF78B100265CA010F061
S3250800e62085FA10F0AFFB142011F06AFB6A460021032003F049FB054600E0032616BB55B1B3
S3250800e64058A010F073FA10F09DFB142011F058FB1CE01AE017E0002710E0384830F8172044
S3250800e66037A1384810F0C4FE364810F05FFA10F089FB0A2011F044FB781C87B232480088DE
S3250800e6808742EADB02E0022600E00226B6B1012E05D149A24EA120460CF04EFB0EE0022EBD
S3250800e6a005D14CA250A120460CF046FB06E0032E04D14EA252A120460CF03EFBBDE8F8836A
S3250800e6c06C6566740000000061303400636370696E206C656674206130343A0A00000000BB
S3250800e6e061303900636370696E206C656674206130393A0A000000006230340063637069D7
S3250800e7006E206C656674206230343A0A0000000062303900636370696E206C656674206263
S3250800e72030393A0A000000006C656674206E6F20636F6E6E656374210A0000003C130020D2
S3250800e74025640A00145B0020F20000207269676874000000636370696E20726967687420EE
S3250800e7606130343A0A000000636370696E207269676874206130393A0A000000636370696A
S3250800e7806E207269676874206230343A0A000000636370696E207269676874206230393A25
S3250800e7a00A0000007269676874206E6F20636F6E6E656374210A0000706172616D657465A2
S3250800e7c07273206E6F20737570706F727421000031000000636370696E20706F7274206543
S3250800e7e072726F722100000032000000636370696E2070696E206572726F72210000000014
S3250800e800330000002DE9F0410446002600272078012801D1102700E00126B6B9102F14D175
S3250800e82094F82C10E06809F073F968B1002694F82C10E0680EF0EAFC0546642D00D96425E4
S3250800e840E8B20CF055F900E0022676B1012E05D107A20DA120460CF06FFA06E0022E04D185
S3250800e8600AA20FA120460CF067FABDE8F0810000706172616D6574657273206E6F2073751C
S3250800e88070706F727421000031000000696E7075742076616C7565206572726F722100000B
S3250800e8a03200000010B58CB00446002206A9144807F094FC00220BA9114807F069FC9DF8F9
S3250800e8c01A009DF819109DF818209DF82C30CDE90132CDE903109DF82E0000909DF82D309D
S3250800e8e09DF82F0000F5FA6206A10E4810F080FD0C4810F01BF910F045FA0CB010BD00004B
S3250800e9008407002025642F253032642F253032642D25642D253032643A253032643A2530FF
S3250800e92032640A00401000202DE9F0418CB006460024D6F80C8096F82C703078012809D197
S3250800e940032F24D13A469EA1404602F0C3FDF0B101241CE03078022811D1032F17D13A467B
S3250800e96098A1404602F0B6FD08B102240FE03A4695A1404602F0AEFD48B1042407E093A241
S3250800e98097A130460CF0D8F90CB0BDE8F0812CB98EA294A130460CF0CFF9F5E7012C7DD141
S3250800e9a091480CF00BF9054605F0010010B18F48059002E08D48001D059005F0020010B1E1
S3250800e9c08A48069002E08948001D069005F0040010B18648079002E08448001D079005F0E5
S3250800e9e0200010B18148099002E08048001D099005F0400010B17D480A9002E07B48001D4F
S3250800ea000A9005F0800010B178480B9002E07748001D0B9005F0180098B97448001D089095
S3250800ea20DDE90823DDE90A10CDE90123CDE90310079800906E496F48DDE9052310F0D8FCF5
S3250800ea4028E005F01800102812D168480890DDE90823DDE90A10CDE90123CDE9031007981D
S3250800ea60009065496348DDE9052310F0C1FC11E05E480890DDE90813DDE90A02CDE9011348
S3250800ea80CDE90302079800905C495A48DDE9052310F0AEFC574810F049F800E002E010F0FD
S3250800eaa071F971E7D6F810802D20875D032F23D13A4653A1404602F00DFD10B144F01004D2
S3250800eac038E03A464FA1404602F004FD10B144F020042FE03A464CA1404602F0FBFC10B162
S3250800eae044F4807426E03A4648A1404602F0F2FC00B344F400741DE0042F11D13A4644A131
S3250800eb00404602F0E7FC10B144F0400412E03A4641A1404602F0DEFC60B144F4806409E097
S3250800eb20022F07D13A463EA1404602F0D3FC08B144F08004102C05DA24A23AA130460CF079
S3250800eb40FBF821E7442C28D00CDC222C19D004DC122C13D0142C2FD119E0242C1AD0422C43
S3250800eb602AD111E0842C1BD0B4F5827F1BD0B4F5017F1BD0A4F20440F0B91AE00BF01CF9CA
S3250800eb801AE00BF063FA17E00BF0C6FC14E00BF0A9F911E00BF020FB0EE00BF083FD0BE075
S3250800eba00BF082FB08E00BF0E7FB05E00BF04CFC02E00BF0E3F900BF00BF00BFE4E6000022
S3250800ebc06772700069746D006C696D00706172616D65746572206572726F72210000000026
S3250800ebe0300000003100000010120800D90000200C08030840100020AC0703084C070308D8
S3250800ec0061646A00676E6400766F6800766F6C0076627573000000006464733200000000B3
S3250800ec20545200003200000030B52DED048B89B0044634A000680890002007900690039029
S3250800ec40049005909FED300A10EE105A2078032854D106A807A9CDE9001008AB03AA2BA117
S3250800ec606068FDF70BFB2C49086880479DF820006C2801D1012000E00020024626489DF891
S3250800ec80181043689DF81C0098479DF820006C2801D1012000E0002002461F489DF818105B
S3250800eca083689DF81C0098471B48C16801208847194801690020884710EE105A1648C168A6
S3250800ecc0002088472846FDF7E9FD41EC190B9FED130B53EC102BFDF71CFD41EC180B8DEDA3
S3250800ece0008B9DF818309DF81C200EA1124810F07FFB11480FF01AFF10F044F809B0BDEC3B
S3250800ed00048B30BD6C000000000000002573202573202564202564004006002000000000F5
S3250800ed2000408F4025642C09256409523D092566206B4F686D0A00004010002070B58CB0B9
S3250800ed40044601250020089009900A900B90079006900590049000262078042828D104A8CA
S3250800ed6005A906AACDE90021029007AB08AA1DA16068FDF783FA9DF81C006C2801D101202B
S3250800ed8000E0002002469DF810309DF814109DF8180003F0A3FB064616A00FF0C7FE304615
S3250800eda00FF0B2FE1AA00FF0C1FE0FF0EBFF0025012D05D118A21EA120460BF0BDFF0EE088
S3250800edc0022D05D11BA222A120460BF0B5FF06E0032D04D11FA224A120460BF0ADFF0CB051
S3250800ede070BD0000257320257320256420256420256400007B2244696F646520566472704F
S3250800ee00223A202276616C7565223A2000000000206D567D0D0A0000706172616D657465E7
S3250800ee207273206E6F20737570706F727421000031000000696E7075742076616C756520C6
S3250800ee406D6F7265207468656E2031303021000032000000696E7075742076616C75652091
S3250800ee606572726F722100003300000070B504460125207800B900255DB909A00FF056FEE9
S3250800ee8008480FF053FE08A00FF050FE0FF07AFF04E006A20BA120460BF04EFF70BD000044
S3250800eea07B000000000002087D0D0A00706172616D6574657273206E6F20737570706F7231
S3250800eec0742100003200000070B5044601262078012827D194F82C10E06808F019FE00B33C
S3250800eee094F82C10E0680EF091F90546B5F1006F15D31848854212D2002617A00FF016FE29
S3250800ef00E0680FF013FE17A00FF010FE0FF03AFF052010F0F5FE284609F0D2FB02E0032638
S3250800ef2000E00226012E05D110A216A120460BF003FF0EE0022E05D113A212A120460BF02D
S3250800ef40FBFE06E0032E04D115A20EA120460BF0F3FE70BD000002087B226A6D70223A206F
S3250800ef6022000000227D0D0A00000000706172616D6574657273206E6F20737570706F72B1
S3250800ef807421000032000000706172616D657465727320696E707574206572726F722100AD
S3250800efa061646472657373206D7573742067726561746572207468616E203078383030300F
S3250800efc0303030210000000070B5044601252078012815D194F82C10E0680EF017F9C6B2A0
S3250800efe016B113490868804712A00FF09FFD30460FF08AFD15A00FF099FD0FF0C3FE002531
S3250800f000012D05D112A218A120460BF095FE0EE0022D05D115A21CA120460BF08DFE06E044
S3250800f020032D04D119A21EA120460BF085FE70BD400600207B22416D757820496E697422BE
S3250800f0403A202276616C7565223A20007D0D0A00706172616D6574657273206E6F207375C0
S3250800f06070706F727421000031000000696E7075742076616C7565206D6F7265207468655A
S3250800f0806E2031303021000032000000696E7075742076616C7565206572726F7221000018
S3250800f0a03300000030B58BB0044600250020089009900A9007900690059004900125207881
S3250800f0c0042825D104A805A906AACDE90021029007AB08AA12A16068FDF7D0F8DDE9041018
S3250800f0e0CDE900019DF818309DF81C201049114810F07EF900250F480FF018FD15B90FF017
S3250800f10041FE0AE00CA212A120460BF015FE04E009A210A120460BF00FFE0BB030BD00008D
S3250800f12025732025642025642025642025640000E808030840100020706172616D657465CB
S3250800f1407273206E6F20737570706F7274210000310000003200000038B504462078012806
S3250800f16005D016A21AA120460BF0E6FD38BD94F82C10E06808F0CCFC28B910A215A1204681
S3250800f1800BF0DAFDF2E794F82C10E0680EF03EF80090114A0121684610F086F80E480BF0E8
S3250800f1a00DFD05462A460DA1124810F021F911480FF0BCFC0FF0E6FD00BFD7E77061726147
S3250800f1c06D65746572206572726F7221000000003000000031000000401208007B22536589
S3250800f1e074636865636B73756D223A20222575227D0A000040100020F8B5044600250026A7
S3250800f2002078012801D1102605E02078032801D1202600E0012505BB94F82C0003280DD1D0
S3250800f220032275A1E06802F055F928B1202E03D1002546F0010614E0022512E094F82C00DB
S3250800f24007280DD107226DA1E06802F043F928B1102E03D1002546F0020602E0022500E0AF
S3250800f2600225002D78D1122E7DD0212E76D12D210A5D64A1206902F02DF9F8B12E22115DFE
S3250800f280606908F045FCB8B100BF2E22115D60690DF0BCFF00905E4A0121684610F004F8F3
S3250800f2a05C485DA14269624810F0A2F860480FF03DFC0FF067FD55E0042553E02D210A5D26
S3250800f2c05CA1206902F006F900B32E22115D606908F01EFCC0B100252E22115D60690DF043
S3250800f2e095FF00904A4A1032012168460FF0DCFF484851A142694E4810F07AF84C480FF094
S3250800f30015FC0FF03FFD2DE004252BE02D210A5D4DA1206902F0DEF818B32E22115D60690C
S3250800f32008F0F6FBD8B100252E22115D60690DF06DFF0090364A2032012168460FF0B4FF54
S3250800f340344843A142693A4810F052F838480FF0EDFB0FF017FD05E02CE004E029E0042547
S3250800f36000E0032525E02A480BF028FC00903DA00FF0DCFB00980FF0C7FB3EA00FF0D6FB97
S3250800f380234810300BF01AFC009000980FF0BCFB3BA00FF0CBFB1E4820300BF00FFC0090D9
S3250800f3a000980FF0B1FB2DA00FF0C0FB0FF0EAFC00BF00BFF5B1012D05D135A23AA1204650
S3250800f3c00BF0BAFC16E0022D05D138A23BA120460BF0B2FC0EE0032D05D139A23CA120469C
S3250800f3e00BF0AAFC06E0042D04D13AA23EA120460BF0A2FCF8BD000073657400726561641B
S3250800f400636667006672657175656E637900000050120800401200207B22667265717565DB
S3250800f4206E6379223A20222573227D0D0A00000040100020706761007B22706761223A208F
S3250800f440222573227D0D0A0062756666000000007B2262756666223A20222573227D0D0A5F
S3250800f460000000007B226672657175656E6379223A202200222C2022706761223A2022000B
S3250800f480222C202262756666223A202200000000706172616D6574657273206E6F20737554
S3250800f4a070706F72742100003100000064647320736574206572726F722100003200000073
S3250800f4c07365742074797065206572726F72210033000000696E7075742076616C756520C5
S3250800f4e06572726F7221000034000000F8B50446002500262078012801D1102605E02078F7
S3250800f500032801D1202600E0012505BB94F82C0003280DD103228EA1E06801F0DBFF28B1D3
S3250800f520202E03D1002546F0010614E0022512E094F82C0007280DD1072286A1E06801F0DE
S3250800f540C9FF28B1102E03D1002546F0020602E0022500E00225002D78D1122E77D0212E2B
S3250800f56076D12D210A5D7DA1206901F0B3FFF8B12E22115D606908F0CBFAB8B100BF2E22D2
S3250800f580115D60690DF042FE0090774A012168460FF08AFE754876A142697B480FF028FFD9
S3250800f5a079480FF0C3FA0FF0EDFB7DE004257BE02D210A5D75A1206901F08CFF00B32E2225
S3250800f5c0115D606908F0A4FAC0B100252E22115D60690DF01BFE0090634A103201216846CE
S3250800f5e00FF062FE61486AA1426967480FF000FF65480FF09BFA0FF0C5FB55E0042553E001
S3250800f6002D210A5D66A1206901F064FF18B32E22115D606908F07CFAD8B100252E22115D17
S3250800f62060690DF0F3FD00904F4A2032012168460FF03AFE4D485CA1426953480FF0D8FED7
S3250800f64051480FF073FA0FF09DFB2DE05FE02CE05CE0042528E02D210A5D58A1206901F013
S3250800f66039FF00B32E22115D606908F051FAC0B100252E22115D60690DF0C8FD00903A4AD4
S3250800f6803032012168460FF00FFE38484EA142693D480FF0ADFE3C480FF048FA0FF072FBA4
S3250800f6a002E0042500E0032530E02F480BF086FA00904BA00FF03AFA00980FF025FA4CA0D7
S3250800f6c00FF034FA284810300BF078FA009000980FF01AFA49A00FF029FA234820300BF0D6
S3250800f6e06DFA009000980FF00FFA48A00FF01EFA1D4830300BF062FA009000980FF004FA25
S3250800f7002CA00FF013FA0FF03DFB00BF00BFF5B1012D05D142A248A120460BF00DFB16E078
S3250800f720022D05D145A249A120460BF005FB0EE0032D05D146A24AA120460BF0FDFA06E07F
S3250800f740042D04D147A24CA120460BF0F5FAF8BD73657400726561646366670066726571F4
S3250800f76075656E6379000000A0120800401200207B226672657175656E6379223A202225F9
S3250800f78073227D0D0A00000040100020706761007B22706761223A20222573227D0D0A00C9
S3250800f7a062756666000000007B2262756666223A20222573227D0D0A0000000073686F72B0
S3250800f7c0746C696D000000007B2273686F72746C696D223A20222573227D0D0A000000006A
S3250800f7e07B226672657175656E6379223A202200222C2022706761223A202200222C2022F8
S3250800f80062756666223A202200000000222C202273686F72746C696D223A202200000000F9
S3250800f820706172616D6574657273206E6F20737570706F727421000031000000646473328D
S3250800f84020736574206572726F722100320000007365742074797065206572726F722100F8
S3250800f86033000000696E7075742076616C7565206572726F7221000034000000F0B587B05F
S3250800f8800546002400262878012801D1102600E00124002C30D10DF11B00411E821E06ABF9
S3250800f8a0CDE90132CDE90310001F00900B1F05AA22A1E868FCF7E2FC07281CD105A808F05B
S3250800f8c063F9B0B100BF46F001069DF81B009DF81A109DF81920CDE9002102909DF81830DE
S3250800f8e09DF817209DF81610BDF8140009F002FF02E0022400E002246CB9112E0AD115A1AD
S3250800f9001648EA680FF074FD14480FF00FF90FF039FA00BF00BF74B1012C05D110A216A115
S3250800f92028460BF009FA06E0022C04D113A218A128460BF001FA07B0F0BD000025642F2551
S3250800f940642F25642D25642D25643A25643A25640000000025730D0A00000000401000206C
S3250800f960706172616D6574657273206E6F20737570706F72742100003100000074696D650A
S3250800f98020666F726D6174206572726F722100003200000030B58DB0044601252EA000684B
S3250800f9a00C9000200B900A90099008900590069007902078052834D108A809A90AAA0BABBF
S3250800f9c0CDE90032CDE902100CAB05AA23A16068FCF754FC9DF8200000909DF830006C2896
S3250800f9e001D1012000E0002002469DF824309DF828109DF82C000BF045FC9DF820009DF8C1
S3250800fa002410CDE900109DF828309DF82C2018A11F480FF0EDFC1E480FF088F80FF0B2F979
S3250800fa200025012D05D11BA220A120460BF084F910E0022D05D11EA224A120460BF07CF9E3
S3250800fa4008E0032D05D122A226A120460BF074F900E000BF0DB030BD6C00000025732025BF
S3250800fa607320256420256420256420256400000025642C092564095363616C653A20256446
S3250800fa8009536E735365743A2025640A0000000040100020706172616D6574657273206ED0
S3250800faa06F20737570706F727421000031000000696E7075742076616C7565206D6F7265FA
S3250800fac0207468656E2031303021000032000000696E7075742076616C7565206572726F00
S3250800fae0722100003300000070B5044601252078012814D194F82C10E0680DF087FBC6B2F0
S3250800fb003046FDF7F5FC12A00FF010F830460EF0FBFF16A00FF00AF80FF034F90025012D1F
S3250800fb2005D113A218A120460BF006F90EE0022D05D116A21CA120460BF0FEF806E0032D3E
S3250800fb4004D11AA21EA120460BF0F6F870BD00007B22416D757820456E61626C65223A20B0
S3250800fb602276616C7565223A200000007D0D0A00706172616D6574657273206E6F207375EF
S3250800fb8070706F727421000031000000696E7075742076616C7565206D6F7265207468652F
S3250800fba06E2031303021000032000000696E7075742076616C7565206572726F72210000ED
S3250800fbc0330000002DE9FC4105460127FA480AF0F5FF0090002001902878022803D03020C0
S3250800fbe08DF80400E0E1EE6895F82C40032C6FD12246F2A1304601F06DFC002830D02E6965
S3250800fc002D20445D022C12D12246EDA1304601F061FC40B10027009840F001000090E9A023
S3250800fc200EF084FFC0E132208DF80400BCE1032C12D12246E9A1304601F04CFC40B1002751
S3250800fc40009820F001000090E5A00EF06FFFABE132208DF80400A7E132208DF80400A3E11E
S3250800fc602246E5A1304601F035FC002831D02E692D20445D022C12D12246D1A1304601F0F0
S3250800fc8029FC40B10027009840F002000090DBA00EF04CFF88E132208DF8040084E1032C23
S3250800fca012D12246CDA1304601F014FC40B10027009820F002000090D4A00EF037FF73E1B8
S3250800fcc032208DF804006FE132208DF804006BE1B3E02246D2A1304601F0FCFB002838D0C8
S3250800fce02E692D20445D022C16D12246B4A1304601F0F0FB60B10027009820F008000090D5
S3250800fd00009840F010000090C6A00EF00FFF4BE132208DF8040047E1032C16D12246AFA1FE
S3250800fd20304601F0D7FB60B10027009820F008000090009820F010000090BEA00EF0F6FE6C
S3250800fd4032E132208DF804002EE132208DF804002AE12246BCA1304601F0BCFB80B32E6905
S3250800fd602D20445D022C12D1224695A1304601F0B1FB40B10027009840F020000090B3A0E2
S3250800fd800EF0D4FE10E132208DF804000CE1032C12D1224691A1304601F09CFB40B100270A
S3250800fda0009820F020000090ACA00EF0BFFEFBE032208DF80400F7E032208DF80400F3E09B
S3250800fdc0FFE72246AAA1304601F084FB80B32E692D20445D022C12D1224679A1304601F0E4
S3250800fde079FB40B10027009840F040000090A1A00EF09CFED8E032208DF80400D4E0032C82
S3250800fe0012D1224675A1304601F064FB40B10027009820F0400000909AA00EF087FEC3E0BD
S3250800fe2032208DF80400BFE032208DF80400BBE0FFE731208DF80400B6E0042C74D10422D3
S3250800fe4095A1304601F046FB80B32E692D20445D022C12D122465AA1304601F03BFB40B1FC
S3250800fe600027009840F0040000908DA00EF05EFE9AE032208DF8040096E0032C12D1224625
S3250800fe8056A1304601F026FB40B10027009820F00400009087A00EF049FE85E032208DF8D9
S3250800fea0040081E032208DF804007DE0FFE7042285A1304601F00EFB80B32E692D20445D3D
S3250800fec0022C12D122463EA1304601F003FB40B10027009840F0800000907DA00EF026FE28
S3250800fee062E032208DF804005EE0032C12D122463AA1304601F0EEFA40B10027009820F035
S3250800ff008000009077A00EF011FE4DE032208DF8040049E032208DF8040045E000E003E0AB
S3250800ff2031208DF804003FE0022C3DD1224672A1304601F0CFFA78B32E692D20445D022CF5
S3250800ff4016D122461EA1304601F0C4FA60B10027009840F008000090009820F01000009080
S3250800ff6066A00EF0E3FD1FE032208DF804001BE0032C16D1224619A1304601F0ABFA60B165
S3250800ff800027009820F008000090009820F01000009028A00EF0CAFD06E032208DF8040056
S3250800ffa002E032208DF804002FB158A201A928460AF0C2FEBBE0B3E01012080061646A0043
S3250800ffc06F6E00007B2261646A6163656E74223A20226F6E227D0D0A000000006F666600F3
S3250800ffe07B2261646A6163656E74223A20226F6666227D0D0A000000676E64007B22676EE2
S3250801000064223A20226F6E227D0D0A007B22676E64223A20226F6666227D0D0A00000000D7
S32508010020646473007B22646473223A20226F6E227D0D0A007B2254525F646473223A2022F2
S325080100406F6666227D0D0A00766F68007B22766F68223A20226F6E227D0D0A007B22766FB6
S3250801006068223A20226F6666227D0D0A00000000766F6C007B22766F6C223A20226F6E229E
S325080100807D0D0A007B22766F6C223A20226F6666227D0D0A00000000766275730000000080
S325080100a07B2276627573223A20226F6E227D0D0A000000007B2276627573223A20226F66D3
S325080100c066227D0D0A00000064647332000000007B2264647332223A20226F6E227D0D0A4D
S325080100e0000000007B2264647332223A20226F6666227D0D0A000000545200007B2254526F
S32508010100223A20226F6E227D0D0A0000706172616D65746572206572726F72210000000073
S32508010120044A012168460FF0BFF80EF02BFEBDE8FC810000101208002DE9F04705460024AD
S325080101402878032806D089A28DA128460AF0F4FDBDE8F087D5F80C8095F82C60032E15D198
S32508010160324688A1404601F0B5F918B10124DFF8189218E0324685A1404601F0ABF990B149
S325080101800224DFF8049209F108090CE0042E0AD132467FA1404601F09DF920B10424DFF844
S325080101a0E89109F110092CB970A27BA128460AF0C3FDCDE7D5F810802D20465D032E14D152
S325080101c0324676A1404601F085F918B144F01004734F21E0324673A1404601F07BF9D8B1B8
S325080101e044F020046E4F083716E0042E14D132466DA1404601F06EF920B144F04004684F2B
S32508010200103709E032466AA1404601F063F918B144F08004624F1837102C05DA53A266A1B1
S3250801022028460AF089FD93E7D5F814802E20465D04F0010050B13146404607F0BCFB08BB91
S325080102404AA25EA128460AF077FD81E704F0020050B13146404607F0EEFB98B943A257A15E
S3250801026028460AF069FD73E704F0040050B13146404607F045FC28B93CA250A128460AF001
S325080102805BFD65E7412C40D00EDC212C2BD006DC112C16D0122C1AD0142C5AD11DE0222C19
S325080102a027D0242C55D12AE0812C40D004DC422C31D0442C4DD134E0822C3ED0842C48D185
S325080102c041E001223146404607F0DCFC41E001223146404607F026FD3BE001223146404669
S325080102e007F022FF35E003223146404607F0CAFC2FE003223146404607F014FD29E003227C
S325080103003146404607F010FF23E002223146404607F0B8FC1DE002223146404607F002FDE8
S3250801032017E002223146404607F0FEFE11E004223146404607F0A6FC0BE0042231464046E8
S3250801034007F0F0FC05E004223146404607F0ECFE00BF00BF002008F8060043463A46494686
S3250801036017A00FF09BFF00BFF2E60000706172616D65746572206572726F7221000000005B
S325080103803000000061646A0061000020676E640076627573000000003100000072657300FA
S325080103a091000020636170007664727000000000736B697000000000320000003300000071
S325080103c07B222573223A207B222573223A20222573227D7D0D0A000070B504460126207891
S325080103e002287ED194F82C0001287AD1012249A1E06801F06FF8002822D02D22115D20693C
S3250801040007F086FBD0B12D22115D20690CF0FEFE05460026642D0FD8E8B23F4A5168884702
S325080104203EA00EF083FB28460EF06EFB41A00EF07DFB0EF0A7FC54E0022652E0032650E09F
S3250801044001223DA1E06801F045F810B32D22115D206907F05DFBD0B12D22115D20690CF0FB
S32508010460D5FE05460026642D0FD8E8B22A4A9168884732A00EF05AFB28460EF045FB2DA03D
S325080104800EF054FB0EF07EFC2BE0022629E0032627E001222FA1E06801F01CF8F8B12D22E4
S325080104a0115D206907F034FBD0B12D22115D20690CF0ACFE05460026642D0FD8E8B2164AC0
S325080104c0D168884724A00EF031FB28460EF01CFB18A00EF02BFB0EF055FC02E0022600E07F
S325080104e00326012E05D122A227A120460AF024FC0EE0022E05D125A22BA120460AF01CFCB4
S3250801050006E0032E04D129A22DA120460AF014FC70BD000072000000380000207B226C6572
S3250801052064223A202272222C202276616C7565223A2000007D0D0A00670000007B226C65A6
S3250801054064223A202267222C202276616C7565223A200000620000007B226C6564223A204A
S325080105602262222C202276616C7565223A200000706172616D6574657273206E6F20737586
S3250801058070706F727421000031000000696E7075742076616C7565206D6F72652074686524
S325080105a06E2031303021000032000000696E7075742076616C7565206572726F72210000E2
S325080105c0330000002DE9FC5F054600242878052806D0D9A2DDA128460AF0AEFBBDE8FC9F0C
S325080105e0D5F80C9095F82C60032E16D13246D8A1484600F06FFF18B10124DFF8588345E0B0
S325080106003246D5A1484600F065FF00283ED00224DFF8408308F1080838E0042E0BD132465E
S32508010620CEA1484600F056FF08B30424DFF8248308F110082AE0022E0BD13246C9A1484671
S3250801064000F048FF98B10824DFF8088308F118081CE0052E0CD13246C3A1484600F03AFFC5
S3250801066028B14FF48074DFF8EC8208F120080DE0072E0BD13246BEA1484600F02BFF28B19F
S325080106804FF40074DFF8CC8208F128082CB9AAA2B9A128460AF050FBA0E7D5F810902D20C7
S325080106a0465D032E2AD13246B4A1484600F012FF18B144F01004B24F44E03246B1A1484672
S325080106c000F008FF20B144F02004AD4F083739E03246ADA1484600F0FDFE20B144F480547B
S325080106e0A74F30372EE03246A8A1484600F0F2FE40B344F40054A24F383723E0042E15D157
S325080107003246A3A1484600F0E5FE20B144F040049B4F103716E032469FA1484600F0DAFE2F
S3250801072080B144F48044964F40370BE0022E09D132468CA1484600F0CDFE18B144F08004BD
S325080107408F4F2037102C05DA7BA295A128460AF0F3FA43E7D5F814902E20465D3146484601
S3250801076007F0D6F928B974A28EA128460AF0E4FA34E7314648460CF049FD8346D5F8189098
S325080107802F20465D3146484607F0C2F928B96AA285A128460AF0D0FA20E7314648460CF054
S325080107a035FD8246D5F81C903020465D04F0010058B13146484607F0FEF800285CD15EA27F
S325080107c07AA128460AF0B8FA08E704F0020058B13146484607F02FF900284DD156A273A171
S325080107e028460AF0A9FAF9E604F0040058B13146484607F085F900283ED14FA26BA12846E3
S325080108000AF09AFAEAE604F0080050B13146484607F05EF978BB48A264A128460AF08CFA0B
S32508010820DCE604F4805050B13146484607F058F908BB41A25DA128460AF07EFACEE604F4A1
S32508010840005050B13146484607F052F998B93AA256A128460AF070FAC0E604F4004050B11C
S325080108603146484607F0DFF828B933A24FA128460AF062FAB2E6FFE74FF60F700440082C72
S3250801088026D006DC012C0ED0022C13D0042C3BD117E0B4F5885F22D0B4F5045F26D0B4F5F5
S325080108a0844F31D129E053465A463146484607F08BFC29E053465A463146484607F03AFD1A
S325080108c022E053465A463146484607F09FFE1BE053465A463146484607F086FD14E05346F5
S325080108e05A463146484607F0D9FD0DE053465A463146484607F02EFE06E053465A46314693
S32508010900484607F0BBFC00BF00BF002009F806003B46424626A13348CDE900BA0EF068FDC9
S3250801092030480EF003F90EF02DFA49462EA00FF0B5FC00BF52E60000706172616D657465BE
S3250801094072206572726F7221000000003000000061646A0061000020676E640076627573D2
S325080109600000000054520000636370696E0000007662757370696E00310000007265730033
S325080109809100002063617000766F6800766F6C00766472700000000064647332000000009C
S325080109a0320000003300000034000000350000007B222573223A207B222573223A207B225B
S325080109c06F70656E206C696D6974223A2025642C202273686F7274206C696D6974223A20B9
S325080109e025642C004010002020222573227D7D7D0D0A0000F8B50446002701272078012832
S32508010a0077D1E66894F82C50032D60D12A4656A1304600F05FFD48B154A00EF087F85BA03A
S32508010a200EF084F803200090002782E02A465BA1304600F04FFD48B14CA00EF077F858A089
S32508010a400EF074F805200090002772E02A4658A1304600F03FFD48B144A00EF067F855A0B5
S32508010a600EF064F807200090002762E02A4655A1304600F02FFD48B13CA00EF057F852A0E1
S32508010a800EF054F804200090002752E02A4652A1304600F01FFD48B134A00EF047F84FA012
S32508010aa00EF044F806200090002742E02A464FA1304600F00FFD00283BD02CA00EF036F8F1
S32508010ac04BA00EF033F808200090002731E0012D2FD12A464AA1304600F0FCFC50B123A058
S32508010ae00EF024F847A00EF021F80020009000271FE032E02A4645A1304600F0EBFC48B14B
S32508010b001AA00EF013F842A00EF010F80120009000270EE02A4641A1304600F0DBFC40B1D5
S32508010b2012A00EF003F83EA00EF000F80220009000272FB13DA243A120460AF0FDF811E065
S32508010b40414A012168460EF0AFFB0EF01BF905200FF0D6F801F046FF04E034A23BA120464D
S32508010b600AF0EAF8F8BD000063316C007B2269506F727420506F736974696F6E223A202217
S32508010b8076616C7565223A20000000002243315F4C656674227D0D0A0000000063326C0076
S32508010ba02243325F4C656674227D0D0A0000000063336C002243335F4C656674227D0D0AB5
S32508010bc000000000633172002243315F5269676874227D0D0A000000633272002243325F5A
S32508010be05269676874227D0D0A000000633372002243335F5269676874227D0D0A0000007F
S32508010c0030000000224E41227D0D0A006C000000224C656674227D0D0A00000072000000ED
S32508010c20225269676874227D0D0A0000706172616D6574657273206E6F20737570706F72D5
S32508010c407421000031000000201208003200000070B5044601252078022875D194F82C00FE
S32508010c60042819D10422B6A1E06800F033FC002812D02D210A5DB4A1206900F02BFC60B1A6
S32508010c800025B5A00DF052FFB8480DF04FFFB8A00DF04CFF0EF076F83AE12D210A5DB6A1FF
S32508010ca0206900F017FC68B10025B6A00DF03EFFAE4830300DF03AFFADA00DF037FF0EF0C1
S32508010cc061F825E12D210A5DB3A1206900F002FC68B10025B3A00DF029FFA44860300DF0F7
S32508010ce025FFA3A00DF022FF0EF04CF810E12D210A5DB1A1206900F0EDFB68B10025B1A036
S32508010d000DF014FF994890300DF010FF98A00DF00DFF0EF037F8FBE02D210A5DAEA1206931
S32508010d2000F0D8FB70B10025B0A00DF0FFFE8F48C0300DF0FBFE8EA00DF0F8FE0EF022F85B
S32508010d40E6E001E00325E3E020780328A4D194F82C000528A0D10522AAA1E06800F0BAFB05
S32508010d60002899D02E20005D302806DD30212E2001550021606980F82F102D210A5D72A18F
S32508010d80206900F0A7FBF0B100252E20025D77486169FBF746FA00212E20005D734A11540D
S32508010da04FF480524FF4012170480EF0B4F86AA00DF0BCFE6D480DF0B9FE6DA00DF0B6FE60
S32508010dc00DF0E0FFA4E02D210A5D6BA1206900F081FB08B300252E20025D6448303061698B
S32508010de0FBF71FFA00212E20005D30305F4A11544FF480524FF401215C480EF08CF861A0FE
S32508010e000DF094FE594830300DF090FE58A00DF08DFE0DF0B7FF7BE02D210A5D5EA12069DD
S32508010e2000F058FB08B300252E20025D4F4860306169FBF7F6F900212E20005D60304B4A10
S32508010e4011544FF480524FF4012148480EF063F854A00DF06BFE454860300DF067FE44A0FE
S32508010e600DF064FE0DF08EFF52E02D210A5D52A1206900F02FFB08B300252E20025D3B48ED
S32508010e8090306169FBF7CDF900212E20005D9030364A11544FF480524FF4012133480EF09D
S32508010ea03AF848A00DF042FE304890300DF03EFE2FA00DF03BFE0DF065FF29E02D210A5D37
S32508010ec045A1206900F006FB08B300252E20025D2648C0306169FBF7A4F900212E20005D93
S32508010ee0C030224A11544FF480524FF401211F480EF011F83DA00DF019FE1C48C0300DF0F8
S32508010f0015FE1BA00DF012FE0DF03CFF00E00325012D05D13DA243A1204609F00DFF0EE087
S32508010f20022D05D140A245A1204609F005FF06E0032D04D142A247A1204609F0FDFE70BD34
S32508010f40726561640000000073657269616C5F6E756D6265720000007B2273657269616C61
S32508010f605F6E756D626572223A202200D8B90020227D0D0A000000006D6C625F6E756D6229
S32508010f80657200007B226D6C625F6E756D626572223A20220000000068775F7665727369A6
S32508010fa06F6E00007B2268775F76657273696F6E223A20220000000066775F766572736961
S32508010fc06F6E00007B2266775F76657273696F6E223A202200000000646174655F6D616E6F
S32508010fe07566616374757265640000007B22646174655F6D616E7566616374757265642264
S325080110003A2022007772697465000000706172616D6574657273206E6F20737570706F7220
S325080110207421000031000000696E7075742076616C7565206572726F7221000032000000D1
S32508011040696E707574206F6666736574206572726F722100330000007CB5054643A00DF0B0
S3250801106065FD0DF08FFE14200EF04AFE01210846FCF750FA0446002C34D1012009F0ACFB12
S325080110800120811E40F6C41342A2CDE900104248018842A0FCF75CFB01206421831E40A262
S325080110a0CDE900103F4801883CA0FCF751FB01210020FCF72FFA0120811E40F6C41335A22E
S325080110c0CDE900103448018837A0FCF741FB01206421831E32A2CDE900103248018832A07A
S325080110e0FCF736FB00210120FCF714FA0446002C33D109F071FB0120811E40F6C41325A207
S32508011100CDE900102448018824A0FCF721FB01206421831E22A2CDE90010224801881FA0AF
S32508011120FCF716FB00210846FCF7F4F90120811E40F6C41317A2CDE90010174801881AA05F
S32508011140FCF706FB01206421831E15A2CDE900101448018814A0FCF7FBFA14A00DF0E6FCB4
S325080111600DF010FE14200EF0CBFD7CBD7B2267726F7570223A20226D657373616765222C87
S3250801118020226974656D223A20227374617274227D0A0000766F680074060020613035002D
S325080111a0766F6C0076060020623035007B2267726F7570223A20226D657373616765222CD1
S325080111c0226974656D223A2022656E64227D0A0010B504462078012837D194F82C000328F6
S325080111e00FD1032219A1E06800F074F968B348F2A5001749096808604FF0006007F060FA59
S3250801120023E094F82C000A281FD10A2211A1E06800F060F9C8B102201149087009F0E0FC31
S3250801122000231A4641F28831480008F09BFB00200C4908800C48007838B901200A490870B4
S325080112400A49087000200A49088010BD6D63750090060020626F6F746C6F616465720000C6
S3250801126096060020940600202C000020280000202A00002010B504460BA00DF057FC0DF004
S3250801128081FD14200EF03CFD01200DF08DFD00200DF08AFD0EA00DF049FC0DF073FD142079
S325080112a00EF02EFD10BD00007B2267726F7570223A20226D657373616765222C202269746F
S325080112c0656D223A20227374617274227D0A00007B2267726F7570223A20226D6573736137
S325080112e06765222C226974656D223A2022656E64227D0A00F8B5044601262078022835D190
S3250801130094F82C00042879D1042248A1E06800F0E1F8002872D02D22115D206906F0F8FBD7
S32508011320002821D02D22115D20690BF06FFF0546002640F6FC718D4260D805F5012009F0A7
S325080113403DFC00903BA00DF0F1FB28460DF0DCFB3FA00DF0EBFB00980DF0D6FB3FA00DF0AB
S32508011360E5FB0DF00FFD49E0032647E02078032844D194F82C00052840D1052238A1E068E6
S3250801138000F0A8F8002839D02D22115D206906F0BFFB002831D02D22115D20690BF036FFE8
S325080113a00546002640F6FC718D4227D82E22115D606906F0ADFBF0B12E22115D60690BF0F4
S325080113c025FF009005F50122012168460DF06CFF00BF25A00DF0AAFB28460DF095FB1CA018
S325080113e00DF0A4FB00980DF08FFB1CA00DF09EFB0DF0C8FC02E0022600E00326012E05D1F8
S3250801140021A227A1204609F097FC0EE0022E05D124A229A1204609F08FFC06E0032E04D1E6
S3250801142026A22BA1204609F087FCF8BD72656164000000007B22656570726F6D223A202213
S3250801144072656164222C226F6666736574222C002C202276616C7565223A20007D0D0A0001
S3250801146077726974650000007B22656570726F6D223A20227772697465222C226F66667326
S325080114806574222C00000000706172616D6574657273206E6F20737570706F727421000087
S325080114a031000000696E7075742076616C7565206572726F7221000032000000696E707526
S325080114c074206F6666736574206572726F7221003300000030B503460C46002107E0585C08
S325080114e0655CA84201D0002030BD481CC1B29142F5DB0120F8E7000010B55849584802F0E2
S3250801150089FE002412E05548007A5649095D88420AD1544B1A5D514B5968534B03EB04104B
S32508011520FFF7D8FF00B103E0601CC4B21E2CEADB00BF1E2C13D2DFE804F00F13171B1F23FB
S32508011540272B2F33373B3F43474B4F53575B5F63676B6F73777B7F834048FCF715FD73E0A4
S325080115603E48FDF783FC6FE03C48FEF735FF6BE03A48FFF7BFFE67E03848FDF7A5FC63E048
S325080115803648FFF725FE5FE03448FDF74DFB5BE03248FEF7FFF957E03048FEF7A5FA53E096
S325080115a02E48FDF711FD4FE02C48FDF7C7FB4BE02A48FEF707FB47E02848FEF7BDFD43E04E
S325080115c02648FEF7FFFF3FE02448FDF7ADF93BE02248FDF7C1FD37E02048FCF7EDFE33E0CF
S325080115e01E48FFF707FA2FE01C48FDF75BFD2BE01A48FFF72DFB27E01848FDF7FDFD23E0DD
S325080116001648FEF73BF91FE01448FDF74BF91BE01248FDF7F7F817E01048FCF7A1FC13E097
S325080116200E48FFF719FD0FE00C48FCF769FD0BE00A48FDF75BFF07E00848FCF7F3FE03E014
S325080116400648FFF717FE00BF00BF1E2C04D107A20CA1024809F070FB10BD00004012002042
S32508011660B80B0020DC050208FC030208636F6D6D616E64206E6F7420737570706F72746592
S32508011680642100003100000070B504460D4610200C4908602020086040200860802008605E
S325080116a001200860022008604CF2503002F07AFB2946204602F0ACFA4CF2503002F072FB59
S325080116c070BD00000C3C024030B503460C46002000221BE00001995C302905DB392903DC17
S325080116e0A1F13005E9B20EE0412905DB462903DCA1F13705E9B206E0612904DB662902DCCE
S32508011700A1F15705E9B20843551CEAB2A242E1DB30BD2DE9F04705460F461646B9464FEACB
S32508011720960806F0030008B108F10108002409E059F824C0624600232946022003F09EFD1C
S325080117402D1D641C4445F3D3BDE8F087F8B50722A549A648FFF7BEFEE0B9A5484168322060
S325080117608847A348816800208847A148C168002088474FF464759F4E002403E0305D9E4943
S325080117800855641CAC42F9D3AAB24FF402219A480DF0C1FB4FF4647297499848FAF741FD3E
S325080117a0072297499748FFF795FEF0B990484168002088478E488168322088478C48C168B3
S325080117c0002088474FF4F0758F4E002405E0315D04F58050884A1154641CAC42F7D3AAB25B
S325080117e04FF4032189480DF096FB4FF4F07287498748FAF716FD072286498748FFF76AFEA7
S32508011800F0B97B4841680020884779488168002088477748C168322088474FF4F0757F4E9E
S32508011820002405E0315D04F50050734A1154641CAC42F7D3AAB24FF4042179480DF06BFB77
S325080118404FF4F07276497748FAF7EBFC072276497648FFF73FFE00BB6548416800208847A5
S3250801186063488168002088476148C16832208847C0256D4EA83E002405E0315D04F540503D
S325080118805D4A1154641CAC42F7D34FF480524FF405216648A8380DF03EFBC0226349A83944
S325080118a06348FAF7BEFC072262496348FFF712FE00BB4F484168002088474D4881680020B6
S325080118c088474B48C168322088473025594E183E002405E0315D04F56050474A1154641C45
S325080118e0AC42F7D34FF480524FF405214F48A8380DF011FB3022504918395048FAF791FCD1
S3250801190007224F494F48FFF7E5FD00BB384841680020884736488168002088473448C168BA
S32508011920322088473025464E183E002405E0315D04F56850304A1154641CAC42F7D34FF496
S3250801194080524FF405213948A8380DF0E4FA30223C4918393C48FAF764FC07223B493C48D3
S32508011960FFF7B8FDF8B9224841680020884720488168002088471E48C168322088471825CD
S32508011980324E002405E0315D04F570501A4A1154641CAC42F7D34FF480524FF4052123487E
S325080119a0A8380DF0B8FA182229492A48FAF739FC0F484168002088470D4881680020884729
S325080119c00B48C16800208847234809F0F7F80090009800F47F0030B9204800901E4A012134
S325080119e068460DF061FCF8BD88000308507D00203800002010FD0208D8790020905C0020AF
S32508011a0068020308A08B0020A0000308D88900202060002048040308A09B002080020308EC
S32508011a20D8990020006200200805030880AA0020E063002038050308F0B10020A064002092
S32508011a4068050308F0B30020D064002080050308D8B500200065002010120800EF00FF000E
S32508011a602DE9F74F82B0804600200190002405E018F8040000B903E0601CC4B2FF2CF7DBAA
S32508011a8000BFFF2C03D1002005B0BDE8F08F019408200EF021FA0546019CE00028800C200E
S32508011aa068802888C11700EB5171C1F3C707698801FB07F00EF010FA6860D5F804904FF024
S32508011ac0000A00264EE0039828B118F8060002F09BF9009004E018F8060002F0CFF90090B5
S32508011ae0BAF1000F21D000241BE00098005DC0F1FF0B07FB04F0401E19F80010CAF1080025
S32508011b004BFA00F0014307FB04F0401E09F800100BFA0AF0C1B207FB04F009F80010601CE3
S32508011b20C4B26888A042E0DC0EE0002409E00098005DC0F1FF0107FB04F009F80010601C6E
S32508011b40C4B26888A042F2DC18F806002E2803D018F80600692801D14FF0040A09F1010957
S32508011b60701CC6B201988642ADDB002406E06868005DC04369680855601CC4B26888784364
S32508011b80A042F4DC28467FE72DE9F84F05460E4692461F4616B90020BDE8F88F01222021F8
S32508011ba0434803F01DFD01220421414803F018FD0A200EF0A5F8002204213D4803F010FD14
S32508011bc0002220213A4803F00BFD01220821394803F006FDB946F91707EB5171C910A7EB25
S32508011be0C101C8B200F0ECF8A946E91705EB91718910A5EB8101C8B207F04AFF5146304673
S32508011c00FBF7BEFB90236A4603212B48FBF71AFA642E03D30A20294908800DE04FF47A7064
S32508011c20B0FBF6F02549088008460088B0F5FA7F02DD4FF4FA70088003202149087090234E
S32508011c406A4603211C48FBF7FDF94FF0000800241CE01C4830F81400B0F5004F03DB00205C
S32508011c60184921F81400174931F8141001EB4101C802C11700EB5141C913124A22F8141057
S32508011c80104630F814008044601C84B20B4800888442DEDB00200A49087008480088B8FB5D
S32508011ca0F0FB00220821034803F09AFC584673E70010024000000240E4050020F200002064
S32508011cc0F00000203C1300202DE9F84F04460E469146304605F0F4FC002864D1012E01D1EB
S32508011ce0324D01E006B9324D2046E11704EB91718910A4EB810101EB41012E4A515C1822B1
S32508011d0091FBF2F302FB1311CFB2E11704EB91718910A4EB810101EB4101264A114449785A
S32508011d20182291FBF2F302FB131101F0FF0822490868804715F80810E85D1F4A5368324628
S32508011d40984715F80810E85D1B4A9368324698471948C16801208847184808F02FFF00F084
S32508011d60FF0A1648103808F029FF00901348103008F024FF00F0FF0B534601225846009952
S32508011d80FFF702FFC9F8000000214FF47A70FBF7F7FA0948C168002088470749086880475B
S32508011da00020BDE8F88FFF20FBE700000E5C0020265C0020B606030840060020B0120800A4
S32508011dc010B50446082C70D2DFE804F00417293B4C5E708100224FF480714F4803F000FCBE
S32508011de000224FF400714D4803F0FAFB00224FF480714A4803F0F4FB8CE000224FF48071F5
S32508011e00454803F0EDFB00224FF40071434803F0E7FB01221102414803F0E2FB7AE000220A
S32508011e204FF480713C4803F0DBFB012251023B4803F0D6FB00224FF48071384803F0D0FBC1
S32508011e4068E000224FF48071334803F0C9FB01225102324803F0C4FB012211022F4803F061
S32508011e60BFFB57E0012211022B4803F0B9FB00224FF40071294803F0B3FB00224FF48071D4
S32508011e80264803F0ADFB45E001221102224803F0A7FB00224FF40071204803F0A1FB0122E0
S32508011ea011021E4803F09CFB34E020E001221102194803F095FB01225102184803F090FB8E
S32508011ec000224FF48071154803F08AFB22E001221102114803F084FB012251020F4803F005
S32508011ee07FFB012211020D4803F07AFB12E000224FF48071084803F073FB00224FF4007197
S32508011f00064803F06DFB00224FF48071034803F067FB00BF00BF10BD00000240000802403C
S32508011f202DE9FE4F04460E4691461D4616B90020BDE8FE8F01222021384803F051FB0122F0
S32508011f400421364803F04CFB0A200DF0D9FE00224FF40071324803F043FB002204212F4858
S32508011f6003F03EFB002220212C4803F039FB012208212C4803F034FBA846E91705EB5171A6
S32508011f80C910A5EBC101C8B2FFF71AFFA046E11704EB91718910A4EB8101C8B207F078FD1F
S32508011fa049463046FBF7ECF928200DF0A9FE922302AA00211C48FBF745F828200DF0A0FE52
S32508011fc0922302AA03211848FBF73CF8022017490870922301AA00211348FBF733F892233F
S32508011fe06A4603211048FBF72DF800200F490870BDF80400BDF80010884202DABDF8007056
S3250801200001E0BDF8047007EB4700C0F3101A00220821044803F0E4FA504689E700100240D1
S325080120200004024000000240E4050020F000002010B50249024802F095F910BD60EA0020DF
S32508012040B80B00201CB517480078002829D0002425E004EB4400144901EBC000006904EB08
S325080120604401114A02EBC101C968CDE9001004EB4400114601EBC000836804EB440001EBCB
S32508012080C0020AA116480DF0B3F915480CF04EFD0CF078FE0A200DF033FE601CC4B2262C0B
S325080120a0D7DB1CBD60000020905C00207B222573222C2074797065203D2025642C204F7084
S325080120c0656E4C696D203D2025642C2053686F72744C696D203D2025647D0D0A00000000DE
S325080120e0401000201CB517480078002829D0002425E004EB4400144901EBC000006904EBDB
S325080121004401114A02EBC101C968CDE9001004EB4400114601EBC000836804EB440001EB2A
S32508012120C0020AA116480DF063F915480CF0FEFC0CF028FE0A200DF0E3FD601CC4B2082CCA
S32508012140D7DB1CBD60000020006500207B222573222C2074797065203D2025642C204F706A
S32508012160656E4C696D203D2025642C2053686F72744C696D203D2025647D0D0A000000003D
S32508012180401000201CB517480078002829D0002425E004EB4400144901EBC000006904EB3A
S325080121a04401114A02EBC101C968CDE9001004EB4400114601EBC000836804EB440001EB8A
S325080121c0C0020AA116480DF013F915480CF0AEFC0CF0D8FD0A200DF093FD601CC4B2142C5F
S325080121e0D7DB1CBD60000020206000207B222573222C2074797065203D2025642C204F70AF
S32508012200656E4C696D203D2025642C2053686F72744C696D203D2025647D0D0A000000009C
S32508012220401000201CB517480078002829D0002425E004EB4400144901EBC000006904EB99
S325080122404401114A02EBC101C968CDE9001004EB4400114601EBC000836804EB440001EBE9
S32508012260C0020AA116480DF0C3F815480CF05EFC0CF088FD0A200DF043FD601CC4B2082C0B
S32508012280D7DB1CBD60000020E06300207B222573222C2074797065203D2025642C204F704B
S325080122a0656E4C696D203D2025642C2053686F72744C696D203D2025647D0D0A00000000FC
S325080122c0401000201CB517480078002829D0002425E004EB4400144901EBC000006904EBF9
S325080122e04401114A02EBC101C968CDE9001004EB4400114601EBC000836804EB440001EB49
S32508012300C0020AA116480DF073F815480CF00EFC0CF038FD0A200DF0F3FC601CC4B2082CAB
S32508012320D7DB1CBD60000020A06400207B222573222C2074797065203D2025642C204F70E9
S32508012340656E4C696D203D2025642C2053686F72744C696D203D2025647D0D0A000000005B
S32508012360401000201CB517480078002829D0002425E004EB4400144901EBC000006904EB58
S325080123804401114A02EBC101C968CDE9001004EB4400114601EBC000836804EB440001EBA8
S325080123a0C0020AA116480DF023F815480CF0BEFB0CF0E8FC0A200DF0A3FC601CC4B2082C4D
S325080123c0D7DB1CBD60000020D06400207B222573222C2074797065203D2025642C204F7019
S325080123e0656E4C696D203D2025642C2053686F72744C696D203D2025647D0D0A00000000BB
S32508012400401000201CB517480078002829D0002425E004EB4400144901EBC000006904EBB7
S325080124204401114A02EBC101C968CDE9001004EB4400114601EBC000836804EB440001EB07
S32508012440C0020AA116480CF0D3FF15480CF06EFB0CF098FC0A200DF053FC601CC4B2142CDA
S32508012460D7DB1CBD60000020006200207B222573222C2074797065203D2025642C204F704A
S32508012480656E4C696D203D2025642C2053686F72744C696D203D2025647D0D0A000000001A
S325080124a040100020704710B5044603E04FF47A7000F006F8201EA4F101018CB2F6D110BD32
S325080124c006E0032100BF0A1EA1F10103D9B2FAD1021EA0F1010398B2F3D170472DE9FC4143
S325080124e004460D4616461F4600BF01203B46324629460090204608F0C5FE902301AA0321F4
S325080125000748FAF79FFDBDF8040000EB4000C0F310180449086880474046BDE8FC810000E5
S32508012520E4050020400600202DE9F04F03468A461446B4F800B04FEAEB7E0BEB5E7E4FEA4C
